{
	"data": {
		"bytecode": {
			"linkReferences": {},
			"object": "6080604052604051616d0e380380616d0e8339818101604052810190610025919061076a565b8573ffffffffffffffffffffffffffffffffffffffff1663c6f0577160023461004e91906108ba565b84336040518463ffffffff1660e01b815260040161006d92919061094f565b6000604051808303818588803b15801561008657600080fd5b505af115801561009a573d6000803e3d6000fd5b50505050508673ffffffffffffffffffffffffffffffffffffffff1663d204c45e6002346100c891906108ba565b33846040518463ffffffff1660e01b81526004016100e792919061097f565b60206040518083038185885af1158015610105573d6000803e3d6000fd5b50505050506040513d601f19601f8201168201806040525081019061012a91906109db565b600781905550816008908161013f9190610c14565b5085600360006101000a81548173ffffffffffffffffffffffffffffffffffffffff021916908373ffffffffffffffffffffffffffffffffffffffff16021790555086600260006101000a81548173ffffffffffffffffffffffffffffffffffffffff021916908373ffffffffffffffffffffffffffffffffffffffff16021790555083600560006101000a81548173ffffffffffffffffffffffffffffffffffffffff021916908373ffffffffffffffffffffffffffffffffffffffff16021790555082600660006101000a81548173ffffffffffffffffffffffffffffffffffffffff021916908373ffffffffffffffffffffffffffffffffffffffff16021790555086604051610251906103bb565b61025b9190610d3b565b604051809103906000f080158015610277573d6000803e3d6000fd5b506000806101000a81548173ffffffffffffffffffffffffffffffffffffffff021916908373ffffffffffffffffffffffffffffffffffffffff1602179055508989898760008054906101000a900473ffffffffffffffffffffffffffffffffffffffff166040516102e8906103c8565b6102f6959493929190610de9565b604051809103906000f080158015610312573d6000803e3d6000fd5b50600160006101000a81548173ffffffffffffffffffffffffffffffffffffffff021916908373ffffffffffffffffffffffffffffffffffffffff1602179055507f9f65c0d0cc1655c261b06f98571b0702238a4dd3dfb594e0aca5b88f1c9d9ddf600160009054906101000a900473ffffffffffffffffffffffffffffffffffffffff166040516103a49190610e3c565b60405180910390a150505050505050505050610e57565b6109ab806121d683390190565b61418d80612b8183390190565b6000604051905090565b600080fd5b600080fd5b600063ffffffff82169050919050565b610402816103e9565b811461040d57600080fd5b50565b60008151905061041f816103f9565b92915050565b600073ffffffffffffffffffffffffffffffffffffffff82169050919050565b600061045082610425565b9050919050565b600061046282610445565b9050919050565b61047281610457565b811461047d57600080fd5b50565b60008151905061048f81610469565b92915050565b60006104a082610445565b9050919050565b6104b081610495565b81146104bb57600080fd5b50565b6000815190506104cd816104a7565b92915050565b60006104de82610445565b9050919050565b6104ee816104d3565b81146104f957600080fd5b50565b60008151905061050b816104e5565b92915050565b600061051c82610445565b9050919050565b61052c81610511565b811461053757600080fd5b50565b60008151905061054981610523565b92915050565b600061055a82610445565b9050919050565b61056a8161054f565b811461057557600080fd5b50565b60008151905061058781610561565b92915050565b600061059882610445565b9050919050565b6105a88161058d565b81146105b357600080fd5b50565b6000815190506105c58161059f565b92915050565b60006105d682610445565b9050919050565b6105e6816105cb565b81146105f157600080fd5b50565b600081519050610603816105dd565b92915050565b600080fd5b600080fd5b6000601f19601f8301169050919050565b7f4e487b7100000000000000000000000000000000000000000000000000000000600052604160045260246000fd5b61065c82610613565b810181811067ffffffffffffffff8211171561067b5761067a610624565b5b80604052505050565b600061068e6103d5565b905061069a8282610653565b919050565b600067ffffffffffffffff8211156106ba576106b9610624565b5b6106c382610613565b9050602081019050919050565b60005b838110156106ee5780820151818401526020810190506106d3565b60008484015250505050565b600061070d6107088461069f565b610684565b9050828152602081018484840111156107295761072861060e565b5b6107348482856106d0565b509392505050565b600082601f83011261075157610750610609565b5b81516107618482602086016106fa565b91505092915050565b6000806000806000806000806000806101408b8d03121561078e5761078d6103df565b5b600061079c8d828e01610410565b9a505060206107ad8d828e01610480565b99505060406107be8d828e016104be565b98505060606107cf8d828e016104fc565b97505060806107e08d828e0161053a565b96505060a06107f18d828e01610578565b95505060c06108028d828e016105b6565b94505060e06108138d828e016105f4565b9350506101008b015167ffffffffffffffff811115610835576108346103e4565b5b6108418d828e0161073c565b9250506101208b015167ffffffffffffffff811115610863576108626103e4565b5b61086f8d828e0161073c565b9150509295989b9194979a5092959850565b6000819050919050565b7f4e487b7100000000000000000000000000000000000000000000000000000000600052601260045260246000fd5b60006108c582610881565b91506108d083610881565b9250826108e0576108df61088b565b5b828204905092915050565b600081519050919050565b600082825260208201905092915050565b6000610912826108eb565b61091c81856108f6565b935061092c8185602086016106d0565b61093581610613565b840191505092915050565b61094981610445565b82525050565b600060408201905081810360008301526109698185610907565b90506109786020830184610940565b9392505050565b60006040820190506109946000830185610940565b81810360208301526109a68184610907565b90509392505050565b6109b881610881565b81146109c357600080fd5b50565b6000815190506109d5816109af565b92915050565b6000602082840312156109f1576109f06103df565b5b60006109ff848285016109c6565b91505092915050565b7f4e487b7100000000000000000000000000000000000000000000000000000000600052602260045260246000fd5b60006002820490506001821680610a4f57607f821691505b602082108103610a6257610a61610a08565b5b50919050565b60008190508160005260206000209050919050565b60006020601f8301049050919050565b600082821b905092915050565b600060088302610aca7fffffffffffffffffffffffffffffffffffffffffffffffffffffffffffffffff82610a8d565b610ad48683610a8d565b95508019841693508086168417925050509392505050565b6000819050919050565b6000610b11610b0c610b0784610881565b610aec565b610881565b9050919050565b6000819050919050565b610b2b83610af6565b610b3f610b3782610b18565b848454610a9a565b825550505050565b600090565b610b54610b47565b610b5f818484610b22565b505050565b5b81811015610b8357610b78600082610b4c565b600181019050610b65565b5050565b601f821115610bc857610b9981610a68565b610ba284610a7d565b81016020851015610bb1578190505b610bc5610bbd85610a7d565b830182610b64565b50505b505050565b600082821c905092915050565b6000610beb60001984600802610bcd565b1980831691505092915050565b6000610c048383610bda565b9150826002028217905092915050565b610c1d826108eb565b67ffffffffffffffff811115610c3657610c35610624565b5b610c408254610a37565b610c4b828285610b87565b600060209050601f831160018114610c7e5760008415610c6c578287015190505b610c768582610bf8565b865550610cde565b601f198416610c8c86610a68565b60005b82811015610cb457848901518255600182019150602085019450602081019050610c8f565b86831015610cd15784890151610ccd601f891682610bda565b8355505b6001600288020188555050505b505050505050565b6000610d01610cfc610cf784610425565b610aec565b610425565b9050919050565b6000610d1382610ce6565b9050919050565b6000610d2582610d08565b9050919050565b610d3581610d1a565b82525050565b6000602082019050610d506000830184610d2c565b92915050565b610d5f816103e9565b82525050565b6000610d7082610d08565b9050919050565b610d8081610d65565b82525050565b6000610d9182610d08565b9050919050565b610da181610d86565b82525050565b6000610db282610d08565b9050919050565b610dc281610da7565b82525050565b6000610dd382610d08565b9050919050565b610de381610dc8565b82525050565b600060a082019050610dfe6000830188610d56565b610e0b6020830187610d77565b610e186040830186610d98565b610e256060830185610db9565b610e326080830184610dda565b9695505050505050565b6000602082019050610e516000830184610940565b92915050565b61137080610e666000396000f3fe6080604052600436106100a75760003560e01c806365058f4c1161006457806365058f4c146101bc578063804ee2b5146101d35780639d990317146101ef578063a71b6cd01461021a578063f49f23d614610243578063f6b6dd851461026c576100a7565b80631302424b146100ac5780632739811a146100e957806336d011b4146101125780633e77fd8f1461013d5780635149246a1461016857806360b1b4b514610191575b600080fd5b3480156100b857600080fd5b506100d360048036038101906100ce9190610890565b6102a9565b6040516100e0919061094d565b60405180910390f35b3480156100f557600080fd5b50610110600480360381019061010b9190610b56565b610351565b005b34801561011e57600080fd5b506101276103f6565b604051610134919061094d565b60405180910390f35b34801561014957600080fd5b50610152610484565b60405161015f9190610bf6565b60405180910390f35b34801561017457600080fd5b5061018f600480360381019061018a9190610cc6565b61048a565b005b34801561019d57600080fd5b506101a661052f565b6040516101b3919061094d565b60405180910390f35b3480156101c857600080fd5b506101d16105d9565b005b6101ed60048036038101906101e89190610d73565b610675565b005b3480156101fb57600080fd5b5061020461070b565b6040516102119190610bf6565b60405180910390f35b34801561022657600080fd5b50610241600480360381019061023c9190610de2565b610715565b005b34801561024f57600080fd5b5061026a60048036038101906102659190610e22565b6107ab565b005b34801561027857600080fd5b50610293600480360381019061028e9190610e22565b61083b565b6040516102a09190610e86565b60405180910390f35b606060008054906101000a900473ffffffffffffffffffffffffffffffffffffffff1673ffffffffffffffffffffffffffffffffffffffff166382c41a48836040518263ffffffff1660e01b81526004016103049190610bf6565b600060405180830381865afa158015610321573d6000803e3d6000fd5b505050506040513d6000823e3d601f19601f8201168201806040525081019061034a9190610f11565b9050919050565b600160009054906101000a900473ffffffffffffffffffffffffffffffffffffffff1673ffffffffffffffffffffffffffffffffffffffff1663571f60f38787878760001b8760001b876040518763ffffffff1660e01b81526004016103bc9695949392919061111c565b600060405180830381600087803b1580156103d657600080fd5b505af11580156103ea573d6000803e3d6000fd5b50505050505050505050565b60088054610403906111b0565b80601f016020809104026020016040519081016040528092919081815260200182805461042f906111b0565b801561047c5780601f106104515761010080835404028352916020019161047c565b820191906000526020600020905b81548152906001019060200180831161045f57829003601f168201915b505050505081565b60075481565b600160009054906101000a900473ffffffffffffffffffffffffffffffffffffffff1673ffffffffffffffffffffffffffffffffffffffff1663c20654ea8787878760001b8760001b876040518763ffffffff1660e01b81526004016104f5969594939291906111e1565b600060405180830381600087803b15801561050f57600080fd5b505af1158015610523573d6000803e3d6000fd5b50505050505050505050565b6060600260009054906101000a900473ffffffffffffffffffffffffffffffffffffffff1673ffffffffffffffffffffffffffffffffffffffff1663c87b56dd6007546040518263ffffffff1660e01b815260040161058e9190610bf6565b600060405180830381865afa1580156105ab573d6000803e3d6000fd5b505050506040513d6000823e3d601f19601f820116820180604052508101906105d49190610f11565b905090565b600060329050600660009054906101000a900473ffffffffffffffffffffffffffffffffffffffff1673ffffffffffffffffffffffffffffffffffffffff1663ce6b072633836007546040518463ffffffff1660e01b81526004016106409392919061128e565b600060405180830381600087803b15801561065a57600080fd5b505af115801561066e573d6000803e3d6000fd5b5050505050565b60008054906101000a900473ffffffffffffffffffffffffffffffffffffffff1673ffffffffffffffffffffffffffffffffffffffff16633b12c05b848484336040518563ffffffff1660e01b81526004016106d494939291906112c5565b600060405180830381600087803b1580156106ee57600080fd5b505af1158015610702573d6000803e3d6000fd5b50505050505050565b6000600754905090565b600160009054906101000a900473ffffffffffffffffffffffffffffffffffffffff1673ffffffffffffffffffffffffffffffffffffffff166337a2bc528360001b836040518363ffffffff1660e01b8152600401610775929190611311565b600060405180830381600087803b15801561078f57600080fd5b505af11580156107a3573d6000803e3d6000fd5b505050505050565b600560009054906101000a900473ffffffffffffffffffffffffffffffffffffffff1673ffffffffffffffffffffffffffffffffffffffff16630b4f12f6826040518263ffffffff1660e01b8152600401610806919061094d565b600060405180830381600087803b15801561082057600080fd5b505af1158015610834573d6000803e3d6000fd5b5050505050565b600060019050919050565b6000604051905090565b600080fd5b600080fd5b6000819050919050565b61086d8161085a565b811461087857600080fd5b50565b60008135905061088a81610864565b92915050565b6000602082840312156108a6576108a5610850565b5b60006108b48482850161087b565b91505092915050565b600081519050919050565b600082825260208201905092915050565b60005b838110156108f75780820151818401526020810190506108dc565b60008484015250505050565b6000601f19601f8301169050919050565b600061091f826108bd565b61092981856108c8565b93506109398185602086016108d9565b61094281610903565b840191505092915050565b600060208201905081810360008301526109678184610914565b905092915050565b600080fd5b7f4e487b7100000000000000000000000000000000000000000000000000000000600052604160045260246000fd5b6109ac82610903565b810181811067ffffffffffffffff821117156109cb576109ca610974565b5b80604052505050565b60006109de610846565b90506109ea82826109a3565b919050565b600067ffffffffffffffff821115610a0a57610a09610974565b5b602082029050919050565b600080fd5b6000610a2d610a28846109ef565b6109d4565b90508060208402830185811115610a4757610a46610a15565b5b835b81811015610a705780610a5c888261087b565b845260208401935050602081019050610a49565b5050509392505050565b600082601f830112610a8f57610a8e61096f565b5b6002610a9c848285610a1a565b91505092915050565b600067ffffffffffffffff821115610ac057610abf610974565b5b602082029050919050565b6000610ade610ad984610aa5565b6109d4565b90508060408402830185811115610af857610af7610a15565b5b835b81811015610b215780610b0d8882610a7a565b845260208401935050604081019050610afa565b5050509392505050565b600082601f830112610b4057610b3f61096f565b5b6002610b4d848285610acb565b91505092915050565b6000806000806000806101608789031215610b7457610b73610850565b5b6000610b8289828a01610a7a565b9650506040610b9389828a01610b2b565b95505060c0610ba489828a01610a7a565b945050610100610bb689828a0161087b565b935050610120610bc889828a0161087b565b925050610140610bda89828a0161087b565b9150509295509295509295565b610bf08161085a565b82525050565b6000602082019050610c0b6000830184610be7565b92915050565b600080fd5b600067ffffffffffffffff821115610c3157610c30610974565b5b610c3a82610903565b9050602081019050919050565b82818337600083830152505050565b6000610c69610c6484610c16565b6109d4565b905082815260208101848484011115610c8557610c84610c11565b5b610c90848285610c47565b509392505050565b600082601f830112610cad57610cac61096f565b5b8135610cbd848260208601610c56565b91505092915050565b6000806000806000806101608789031215610ce457610ce3610850565b5b6000610cf289828a01610a7a565b9650506040610d0389828a01610b2b565b95505060c0610d1489828a01610a7a565b945050610100610d2689828a0161087b565b935050610120610d3889828a0161087b565b92505061014087013567ffffffffffffffff811115610d5a57610d59610855565b5b610d6689828a01610c98565b9150509295509295509295565b600080600060608486031215610d8c57610d8b610850565b5b6000610d9a8682870161087b565b9350506020610dab8682870161087b565b925050604084013567ffffffffffffffff811115610dcc57610dcb610855565b5b610dd886828701610c98565b9150509250925092565b60008060408385031215610df957610df8610850565b5b6000610e078582860161087b565b9250506020610e188582860161087b565b9150509250929050565b600060208284031215610e3857610e37610850565b5b600082013567ffffffffffffffff811115610e5657610e55610855565b5b610e6284828501610c98565b91505092915050565b60008115159050919050565b610e8081610e6b565b82525050565b6000602082019050610e9b6000830184610e77565b92915050565b6000610eb4610eaf84610c16565b6109d4565b905082815260208101848484011115610ed057610ecf610c11565b5b610edb8482856108d9565b509392505050565b600082601f830112610ef857610ef761096f565b5b8151610f08848260208601610ea1565b91505092915050565b600060208284031215610f2757610f26610850565b5b600082015167ffffffffffffffff811115610f4557610f44610855565b5b610f5184828501610ee3565b91505092915050565b600060029050919050565b600081905092915050565b6000819050919050565b610f838161085a565b82525050565b6000610f958383610f7a565b60208301905092915050565b6000602082019050919050565b610fb781610f5a565b610fc18184610f65565b9250610fcc82610f70565b8060005b83811015610ffd578151610fe48782610f89565b9650610fef83610fa1565b925050600181019050610fd0565b505050505050565b600060029050919050565b600081905092915050565b6000819050919050565b600081905092915050565b61103981610f5a565b6110438184611025565b925061104e82610f70565b8060005b8381101561107f5781516110668782610f89565b965061107183610fa1565b925050600181019050611052565b505050505050565b60006110938383611030565b60408301905092915050565b6000602082019050919050565b6110b581611005565b6110bf8184611010565b92506110ca8261101b565b8060005b838110156110fb5781516110e28782611087565b96506110ed8361109f565b9250506001810190506110ce565b505050505050565b6000819050919050565b61111681611103565b82525050565b6000610160820190506111326000830189610fae565b61113f60408301886110ac565b61114c60c0830187610fae565b61115a61010083018661110d565b61116861012083018561110d565b611176610140830184610be7565b979650505050505050565b7f4e487b7100000000000000000000000000000000000000000000000000000000600052602260045260246000fd5b600060028204905060018216806111c857607f821691505b6020821081036111db576111da611181565b5b50919050565b6000610160820190506111f76000830189610fae565b61120460408301886110ac565b61121160c0830187610fae565b61121f61010083018661110d565b61122d61012083018561110d565b8181036101408301526112408184610914565b9050979650505050505050565b600073ffffffffffffffffffffffffffffffffffffffff82169050919050565b60006112788261124d565b9050919050565b6112888161126d565b82525050565b60006060820190506112a3600083018661127f565b6112b06020830185610be7565b6112bd6040830184610be7565b949350505050565b60006080820190506112da6000830187610be7565b6112e76020830186610be7565b81810360408301526112f98185610914565b9050611308606083018461127f565b95945050505050565b6000604082019050611326600083018561110d565b6113336020830184610be7565b939250505056fea2646970667358221220e11a80e953911065814d03e3879ae55ffea956823cf1527797ee7a4c0c660ae264736f6c63430008190033608060405234801561001057600080fd5b506040516109ab3803806109ab833981810160405281019061003291906100ee565b80600160006101000a81548173ffffffffffffffffffffffffffffffffffffffff021916908373ffffffffffffffffffffffffffffffffffffffff1602179055505061011b565b600080fd5b600073ffffffffffffffffffffffffffffffffffffffff82169050919050565b60006100a98261007e565b9050919050565b60006100bb8261009e565b9050919050565b6100cb816100b0565b81146100d657600080fd5b50565b6000815190506100e8816100c2565b92915050565b60006020828403121561010457610103610079565b5b6000610112848285016100d9565b91505092915050565b6108818061012a6000396000f3fe6080604052600436106100345760003560e01c80632e1f9763146100395780633b12c05b1461007657806382c41a4814610092575b600080fd5b34801561004557600080fd5b50610060600480360381019061005b9190610386565b6100cf565b60405161006d9190610404565b60405180910390f35b610090600480360381019061008b91906105c3565b610119565b005b34801561009e57600080fd5b506100b960048036038101906100b49190610386565b610232565b6040516100c691906106c5565b60405180910390f35b6100d761031b565b60008083815260200190815260200160002060405180606001604052908160008201548152602001600182015481526020016002820154815250509050919050565b6000600160009054906101000a900473ffffffffffffffffffffffffffffffffffffffff1673ffffffffffffffffffffffffffffffffffffffff1663d204c45e3484866040518463ffffffff1660e01b81526004016101799291906106f6565b60206040518083038185885af1158015610197573d6000803e3d6000fd5b50505050506040513d601f19601f820116820180604052508101906101bc919061073b565b905060006101ca60026102f7565b90506101d66002610305565b600060405180606001604052808881526020018781526020018481525090508060008084815260200190815260200160002060008201518160000155602082015181600101556040820151816002015590505050505050505050565b60606000806000848152602001908152602001600020600201549050600160009054906101000a900473ffffffffffffffffffffffffffffffffffffffff1673ffffffffffffffffffffffffffffffffffffffff1663c87b56dd826040518263ffffffff1660e01b81526004016102a99190610777565b600060405180830381865afa1580156102c6573d6000803e3d6000fd5b505050506040513d6000823e3d601f19601f820116820180604052508101906102ef9190610802565b915050919050565b600081600001549050919050565b6001816000016000828254019250508190555050565b60405180606001604052806000815260200160008152602001600081525090565b6000604051905090565b600080fd5b600080fd5b6000819050919050565b61036381610350565b811461036e57600080fd5b50565b6000813590506103808161035a565b92915050565b60006020828403121561039c5761039b610346565b5b60006103aa84828501610371565b91505092915050565b6103bc81610350565b82525050565b6060820160008201516103d860008501826103b3565b5060208201516103eb60208501826103b3565b5060408201516103fe60408501826103b3565b50505050565b600060608201905061041960008301846103c2565b92915050565b600080fd5b600080fd5b6000601f19601f8301169050919050565b7f4e487b7100000000000000000000000000000000000000000000000000000000600052604160045260246000fd5b61047282610429565b810181811067ffffffffffffffff821117156104915761049061043a565b5b80604052505050565b60006104a461033c565b90506104b08282610469565b919050565b600067ffffffffffffffff8211156104d0576104cf61043a565b5b6104d982610429565b9050602081019050919050565b82818337600083830152505050565b6000610508610503846104b5565b61049a565b90508281526020810184848401111561052457610523610424565b5b61052f8482856104e6565b509392505050565b600082601f83011261054c5761054b61041f565b5b813561055c8482602086016104f5565b91505092915050565b600073ffffffffffffffffffffffffffffffffffffffff82169050919050565b600061059082610565565b9050919050565b6105a081610585565b81146105ab57600080fd5b50565b6000813590506105bd81610597565b92915050565b600080600080608085870312156105dd576105dc610346565b5b60006105eb87828801610371565b94505060206105fc87828801610371565b935050604085013567ffffffffffffffff81111561061d5761061c61034b565b5b61062987828801610537565b925050606061063a878288016105ae565b91505092959194509250565b600081519050919050565b600082825260208201905092915050565b60005b83811015610680578082015181840152602081019050610665565b60008484015250505050565b600061069782610646565b6106a18185610651565b93506106b1818560208601610662565b6106ba81610429565b840191505092915050565b600060208201905081810360008301526106df818461068c565b905092915050565b6106f081610585565b82525050565b600060408201905061070b60008301856106e7565b818103602083015261071d818461068c565b90509392505050565b6000815190506107358161035a565b92915050565b60006020828403121561075157610750610346565b5b600061075f84828501610726565b91505092915050565b61077181610350565b82525050565b600060208201905061078c6000830184610768565b92915050565b60006107a56107a0846104b5565b61049a565b9050828152602081018484840111156107c1576107c0610424565b5b6107cc848285610662565b509392505050565b600082601f8301126107e9576107e861041f565b5b81516107f9848260208601610792565b91505092915050565b60006020828403121561081857610817610346565b5b600082015167ffffffffffffffff8111156108365761083561034b565b5b610842848285016107d4565b9150509291505056fea2646970667358221220d3f65e7b8c97642199a7f6aee641a662c8775a5862bef60c7a36f628103d104e64736f6c6343000819003360e06040526000600360006101000a81548163ffffffff021916908363ffffffff1602179055506000600360046101000a81548163ffffffff021916908363ffffffff16021790555060026008556203f480600955600a8055601e600b5534801561006957600080fd5b5060405161418d38038061418d833981810160405281019061008b9190610ac7565b848460008263ffffffff16116100d6576040517f08c379a00000000000000000000000000000000000000000000000000000000081526004016100cd90610bc5565b60405180910390fd5b60208263ffffffff161061011f576040517f08c379a000000000000000000000000000000000000000000000000000000000815260040161011690610c31565b60405180910390fd5b81600360086101000a81548163ffffffff021916908363ffffffff1602179055508073ffffffffffffffffffffffffffffffffffffffff1660808173ffffffffffffffffffffffffffffffffffffffff168152505060005b8263ffffffff168163ffffffff1610156101c9576101a08163ffffffff166102bd60201b60201c565b6000808363ffffffff168152602001908152602001600020819055508080600101915050610177565b506101f1600360089054906101000a900463ffffffff1663ffffffff166102bd60201b60201c565b600160008081526020019081526020016000208190555050508273ffffffffffffffffffffffffffffffffffffffff1660a08173ffffffffffffffffffffffffffffffffffffffff16815250508173ffffffffffffffffffffffffffffffffffffffff1660c08173ffffffffffffffffffffffffffffffffffffffff168152505080600c60006101000a81548173ffffffffffffffffffffffffffffffffffffffff021916908373ffffffffffffffffffffffffffffffffffffffff1602179055505050505050610cbd565b60008082036102f1577f2fe54c60d3acabf3343a35b6eba15db4821b340f76e741e2249685ed4899af6c60001b9050610957565b60018203610324577f256a6135777eee2fd26f54b8b7037a25439d5235caee224154186d2b8a52e31d60001b9050610957565b60028203610357577f1151949895e82ab19924de92c40a3d6f7bcb60d92b00504b8199613683f0c20060001b9050610957565b6003820361038a577f20121ee811489ff8d61f09fb89e313f14959a0f28bb428a20dba6b0b068b3bdb60001b9050610957565b600482036103bd577f0a89ca6ffa14cc462cfedb842c30ed221a50a3d6bf022a6a57dc82ab24c157c960001b9050610957565b600582036103f0577f24ca05c2b5cd42e890d6be94c68d0689f4f21c9cec9c0f13fe41d566dfb5495960001b9050610957565b60068203610423577f1ccb97c932565a92c60156bdba2d08f3bf1377464e025cee765679e604a7315c60001b9050610957565b60078203610456577f19156fbd7d1a8bf5cba8909367de1b624534ebab4f0f79e003bccdd1b182bdb460001b9050610957565b60088203610489577f261af8c1f0912e465744641409f622d466c3920ac6e5ff37e36604cb11dfff8060001b9050610957565b600982036104bb577e58459724ff6ca5a1652fcbc3e82b93895cf08e975b19beab3f54c217d1c00760001b9050610957565b600a82036104ee577f1f04ef20dee48d39984d8eabe768a70eafa6310ad20849d4573c3c40c2ad1e3060001b9050610957565b600b8203610521577f1bea3dec5dab51567ce7e200a30f7ba6d4276aeaa53e2686f962a46c66d511e560001b9050610957565b600c8203610554577f0ee0f941e2da4b9e31c3ca97a40d8fa9ce68d97c084177071b3cb46cd3372f0f60001b9050610957565b600d8203610587577f1ca9503e8935884501bbaf20be14eb4c46b89772c97b96e3b2ebf3a36a948bbd60001b9050610957565b600e82036105ba577f133a80e30697cd55d8f7d4b0965b7be24057ba5dc3da898ee2187232446cb10860001b9050610957565b600f82036105ed577f13e6d8fc88839ed76e182c2a779af5b2c0da9dd18c90427a644f7e148a6253b660001b9050610957565b60108203610620577f1eb16b057a477f4bc8f572ea6bee39561098f78f15bfb3699dcbb7bd8db6185460001b9050610957565b60118203610653577f0da2cb16a1ceaabf1c16b838f7a9e3f2a3a3088d9e0a6debaa748114620696ea60001b9050610957565b60128203610686577f24a3b3d822420b14b5d8cb6c28a574f01e98ea9e940551d2ebd75cee12649f9d60001b9050610957565b601382036106b9577f198622acbd783d1b0d9064105b1fc8e4d8889de95c4c519b3f635809fe6afc0560001b9050610957565b601482036106ec577f29d7ed391256ccc3ea596c86e933b89ff339d25ea8ddced975ae2fe30b5296d460001b9050610957565b6015820361071f577f19be59f2f0413ce78c0c3703a3a5451b1d7f39629fa33abd11548a76065b296760001b9050610957565b60168203610752577f1ff3f61797e538b70e619310d33f2a063e7eb59104e112e95738da1254dc345360001b9050610957565b60178203610785577f10c16ae9959cf8358980d9dd9616e48228737310a10e2b6b731c1a548f036c4860001b9050610957565b601882036107b8577f0ba433a63174a90ac20992e75e3095496812b652685b5e1a2eae0b1bf4e8fcd160001b9050610957565b601982036107eb577f019ddb9df2bc98d987d0dfeca9d2b643deafab8f7036562e627c3667266a044c60001b9050610957565b601a820361081e577f2d3c88b23175c5a5565db928414c66d1912b11acf974b2e644caaac04739ce9960001b9050610957565b601b8203610851577f2eab55f6ae4e66e32c5189eed5c470840863445760f5ed7e7b69b2a62600f35460001b9050610957565b601c8203610883577e2df37a2642621802383cf952bf4dd1f32e05433beeb1fd41031fb7eace979d60001b9050610957565b601d82036108b6577f104aeb41435db66c3e62feccc1d6f5d98d0a0ed75d1374db457cf462e3a1f42760001b9050610957565b601e82036108e9577f1f3c6fd858e9a7d4b0d1f38e256a09d81d5a5e3c963987e2d4b814cfab7c6ebb60001b9050610957565b601f820361091c577f2c7a07d20dff79d01fecedc1134284a8d08436606c93693b67e333f671bf69cc60001b9050610957565b6040517f08c379a000000000000000000000000000000000000000000000000000000000815260040161094e90610c9d565b60405180910390fd5b919050565b600080fd5b600063ffffffff82169050919050565b61097a81610961565b811461098557600080fd5b50565b60008151905061099781610971565b92915050565b600073ffffffffffffffffffffffffffffffffffffffff82169050919050565b60006109c88261099d565b9050919050565b60006109da826109bd565b9050919050565b6109ea816109cf565b81146109f557600080fd5b50565b600081519050610a07816109e1565b92915050565b6000610a18826109bd565b9050919050565b610a2881610a0d565b8114610a3357600080fd5b50565b600081519050610a4581610a1f565b92915050565b6000610a56826109bd565b9050919050565b610a6681610a4b565b8114610a7157600080fd5b50565b600081519050610a8381610a5d565b92915050565b6000610a94826109bd565b9050919050565b610aa481610a89565b8114610aaf57600080fd5b50565b600081519050610ac181610a9b565b92915050565b600080600080600060a08688031215610ae357610ae261095c565b5b6000610af188828901610988565b9550506020610b02888289016109f8565b9450506040610b1388828901610a36565b9350506060610b2488828901610a74565b9250506080610b3588828901610ab2565b9150509295509295909350565b600082825260208201905092915050565b7f5f6c6576656c732073686f756c642062652067726561746572207468616e207a60008201527f65726f0000000000000000000000000000000000000000000000000000000000602082015250565b6000610baf602383610b42565b9150610bba82610b53565b604082019050919050565b60006020820190508181036000830152610bde81610ba2565b9050919050565b7f5f6c6576656c732073686f756c64206265206c657373207468616e2033320000600082015250565b6000610c1b601e83610b42565b9150610c2682610be5565b602082019050919050565b60006020820190508181036000830152610c4a81610c0e565b9050919050565b7f496e646578206f7574206f6620626f756e647300000000000000000000000000600082015250565b6000610c87601383610b42565b9150610c9282610c51565b602082019050919050565b60006020820190508181036000830152610cb681610c7a565b9050919050565b60805160a05160c051613469610d246000396000818161084a01528181610c9a0152818161106c015261148a0152600081816105de015281816109ba01526111ee015260008181610e1001528181610eea015281816110c90152611bec01526134696000f3fe608060405234801561001057600080fd5b50600436106101a95760003560e01c806390eeb02b116100f9578063d5803d8c11610097578063ed33639f11610071578063ed33639f14610520578063f178e47c1461053e578063f6b6dd851461056e578063fc7e9c6f1461059e576101a9565b8063d5803d8c146104b4578063e8295588146104d2578063ec73295914610502576101a9565b8063c20654ea116100d3578063c20654ea1461041a578063c2b40ae414610436578063c6062a4d14610466578063cd87a3b414610496576101a9565b806390eeb02b146103ae578063b8615eab146103cc578063ba70f757146103fc576101a9565b80634f67886e1161016657806362eed67a1161014057806362eed67a146103005780636d9833e3146103305780636ec6484e14610360578063839df9451461037e576101a9565b80634f67886e14610284578063571f60f3146102b45780635bb93995146102d0576101a9565b80632997e86b146101ae5780632b7ac3f3146101de57806337a2bc52146101fc5780633807372d14610218578063414a37ba146102485780634ecf518b14610266575b600080fd5b6101c860048036038101906101c39190611ec5565b6105bc565b6040516101d59190611f0d565b60405180910390f35b6101e66105dc565b6040516101f39190611fa7565b60405180910390f35b61021660048036038101906102119190611ff8565b610600565b005b610232600480360381019061022d9190611ec5565b6108f0565b60405161023f9190612047565b60405180910390f35b610250610908565b60405161025d9190612047565b60405180910390f35b61026e61092c565b60405161027b9190612081565b60405180910390f35b61029e600480360381019061029991906121e2565b610942565b6040516102ab919061223a565b60405180910390f35b6102ce60048036038101906102c991906123bc565b610970565b005b6102ea60048036038101906102e5919061244d565b610d41565b6040516102f7919061223a565b60405180910390f35b61031a6004803603810190610315919061244d565b610f9c565b604051610327919061223a565b60405180910390f35b61034a60048036038101906103459190611ec5565b610fcd565b6040516103579190611f0d565b60405180910390f35b61036861106a565b60405161037591906124ae565b60405180910390f35b61039860048036038101906103939190611ec5565b61108e565b6040516103a59190611f0d565b60405180910390f35b6103b66110ae565b6040516103c39190612081565b60405180910390f35b6103e660048036038101906103e191906124c9565b6110c4565b6040516103f39190612047565b60405180910390f35b610404611171565b604051610411919061223a565b60405180910390f35b610434600480360381019061042f91906124f6565b6111a4565b005b610450600480360381019061044b91906124c9565b6113a4565b60405161045d919061223a565b60405180910390f35b610480600480360381019061047b91906124c9565b6113bc565b60405161048d9190612661565b60405180910390f35b61049e611481565b6040516104ab9190612081565b60405180910390f35b6104bc611486565b6040516104c99190612047565b60405180910390f35b6104ec60048036038101906104e791906124c9565b611527565b6040516104f9919061223a565b60405180910390f35b61050a611bc6565b6040516105179190612047565b60405180910390f35b610528611bea565b60405161053591906126a4565b60405180910390f35b610558600480360381019061055391906124c9565b611c0e565b604051610565919061223a565b60405180910390f35b610588600480360381019061058391906121e2565b611c26565b6040516105959190611f0d565b60405180910390f35b6105a6611c64565b6040516105b39190612081565b60405180910390f35b60046020528060005260406000206000915054906101000a900460ff1681565b7f000000000000000000000000000000000000000000000000000000000000000081565b6005600083815260200190815260200160002060009054906101000a900460ff1615610661576040517f08c379a000000000000000000000000000000000000000000000000000000000815260040161065890612742565b60405180910390fd5b6000600c60009054906101000a900473ffffffffffffffffffffffffffffffffffffffff1673ffffffffffffffffffffffffffffffffffffffff16632e1f9763836040518263ffffffff1660e01b81526004016106be9190612047565b606060405180830381865afa1580156106db573d6000803e3d6000fd5b505050506040513d601f19601f820116820180604052508101906106ff91906127e0565b6000015190506000600c60009054906101000a900473ffffffffffffffffffffffffffffffffffffffff1673ffffffffffffffffffffffffffffffffffffffff16632e1f9763846040518263ffffffff1660e01b81526004016107629190612047565b606060405180830381865afa15801561077f573d6000803e3d6000fd5b505050506040513d601f19601f820116820180604052508101906107a391906127e0565b60200151905060008083836107b8919061283c565b036107c657600090506107d5565b82826107d2919061283c565b90505b60016005600087815260200190815260200160002060006101000a81548160ff021916908315150217905550600061080c86611c7a565b9050857f401999886e5f90a91b92a0bfb7e2d48f714651a4d1c929bb3a753525ba066b918243604051610840929190612870565b60405180910390a27f000000000000000000000000000000000000000000000000000000000000000073ffffffffffffffffffffffffffffffffffffffff16636c61d60f30670de0b6b3a7640000856108999190612899565b6040518363ffffffff1660e01b81526004016108b69291906128fc565b600060405180830381600087803b1580156108d057600080fd5b505af11580156108e4573d6000803e3d6000fd5b50505050505050505050565b60066020528060005260406000206000915090505481565b7f30644e72e131a029b85045b68181585d2833e84879b9709143e1f593f000000181565b600360089054906101000a900463ffffffff1681565b6007818051602081018201805184825260208301602085012081835280955050505050506000915090505481565b61097982610fcd565b6109b8576040517f08c379a00000000000000000000000000000000000000000000000000000000081526004016109af90612971565b60405180910390fd5b7f000000000000000000000000000000000000000000000000000000000000000073ffffffffffffffffffffffffffffffffffffffff1663f5c9d69e87878760405180604001604052808960001c81526020018860001c8152506040518563ffffffff1660e01b8152600401610a319493929190612b3a565b602060405180830381865afa158015610a4e573d6000803e3d6000fd5b505050506040513d601f19601f82011682018060405250810190610a729190612bad565b610ab1576040517f08c379a0000000000000000000000000000000000000000000000000000000008152600401610aa890612c26565b60405180910390fd5b6000801b600660008581526020019081526020016000205460001b03610b0c576040517f08c379a0000000000000000000000000000000000000000000000000000000008152600401610b0390612c92565b60405180910390fd5b42600660008581526020019081526020016000205410610b585762278d00600660008581526020019081526020016000206000828254610b4c919061283c565b92505081905550610bf4565b4260095462278d00610b6a9190612cb2565b6006600086815260200190815260200160002054610b88919061283c565b10610bb85762278d0042610b9c919061283c565b6006600085815260200190815260200160002081905550610bf3565b6040517f08c379a0000000000000000000000000000000000000000000000000000000008152600401610bea90612d32565b60405180910390fd5b5b6000600c60009054906101000a900473ffffffffffffffffffffffffffffffffffffffff1673ffffffffffffffffffffffffffffffffffffffff16632e1f9763836040518263ffffffff1660e01b8152600401610c519190612047565b606060405180830381865afa158015610c6e573d6000803e3d6000fd5b505050506040513d601f19601f82011682018060405250810190610c9291906127e0565b6020015190507f000000000000000000000000000000000000000000000000000000000000000073ffffffffffffffffffffffffffffffffffffffff16636c61d60f30670de0b6b3a764000084610ce99190612899565b6040518363ffffffff1660e01b8152600401610d069291906128fc565b600060405180830381600087803b158015610d2057600080fd5b505af1158015610d34573d6000803e3d6000fd5b5050505050505050505050565b60007f30644e72e131a029b85045b68181585d2833e84879b9709143e1f593f00000018310610da5576040517f08c379a0000000000000000000000000000000000000000000000000000000008152600401610d9c90612d9e565b60405180910390fd5b7f30644e72e131a029b85045b68181585d2833e84879b9709143e1f593f00000018210610e07576040517f08c379a0000000000000000000000000000000000000000000000000000000008152600401610dfe90612e30565b60405180910390fd5b600083905060007f000000000000000000000000000000000000000000000000000000000000000073ffffffffffffffffffffffffffffffffffffffff16633f1a1187838360006040518463ffffffff1660e01b8152600401610e6c93929190612e8b565b6040805180830381865afa158015610e88573d6000803e3d6000fd5b505050506040513d601f19601f82011682018060405250810190610eac9190612ec2565b80925081935050507f30644e72e131a029b85045b68181585d2833e84879b9709143e1f593f000000180610ee357610ee2612f02565b5b84830891507f000000000000000000000000000000000000000000000000000000000000000073ffffffffffffffffffffffffffffffffffffffff16633f1a1187838360006040518463ffffffff1660e01b8152600401610f4693929190612e8b565b6040805180830381865afa158015610f62573d6000803e3d6000fd5b505050506040513d601f19601f82011682018060405250810190610f869190612ec2565b80925081935050508160001b9250505092915050565b60026020528160005260406000208181548110610fb857600080fd5b90600052602060002001600091509150505481565b60008060001b8203610fe25760009050611065565b6000600360009054906101000a900463ffffffff16905060008190505b600160008263ffffffff16815260200190815260200160002054840361102a57600192505050611065565b60008163ffffffff160361103d57601e90505b808061104890612f31565b9150508163ffffffff168163ffffffff1603610fff576000925050505b919050565b7f000000000000000000000000000000000000000000000000000000000000000081565b60056020528060005260406000206000915054906101000a900460ff1681565b600360009054906101000a900463ffffffff1681565b6000807f000000000000000000000000000000000000000000000000000000000000000073ffffffffffffffffffffffffffffffffffffffff16633f1a1187846000806040518463ffffffff1660e01b815260040161112593929190612f5a565b6040805180830381865afa158015611141573d6000803e3d6000fd5b505050506040513d601f19601f820116820180604052508101906111659190612ec2565b50905080915050919050565b600060016000600360009054906101000a900463ffffffff1663ffffffff16815260200190815260200160002054905090565b6111ad82610fcd565b6111ec576040517f08c379a00000000000000000000000000000000000000000000000000000000081526004016111e390612971565b60405180910390fd5b7f000000000000000000000000000000000000000000000000000000000000000073ffffffffffffffffffffffffffffffffffffffff1663f5c9d69e87878760405180604001604052808960001c81526020018860001c8152506040518563ffffffff1660e01b81526004016112659493929190612b3a565b602060405180830381865afa158015611282573d6000803e3d6000fd5b505050506040513d601f19601f820116820180604052508101906112a69190612bad565b6112e5576040517f08c379a00000000000000000000000000000000000000000000000000000000081526004016112dc90612c26565b60405180910390fd5b6000801b600660008581526020019081526020016000205460001b14611340576040517f08c379a000000000000000000000000000000000000000000000000000000000815260040161133790612fdd565b60405180910390fd5b82600782604051611351919061306e565b908152602001604051809103902081905550600060095462278d0042611377919061283c565b611381919061283c565b905080600660008681526020019081526020016000208190555050505050505050565b60016020528060005260406000206000915090505481565b6060600360089054906101000a900463ffffffff1663ffffffff168210611418576040517f08c379a000000000000000000000000000000000000000000000000000000000815260040161140f906130d1565b60405180910390fd5b6002600083815260200190815260200160002080548060200260200160405190810160405280929190818152602001828054801561147557602002820191906000526020600020905b815481526020019060010190808311611461575b50505050509050919050565b601e81565b60007f000000000000000000000000000000000000000000000000000000000000000073ffffffffffffffffffffffffffffffffffffffff166370a08231306040518263ffffffff1660e01b81526004016114e191906130f1565b602060405180830381865afa1580156114fe573d6000803e3d6000fd5b505050506040513d601f19601f82011682018060405250810190611522919061310c565b905090565b600080820361155b577f2fe54c60d3acabf3343a35b6eba15db4821b340f76e741e2249685ed4899af6c60001b9050611bc1565b6001820361158e577f256a6135777eee2fd26f54b8b7037a25439d5235caee224154186d2b8a52e31d60001b9050611bc1565b600282036115c1577f1151949895e82ab19924de92c40a3d6f7bcb60d92b00504b8199613683f0c20060001b9050611bc1565b600382036115f4577f20121ee811489ff8d61f09fb89e313f14959a0f28bb428a20dba6b0b068b3bdb60001b9050611bc1565b60048203611627577f0a89ca6ffa14cc462cfedb842c30ed221a50a3d6bf022a6a57dc82ab24c157c960001b9050611bc1565b6005820361165a577f24ca05c2b5cd42e890d6be94c68d0689f4f21c9cec9c0f13fe41d566dfb5495960001b9050611bc1565b6006820361168d577f1ccb97c932565a92c60156bdba2d08f3bf1377464e025cee765679e604a7315c60001b9050611bc1565b600782036116c0577f19156fbd7d1a8bf5cba8909367de1b624534ebab4f0f79e003bccdd1b182bdb460001b9050611bc1565b600882036116f3577f261af8c1f0912e465744641409f622d466c3920ac6e5ff37e36604cb11dfff8060001b9050611bc1565b60098203611725577e58459724ff6ca5a1652fcbc3e82b93895cf08e975b19beab3f54c217d1c00760001b9050611bc1565b600a8203611758577f1f04ef20dee48d39984d8eabe768a70eafa6310ad20849d4573c3c40c2ad1e3060001b9050611bc1565b600b820361178b577f1bea3dec5dab51567ce7e200a30f7ba6d4276aeaa53e2686f962a46c66d511e560001b9050611bc1565b600c82036117be577f0ee0f941e2da4b9e31c3ca97a40d8fa9ce68d97c084177071b3cb46cd3372f0f60001b9050611bc1565b600d82036117f1577f1ca9503e8935884501bbaf20be14eb4c46b89772c97b96e3b2ebf3a36a948bbd60001b9050611bc1565b600e8203611824577f133a80e30697cd55d8f7d4b0965b7be24057ba5dc3da898ee2187232446cb10860001b9050611bc1565b600f8203611857577f13e6d8fc88839ed76e182c2a779af5b2c0da9dd18c90427a644f7e148a6253b660001b9050611bc1565b6010820361188a577f1eb16b057a477f4bc8f572ea6bee39561098f78f15bfb3699dcbb7bd8db6185460001b9050611bc1565b601182036118bd577f0da2cb16a1ceaabf1c16b838f7a9e3f2a3a3088d9e0a6debaa748114620696ea60001b9050611bc1565b601282036118f0577f24a3b3d822420b14b5d8cb6c28a574f01e98ea9e940551d2ebd75cee12649f9d60001b9050611bc1565b60138203611923577f198622acbd783d1b0d9064105b1fc8e4d8889de95c4c519b3f635809fe6afc0560001b9050611bc1565b60148203611956577f29d7ed391256ccc3ea596c86e933b89ff339d25ea8ddced975ae2fe30b5296d460001b9050611bc1565b60158203611989577f19be59f2f0413ce78c0c3703a3a5451b1d7f39629fa33abd11548a76065b296760001b9050611bc1565b601682036119bc577f1ff3f61797e538b70e619310d33f2a063e7eb59104e112e95738da1254dc345360001b9050611bc1565b601782036119ef577f10c16ae9959cf8358980d9dd9616e48228737310a10e2b6b731c1a548f036c4860001b9050611bc1565b60188203611a22577f0ba433a63174a90ac20992e75e3095496812b652685b5e1a2eae0b1bf4e8fcd160001b9050611bc1565b60198203611a55577f019ddb9df2bc98d987d0dfeca9d2b643deafab8f7036562e627c3667266a044c60001b9050611bc1565b601a8203611a88577f2d3c88b23175c5a5565db928414c66d1912b11acf974b2e644caaac04739ce9960001b9050611bc1565b601b8203611abb577f2eab55f6ae4e66e32c5189eed5c470840863445760f5ed7e7b69b2a62600f35460001b9050611bc1565b601c8203611aed577e2df37a2642621802383cf952bf4dd1f32e05433beeb1fd41031fb7eace979d60001b9050611bc1565b601d8203611b20577f104aeb41435db66c3e62feccc1d6f5d98d0a0ed75d1374db457cf462e3a1f42760001b9050611bc1565b601e8203611b53577f1f3c6fd858e9a7d4b0d1f38e256a09d81d5a5e3c963987e2d4b814cfab7c6ebb60001b9050611bc1565b601f8203611b86577f2c7a07d20dff79d01fecedc1134284a8d08436606c93693b67e333f671bf69cc60001b9050611bc1565b6040517f08c379a0000000000000000000000000000000000000000000000000000000008152600401611bb890613185565b60405180910390fd5b919050565b7f2fe54c60d3acabf3343a35b6eba15db4821b340f76e741e2249685ed4899af6c81565b7f000000000000000000000000000000000000000000000000000000000000000081565b60006020528060005260406000206000915090505481565b60004260066000600785604051611c3d919061306e565b90815260200160405180910390205481526020019081526020016000205410159050919050565b600360049054906101000a900463ffffffff1681565b600080600360049054906101000a900463ffffffff169050600360089054906101000a900463ffffffff166002611cb191906132d8565b63ffffffff168163ffffffff1603611cfe576040517f08c379a0000000000000000000000000000000000000000000000000000000008152600401611cf590613379565b60405180910390fd5b6000819050600084905060008060005b600360089054906101000a900463ffffffff1663ffffffff168163ffffffff161015611dd1576000600286611d439190613399565b63ffffffff1603611d8457839250611d608163ffffffff16611527565b9150836000808363ffffffff16815260200190815260200160002081905550611da3565b6000808263ffffffff1681526020019081526020016000205492508391505b611db38360001c8360001c610d41565b9350600285611dc291906133ca565b94508080600101915050611d0e565b506000601e6001600360009054906101000a900463ffffffff16611df591906133fb565b611dff9190613399565b905080600360006101000a81548163ffffffff021916908363ffffffff16021790555083600160008363ffffffff16815260200190815260200160002081905550600186611e4d91906133fb565b600360046101000a81548163ffffffff021916908363ffffffff160217905550859650505050505050919050565b6000604051905090565b600080fd5b600080fd5b6000819050919050565b611ea281611e8f565b8114611ead57600080fd5b50565b600081359050611ebf81611e99565b92915050565b600060208284031215611edb57611eda611e85565b5b6000611ee984828501611eb0565b91505092915050565b60008115159050919050565b611f0781611ef2565b82525050565b6000602082019050611f226000830184611efe565b92915050565b600073ffffffffffffffffffffffffffffffffffffffff82169050919050565b6000819050919050565b6000611f6d611f68611f6384611f28565b611f48565b611f28565b9050919050565b6000611f7f82611f52565b9050919050565b6000611f9182611f74565b9050919050565b611fa181611f86565b82525050565b6000602082019050611fbc6000830184611f98565b92915050565b6000819050919050565b611fd581611fc2565b8114611fe057600080fd5b50565b600081359050611ff281611fcc565b92915050565b6000806040838503121561200f5761200e611e85565b5b600061201d85828601611eb0565b925050602061202e85828601611fe3565b9150509250929050565b61204181611fc2565b82525050565b600060208201905061205c6000830184612038565b92915050565b600063ffffffff82169050919050565b61207b81612062565b82525050565b60006020820190506120966000830184612072565b92915050565b600080fd5b600080fd5b6000601f19601f8301169050919050565b7f4e487b7100000000000000000000000000000000000000000000000000000000600052604160045260246000fd5b6120ef826120a6565b810181811067ffffffffffffffff8211171561210e5761210d6120b7565b5b80604052505050565b6000612121611e7b565b905061212d82826120e6565b919050565b600067ffffffffffffffff82111561214d5761214c6120b7565b5b612156826120a6565b9050602081019050919050565b82818337600083830152505050565b600061218561218084612132565b612117565b9050828152602081018484840111156121a1576121a06120a1565b5b6121ac848285612163565b509392505050565b600082601f8301126121c9576121c861209c565b5b81356121d9848260208601612172565b91505092915050565b6000602082840312156121f8576121f7611e85565b5b600082013567ffffffffffffffff81111561221657612215611e8a565b5b612222848285016121b4565b91505092915050565b61223481611e8f565b82525050565b600060208201905061224f600083018461222b565b92915050565b600067ffffffffffffffff8211156122705761226f6120b7565b5b602082029050919050565b600080fd5b600061229361228e84612255565b612117565b905080602084028301858111156122ad576122ac61227b565b5b835b818110156122d657806122c28882611fe3565b8452602084019350506020810190506122af565b5050509392505050565b600082601f8301126122f5576122f461209c565b5b6002612302848285612280565b91505092915050565b600067ffffffffffffffff821115612326576123256120b7565b5b602082029050919050565b600061234461233f8461230b565b612117565b9050806040840283018581111561235e5761235d61227b565b5b835b81811015612387578061237388826122e0565b845260208401935050604081019050612360565b5050509392505050565b600082601f8301126123a6576123a561209c565b5b60026123b3848285612331565b91505092915050565b60008060008060008061016087890312156123da576123d9611e85565b5b60006123e889828a016122e0565b96505060406123f989828a01612391565b95505060c061240a89828a016122e0565b94505061010061241c89828a01611eb0565b93505061012061242e89828a01611eb0565b92505061014061244089828a01611fe3565b9150509295509295509295565b6000806040838503121561246457612463611e85565b5b600061247285828601611fe3565b925050602061248385828601611fe3565b9150509250929050565b600061249882611f74565b9050919050565b6124a88161248d565b82525050565b60006020820190506124c3600083018461249f565b92915050565b6000602082840312156124df576124de611e85565b5b60006124ed84828501611fe3565b91505092915050565b600080600080600080610160878903121561251457612513611e85565b5b600061252289828a016122e0565b965050604061253389828a01612391565b95505060c061254489828a016122e0565b94505061010061255689828a01611eb0565b93505061012061256889828a01611eb0565b92505061014087013567ffffffffffffffff81111561258a57612589611e8a565b5b61259689828a016121b4565b9150509295509295509295565b600081519050919050565b600082825260208201905092915050565b6000819050602082019050919050565b6125d881611e8f565b82525050565b60006125ea83836125cf565b60208301905092915050565b6000602082019050919050565b600061260e826125a3565b61261881856125ae565b9350612623836125bf565b8060005b8381101561265457815161263b88826125de565b9750612646836125f6565b925050600181019050612627565b5085935050505092915050565b6000602082019050818103600083015261267b8184612603565b905092915050565b600061268e82611f74565b9050919050565b61269e81612683565b82525050565b60006020820190506126b96000830184612695565b92915050565b600082825260208201905092915050565b7f54686520636f6d6d69746d656e7420686173206265656e207375626d6974746560008201527f6400000000000000000000000000000000000000000000000000000000000000602082015250565b600061272c6021836126bf565b9150612737826126d0565b604082019050919050565b6000602082019050818103600083015261275b8161271f565b9050919050565b600080fd5b60008151905061277681611fcc565b92915050565b60006060828403121561279257612791612762565b5b61279c6060612117565b905060006127ac84828501612767565b60008301525060206127c084828501612767565b60208301525060406127d484828501612767565b60408301525092915050565b6000606082840312156127f6576127f5611e85565b5b60006128048482850161277c565b91505092915050565b7f4e487b7100000000000000000000000000000000000000000000000000000000600052601160045260246000fd5b600061284782611fc2565b915061285283611fc2565b925082820190508082111561286a5761286961280d565b5b92915050565b60006040820190506128856000830185612072565b6128926020830184612038565b9392505050565b60006128a482611fc2565b91506128af83611fc2565b92508282026128bd81611fc2565b915082820484148315176128d4576128d361280d565b5b5092915050565b60006128e682611f28565b9050919050565b6128f6816128db565b82525050565b600060408201905061291160008301856128ed565b61291e6020830184612038565b9392505050565b7f43616e6e6f742066696e6420796f7572206d65726b6c6520726f6f7400000000600082015250565b600061295b601c836126bf565b915061296682612925565b602082019050919050565b6000602082019050818103600083015261298a8161294e565b9050919050565b600060029050919050565b600081905092915050565b6000819050919050565b6129ba81611fc2565b82525050565b60006129cc83836129b1565b60208301905092915050565b6000602082019050919050565b6129ee81612991565b6129f8818461299c565b9250612a03826129a7565b8060005b83811015612a34578151612a1b87826129c0565b9650612a26836129d8565b925050600181019050612a07565b505050505050565b600060029050919050565b600081905092915050565b6000819050919050565b600081905092915050565b612a7081612991565b612a7a8184612a5c565b9250612a85826129a7565b8060005b83811015612ab6578151612a9d87826129c0565b9650612aa8836129d8565b925050600181019050612a89565b505050505050565b6000612aca8383612a67565b60408301905092915050565b6000602082019050919050565b612aec81612a3c565b612af68184612a47565b9250612b0182612a52565b8060005b83811015612b32578151612b198782612abe565b9650612b2483612ad6565b925050600181019050612b05565b505050505050565b600061014082019050612b5060008301876129e5565b612b5d6040830186612ae3565b612b6a60c08301856129e5565b612b786101008301846129e5565b95945050505050565b612b8a81611ef2565b8114612b9557600080fd5b50565b600081519050612ba781612b81565b92915050565b600060208284031215612bc357612bc2611e85565b5b6000612bd184828501612b98565b91505092915050565b7f496e76616c69642070726f6f6600000000000000000000000000000000000000600082015250565b6000612c10600d836126bf565b9150612c1b82612bda565b602082019050919050565b60006020820190508181036000830152612c3f81612c03565b9050919050565b7f7061636b616765206861736e277420616374697661746564207965742e000000600082015250565b6000612c7c601d836126bf565b9150612c8782612c46565b602082019050919050565b60006020820190508181036000830152612cab81612c6f565b9050919050565b6000612cbd82611fc2565b9150612cc883611fc2565b9250828203905081811115612ce057612cdf61280d565b5b92915050565b7f54686520636f6f6c20646f776e20706572696f64206173207061737365640000600082015250565b6000612d1c601e836126bf565b9150612d2782612ce6565b602082019050919050565b60006020820190508181036000830152612d4b81612d0f565b9050919050565b7f5f6c6566742073686f756c6420626520696e7369646520746865206669656c64600082015250565b6000612d886020836126bf565b9150612d9382612d52565b602082019050919050565b60006020820190508181036000830152612db781612d7b565b9050919050565b7f5f72696768742073686f756c6420626520696e7369646520746865206669656c60008201527f6400000000000000000000000000000000000000000000000000000000000000602082015250565b6000612e1a6021836126bf565b9150612e2582612dbe565b604082019050919050565b60006020820190508181036000830152612e4981612e0d565b9050919050565b6000819050919050565b6000612e75612e70612e6b84612e50565b611f48565b611fc2565b9050919050565b612e8581612e5a565b82525050565b6000606082019050612ea06000830186612038565b612ead6020830185612038565b612eba6040830184612e7c565b949350505050565b60008060408385031215612ed957612ed8611e85565b5b6000612ee785828601612767565b9250506020612ef885828601612767565b9150509250929050565b7f4e487b7100000000000000000000000000000000000000000000000000000000600052601260045260246000fd5b6000612f3c82612062565b915060008203612f4f57612f4e61280d565b5b600182039050919050565b6000606082019050612f6f6000830186612038565b612f7c6020830185612e7c565b612f896040830184612e7c565b949350505050565b7f7061636b61676520616c72656164792061637469766174656400000000000000600082015250565b6000612fc76019836126bf565b9150612fd282612f91565b602082019050919050565b60006020820190508181036000830152612ff681612fba565b9050919050565b600081519050919050565b600081905092915050565b60005b83811015613031578082015181840152602081019050613016565b60008484015250505050565b600061304882612ffd565b6130528185613008565b9350613062818560208601613013565b80840191505092915050565b600061307a828461303d565b915081905092915050565b7f496e76616c6964206c6576656c00000000000000000000000000000000000000600082015250565b60006130bb600d836126bf565b91506130c682613085565b602082019050919050565b600060208201905081810360008301526130ea816130ae565b9050919050565b600060208201905061310660008301846128ed565b92915050565b60006020828403121561312257613121611e85565b5b600061313084828501612767565b91505092915050565b7f496e646578206f7574206f6620626f756e647300000000000000000000000000600082015250565b600061316f6013836126bf565b915061317a82613139565b602082019050919050565b6000602082019050818103600083015261319e81613162565b9050919050565b60008160011c9050919050565b6000808291508390505b60018511156131fc578086048111156131d8576131d761280d565b5b60018516156131e75780820291505b80810290506131f5856131a5565b94506131bc565b94509492505050565b60008261321557600190506132d1565b8161322357600090506132d1565b8160018114613239576002811461324357613272565b60019150506132d1565b60ff8411156132555761325461280d565b5b8360020a91508482111561326c5761326b61280d565b5b506132d1565b5060208310610133831016604e8410600b84101617156132a75782820a9050838111156132a2576132a161280d565b5b6132d1565b6132b484848460016131b2565b925090508184048111156132cb576132ca61280d565b5b81810290505b9392505050565b60006132e382612062565b91506132ee83612062565b92506132ff63ffffffff8484613205565b905092915050565b7f4d65726b6c6520747265652069732066756c6c2e204e6f206d6f7265206c656160008201527f7665732063616e20626520616464656400000000000000000000000000000000602082015250565b60006133636030836126bf565b915061336e82613307565b604082019050919050565b6000602082019050818103600083015261339281613356565b9050919050565b60006133a482612062565b91506133af83612062565b9250826133bf576133be612f02565b5b828206905092915050565b60006133d582612062565b91506133e083612062565b9250826133f0576133ef612f02565b5b828204905092915050565b600061340682612062565b915061341183612062565b9250828201905063ffffffff81111561342d5761342c61280d565b5b9291505056fea26469706673582212206519ad487e28102c3b66d963095899df97dbd1b15180ff8c4677ce162798718464736f6c63430008190033",
			"opcodes": "PUSH1 0x80 PUSH1 0x40 MSTORE PUSH1 0x40 MLOAD PUSH2 0x6D0E CODESIZE SUB DUP1 PUSH2 0x6D0E DUP4 CODECOPY DUP2 DUP2 ADD PUSH1 0x40 MSTORE DUP2 ADD SWAP1 PUSH2 0x25 SWAP2 SWAP1 PUSH2 0x76A JUMP JUMPDEST DUP6 PUSH20 0xFFFFFFFFFFFFFFFFFFFFFFFFFFFFFFFFFFFFFFFF AND PUSH4 0xC6F05771 PUSH1 0x2 CALLVALUE PUSH2 0x4E SWAP2 SWAP1 PUSH2 0x8BA JUMP JUMPDEST DUP5 CALLER PUSH1 0x40 MLOAD DUP5 PUSH4 0xFFFFFFFF AND PUSH1 0xE0 SHL DUP2 MSTORE PUSH1 0x4 ADD PUSH2 0x6D SWAP3 SWAP2 SWAP1 PUSH2 0x94F JUMP JUMPDEST PUSH1 0x0 PUSH1 0x40 MLOAD DUP1 DUP4 SUB DUP2 DUP6 DUP9 DUP1 EXTCODESIZE ISZERO DUP1 ISZERO PUSH2 0x86 JUMPI PUSH1 0x0 DUP1 REVERT JUMPDEST POP GAS CALL ISZERO DUP1 ISZERO PUSH2 0x9A JUMPI RETURNDATASIZE PUSH1 0x0 DUP1 RETURNDATACOPY RETURNDATASIZE PUSH1 0x0 REVERT JUMPDEST POP POP POP POP POP DUP7 PUSH20 0xFFFFFFFFFFFFFFFFFFFFFFFFFFFFFFFFFFFFFFFF AND PUSH4 0xD204C45E PUSH1 0x2 CALLVALUE PUSH2 0xC8 SWAP2 SWAP1 PUSH2 0x8BA JUMP JUMPDEST CALLER DUP5 PUSH1 0x40 MLOAD DUP5 PUSH4 0xFFFFFFFF AND PUSH1 0xE0 SHL DUP2 MSTORE PUSH1 0x4 ADD PUSH2 0xE7 SWAP3 SWAP2 SWAP1 PUSH2 0x97F JUMP JUMPDEST PUSH1 0x20 PUSH1 0x40 MLOAD DUP1 DUP4 SUB DUP2 DUP6 DUP9 GAS CALL ISZERO DUP1 ISZERO PUSH2 0x105 JUMPI RETURNDATASIZE PUSH1 0x0 DUP1 RETURNDATACOPY RETURNDATASIZE PUSH1 0x0 REVERT JUMPDEST POP POP POP POP POP PUSH1 0x40 MLOAD RETURNDATASIZE PUSH1 0x1F NOT PUSH1 0x1F DUP3 ADD AND DUP3 ADD DUP1 PUSH1 0x40 MSTORE POP DUP2 ADD SWAP1 PUSH2 0x12A SWAP2 SWAP1 PUSH2 0x9DB JUMP JUMPDEST PUSH1 0x7 DUP2 SWAP1 SSTORE POP DUP2 PUSH1 0x8 SWAP1 DUP2 PUSH2 0x13F SWAP2 SWAP1 PUSH2 0xC14 JUMP JUMPDEST POP DUP6 PUSH1 0x3 PUSH1 0x0 PUSH2 0x100 EXP DUP2 SLOAD DUP2 PUSH20 0xFFFFFFFFFFFFFFFFFFFFFFFFFFFFFFFFFFFFFFFF MUL NOT AND SWAP1 DUP4 PUSH20 0xFFFFFFFFFFFFFFFFFFFFFFFFFFFFFFFFFFFFFFFF AND MUL OR SWAP1 SSTORE POP DUP7 PUSH1 0x2 PUSH1 0x0 PUSH2 0x100 EXP DUP2 SLOAD DUP2 PUSH20 0xFFFFFFFFFFFFFFFFFFFFFFFFFFFFFFFFFFFFFFFF MUL NOT AND SWAP1 DUP4 PUSH20 0xFFFFFFFFFFFFFFFFFFFFFFFFFFFFFFFFFFFFFFFF AND MUL OR SWAP1 SSTORE POP DUP4 PUSH1 0x5 PUSH1 0x0 PUSH2 0x100 EXP DUP2 SLOAD DUP2 PUSH20 0xFFFFFFFFFFFFFFFFFFFFFFFFFFFFFFFFFFFFFFFF MUL NOT AND SWAP1 DUP4 PUSH20 0xFFFFFFFFFFFFFFFFFFFFFFFFFFFFFFFFFFFFFFFF AND MUL OR SWAP1 SSTORE POP DUP3 PUSH1 0x6 PUSH1 0x0 PUSH2 0x100 EXP DUP2 SLOAD DUP2 PUSH20 0xFFFFFFFFFFFFFFFFFFFFFFFFFFFFFFFFFFFFFFFF MUL NOT AND SWAP1 DUP4 PUSH20 0xFFFFFFFFFFFFFFFFFFFFFFFFFFFFFFFFFFFFFFFF AND MUL OR SWAP1 SSTORE POP DUP7 PUSH1 0x40 MLOAD PUSH2 0x251 SWAP1 PUSH2 0x3BB JUMP JUMPDEST PUSH2 0x25B SWAP2 SWAP1 PUSH2 0xD3B JUMP JUMPDEST PUSH1 0x40 MLOAD DUP1 SWAP2 SUB SWAP1 PUSH1 0x0 CREATE DUP1 ISZERO DUP1 ISZERO PUSH2 0x277 JUMPI RETURNDATASIZE PUSH1 0x0 DUP1 RETURNDATACOPY RETURNDATASIZE PUSH1 0x0 REVERT JUMPDEST POP PUSH1 0x0 DUP1 PUSH2 0x100 EXP DUP2 SLOAD DUP2 PUSH20 0xFFFFFFFFFFFFFFFFFFFFFFFFFFFFFFFFFFFFFFFF MUL NOT AND SWAP1 DUP4 PUSH20 0xFFFFFFFFFFFFFFFFFFFFFFFFFFFFFFFFFFFFFFFF AND MUL OR SWAP1 SSTORE POP DUP10 DUP10 DUP10 DUP8 PUSH1 0x0 DUP1 SLOAD SWAP1 PUSH2 0x100 EXP SWAP1 DIV PUSH20 0xFFFFFFFFFFFFFFFFFFFFFFFFFFFFFFFFFFFFFFFF AND PUSH1 0x40 MLOAD PUSH2 0x2E8 SWAP1 PUSH2 0x3C8 JUMP JUMPDEST PUSH2 0x2F6 SWAP6 SWAP5 SWAP4 SWAP3 SWAP2 SWAP1 PUSH2 0xDE9 JUMP JUMPDEST PUSH1 0x40 MLOAD DUP1 SWAP2 SUB SWAP1 PUSH1 0x0 CREATE DUP1 ISZERO DUP1 ISZERO PUSH2 0x312 JUMPI RETURNDATASIZE PUSH1 0x0 DUP1 RETURNDATACOPY RETURNDATASIZE PUSH1 0x0 REVERT JUMPDEST POP PUSH1 0x1 PUSH1 0x0 PUSH2 0x100 EXP DUP2 SLOAD DUP2 PUSH20 0xFFFFFFFFFFFFFFFFFFFFFFFFFFFFFFFFFFFFFFFF MUL NOT AND SWAP1 DUP4 PUSH20 0xFFFFFFFFFFFFFFFFFFFFFFFFFFFFFFFFFFFFFFFF AND MUL OR SWAP1 SSTORE POP PUSH32 0x9F65C0D0CC1655C261B06F98571B0702238A4DD3DFB594E0ACA5B88F1C9D9DDF PUSH1 0x1 PUSH1 0x0 SWAP1 SLOAD SWAP1 PUSH2 0x100 EXP SWAP1 DIV PUSH20 0xFFFFFFFFFFFFFFFFFFFFFFFFFFFFFFFFFFFFFFFF AND PUSH1 0x40 MLOAD PUSH2 0x3A4 SWAP2 SWAP1 PUSH2 0xE3C JUMP JUMPDEST PUSH1 0x40 MLOAD DUP1 SWAP2 SUB SWAP1 LOG1 POP POP POP POP POP POP POP POP POP POP PUSH2 0xE57 JUMP JUMPDEST PUSH2 0x9AB DUP1 PUSH2 0x21D6 DUP4 CODECOPY ADD SWAP1 JUMP JUMPDEST PUSH2 0x418D DUP1 PUSH2 0x2B81 DUP4 CODECOPY ADD SWAP1 JUMP JUMPDEST PUSH1 0x0 PUSH1 0x40 MLOAD SWAP1 POP SWAP1 JUMP JUMPDEST PUSH1 0x0 DUP1 REVERT JUMPDEST PUSH1 0x0 DUP1 REVERT JUMPDEST PUSH1 0x0 PUSH4 0xFFFFFFFF DUP3 AND SWAP1 POP SWAP2 SWAP1 POP JUMP JUMPDEST PUSH2 0x402 DUP2 PUSH2 0x3E9 JUMP JUMPDEST DUP2 EQ PUSH2 0x40D JUMPI PUSH1 0x0 DUP1 REVERT JUMPDEST POP JUMP JUMPDEST PUSH1 0x0 DUP2 MLOAD SWAP1 POP PUSH2 0x41F DUP2 PUSH2 0x3F9 JUMP JUMPDEST SWAP3 SWAP2 POP POP JUMP JUMPDEST PUSH1 0x0 PUSH20 0xFFFFFFFFFFFFFFFFFFFFFFFFFFFFFFFFFFFFFFFF DUP3 AND SWAP1 POP SWAP2 SWAP1 POP JUMP JUMPDEST PUSH1 0x0 PUSH2 0x450 DUP3 PUSH2 0x425 JUMP JUMPDEST SWAP1 POP SWAP2 SWAP1 POP JUMP JUMPDEST PUSH1 0x0 PUSH2 0x462 DUP3 PUSH2 0x445 JUMP JUMPDEST SWAP1 POP SWAP2 SWAP1 POP JUMP JUMPDEST PUSH2 0x472 DUP2 PUSH2 0x457 JUMP JUMPDEST DUP2 EQ PUSH2 0x47D JUMPI PUSH1 0x0 DUP1 REVERT JUMPDEST POP JUMP JUMPDEST PUSH1 0x0 DUP2 MLOAD SWAP1 POP PUSH2 0x48F DUP2 PUSH2 0x469 JUMP JUMPDEST SWAP3 SWAP2 POP POP JUMP JUMPDEST PUSH1 0x0 PUSH2 0x4A0 DUP3 PUSH2 0x445 JUMP JUMPDEST SWAP1 POP SWAP2 SWAP1 POP JUMP JUMPDEST PUSH2 0x4B0 DUP2 PUSH2 0x495 JUMP JUMPDEST DUP2 EQ PUSH2 0x4BB JUMPI PUSH1 0x0 DUP1 REVERT JUMPDEST POP JUMP JUMPDEST PUSH1 0x0 DUP2 MLOAD SWAP1 POP PUSH2 0x4CD DUP2 PUSH2 0x4A7 JUMP JUMPDEST SWAP3 SWAP2 POP POP JUMP JUMPDEST PUSH1 0x0 PUSH2 0x4DE DUP3 PUSH2 0x445 JUMP JUMPDEST SWAP1 POP SWAP2 SWAP1 POP JUMP JUMPDEST PUSH2 0x4EE DUP2 PUSH2 0x4D3 JUMP JUMPDEST DUP2 EQ PUSH2 0x4F9 JUMPI PUSH1 0x0 DUP1 REVERT JUMPDEST POP JUMP JUMPDEST PUSH1 0x0 DUP2 MLOAD SWAP1 POP PUSH2 0x50B DUP2 PUSH2 0x4E5 JUMP JUMPDEST SWAP3 SWAP2 POP POP JUMP JUMPDEST PUSH1 0x0 PUSH2 0x51C DUP3 PUSH2 0x445 JUMP JUMPDEST SWAP1 POP SWAP2 SWAP1 POP JUMP JUMPDEST PUSH2 0x52C DUP2 PUSH2 0x511 JUMP JUMPDEST DUP2 EQ PUSH2 0x537 JUMPI PUSH1 0x0 DUP1 REVERT JUMPDEST POP JUMP JUMPDEST PUSH1 0x0 DUP2 MLOAD SWAP1 POP PUSH2 0x549 DUP2 PUSH2 0x523 JUMP JUMPDEST SWAP3 SWAP2 POP POP JUMP JUMPDEST PUSH1 0x0 PUSH2 0x55A DUP3 PUSH2 0x445 JUMP JUMPDEST SWAP1 POP SWAP2 SWAP1 POP JUMP JUMPDEST PUSH2 0x56A DUP2 PUSH2 0x54F JUMP JUMPDEST DUP2 EQ PUSH2 0x575 JUMPI PUSH1 0x0 DUP1 REVERT JUMPDEST POP JUMP JUMPDEST PUSH1 0x0 DUP2 MLOAD SWAP1 POP PUSH2 0x587 DUP2 PUSH2 0x561 JUMP JUMPDEST SWAP3 SWAP2 POP POP JUMP JUMPDEST PUSH1 0x0 PUSH2 0x598 DUP3 PUSH2 0x445 JUMP JUMPDEST SWAP1 POP SWAP2 SWAP1 POP JUMP JUMPDEST PUSH2 0x5A8 DUP2 PUSH2 0x58D JUMP JUMPDEST DUP2 EQ PUSH2 0x5B3 JUMPI PUSH1 0x0 DUP1 REVERT JUMPDEST POP JUMP JUMPDEST PUSH1 0x0 DUP2 MLOAD SWAP1 POP PUSH2 0x5C5 DUP2 PUSH2 0x59F JUMP JUMPDEST SWAP3 SWAP2 POP POP JUMP JUMPDEST PUSH1 0x0 PUSH2 0x5D6 DUP3 PUSH2 0x445 JUMP JUMPDEST SWAP1 POP SWAP2 SWAP1 POP JUMP JUMPDEST PUSH2 0x5E6 DUP2 PUSH2 0x5CB JUMP JUMPDEST DUP2 EQ PUSH2 0x5F1 JUMPI PUSH1 0x0 DUP1 REVERT JUMPDEST POP JUMP JUMPDEST PUSH1 0x0 DUP2 MLOAD SWAP1 POP PUSH2 0x603 DUP2 PUSH2 0x5DD JUMP JUMPDEST SWAP3 SWAP2 POP POP JUMP JUMPDEST PUSH1 0x0 DUP1 REVERT JUMPDEST PUSH1 0x0 DUP1 REVERT JUMPDEST PUSH1 0x0 PUSH1 0x1F NOT PUSH1 0x1F DUP4 ADD AND SWAP1 POP SWAP2 SWAP1 POP JUMP JUMPDEST PUSH32 0x4E487B7100000000000000000000000000000000000000000000000000000000 PUSH1 0x0 MSTORE PUSH1 0x41 PUSH1 0x4 MSTORE PUSH1 0x24 PUSH1 0x0 REVERT JUMPDEST PUSH2 0x65C DUP3 PUSH2 0x613 JUMP JUMPDEST DUP2 ADD DUP2 DUP2 LT PUSH8 0xFFFFFFFFFFFFFFFF DUP3 GT OR ISZERO PUSH2 0x67B JUMPI PUSH2 0x67A PUSH2 0x624 JUMP JUMPDEST JUMPDEST DUP1 PUSH1 0x40 MSTORE POP POP POP JUMP JUMPDEST PUSH1 0x0 PUSH2 0x68E PUSH2 0x3D5 JUMP JUMPDEST SWAP1 POP PUSH2 0x69A DUP3 DUP3 PUSH2 0x653 JUMP JUMPDEST SWAP2 SWAP1 POP JUMP JUMPDEST PUSH1 0x0 PUSH8 0xFFFFFFFFFFFFFFFF DUP3 GT ISZERO PUSH2 0x6BA JUMPI PUSH2 0x6B9 PUSH2 0x624 JUMP JUMPDEST JUMPDEST PUSH2 0x6C3 DUP3 PUSH2 0x613 JUMP JUMPDEST SWAP1 POP PUSH1 0x20 DUP2 ADD SWAP1 POP SWAP2 SWAP1 POP JUMP JUMPDEST PUSH1 0x0 JUMPDEST DUP4 DUP2 LT ISZERO PUSH2 0x6EE JUMPI DUP1 DUP3 ADD MLOAD DUP2 DUP5 ADD MSTORE PUSH1 0x20 DUP2 ADD SWAP1 POP PUSH2 0x6D3 JUMP JUMPDEST PUSH1 0x0 DUP5 DUP5 ADD MSTORE POP POP POP POP JUMP JUMPDEST PUSH1 0x0 PUSH2 0x70D PUSH2 0x708 DUP5 PUSH2 0x69F JUMP JUMPDEST PUSH2 0x684 JUMP JUMPDEST SWAP1 POP DUP3 DUP2 MSTORE PUSH1 0x20 DUP2 ADD DUP5 DUP5 DUP5 ADD GT ISZERO PUSH2 0x729 JUMPI PUSH2 0x728 PUSH2 0x60E JUMP JUMPDEST JUMPDEST PUSH2 0x734 DUP5 DUP3 DUP6 PUSH2 0x6D0 JUMP JUMPDEST POP SWAP4 SWAP3 POP POP POP JUMP JUMPDEST PUSH1 0x0 DUP3 PUSH1 0x1F DUP4 ADD SLT PUSH2 0x751 JUMPI PUSH2 0x750 PUSH2 0x609 JUMP JUMPDEST JUMPDEST DUP2 MLOAD PUSH2 0x761 DUP5 DUP3 PUSH1 0x20 DUP7 ADD PUSH2 0x6FA JUMP JUMPDEST SWAP2 POP POP SWAP3 SWAP2 POP POP JUMP JUMPDEST PUSH1 0x0 DUP1 PUSH1 0x0 DUP1 PUSH1 0x0 DUP1 PUSH1 0x0 DUP1 PUSH1 0x0 DUP1 PUSH2 0x140 DUP12 DUP14 SUB SLT ISZERO PUSH2 0x78E JUMPI PUSH2 0x78D PUSH2 0x3DF JUMP JUMPDEST JUMPDEST PUSH1 0x0 PUSH2 0x79C DUP14 DUP3 DUP15 ADD PUSH2 0x410 JUMP JUMPDEST SWAP11 POP POP PUSH1 0x20 PUSH2 0x7AD DUP14 DUP3 DUP15 ADD PUSH2 0x480 JUMP JUMPDEST SWAP10 POP POP PUSH1 0x40 PUSH2 0x7BE DUP14 DUP3 DUP15 ADD PUSH2 0x4BE JUMP JUMPDEST SWAP9 POP POP PUSH1 0x60 PUSH2 0x7CF DUP14 DUP3 DUP15 ADD PUSH2 0x4FC JUMP JUMPDEST SWAP8 POP POP PUSH1 0x80 PUSH2 0x7E0 DUP14 DUP3 DUP15 ADD PUSH2 0x53A JUMP JUMPDEST SWAP7 POP POP PUSH1 0xA0 PUSH2 0x7F1 DUP14 DUP3 DUP15 ADD PUSH2 0x578 JUMP JUMPDEST SWAP6 POP POP PUSH1 0xC0 PUSH2 0x802 DUP14 DUP3 DUP15 ADD PUSH2 0x5B6 JUMP JUMPDEST SWAP5 POP POP PUSH1 0xE0 PUSH2 0x813 DUP14 DUP3 DUP15 ADD PUSH2 0x5F4 JUMP JUMPDEST SWAP4 POP POP PUSH2 0x100 DUP12 ADD MLOAD PUSH8 0xFFFFFFFFFFFFFFFF DUP2 GT ISZERO PUSH2 0x835 JUMPI PUSH2 0x834 PUSH2 0x3E4 JUMP JUMPDEST JUMPDEST PUSH2 0x841 DUP14 DUP3 DUP15 ADD PUSH2 0x73C JUMP JUMPDEST SWAP3 POP POP PUSH2 0x120 DUP12 ADD MLOAD PUSH8 0xFFFFFFFFFFFFFFFF DUP2 GT ISZERO PUSH2 0x863 JUMPI PUSH2 0x862 PUSH2 0x3E4 JUMP JUMPDEST JUMPDEST PUSH2 0x86F DUP14 DUP3 DUP15 ADD PUSH2 0x73C JUMP JUMPDEST SWAP2 POP POP SWAP3 SWAP6 SWAP9 SWAP12 SWAP2 SWAP5 SWAP8 SWAP11 POP SWAP3 SWAP6 SWAP9 POP JUMP JUMPDEST PUSH1 0x0 DUP2 SWAP1 POP SWAP2 SWAP1 POP JUMP JUMPDEST PUSH32 0x4E487B7100000000000000000000000000000000000000000000000000000000 PUSH1 0x0 MSTORE PUSH1 0x12 PUSH1 0x4 MSTORE PUSH1 0x24 PUSH1 0x0 REVERT JUMPDEST PUSH1 0x0 PUSH2 0x8C5 DUP3 PUSH2 0x881 JUMP JUMPDEST SWAP2 POP PUSH2 0x8D0 DUP4 PUSH2 0x881 JUMP JUMPDEST SWAP3 POP DUP3 PUSH2 0x8E0 JUMPI PUSH2 0x8DF PUSH2 0x88B JUMP JUMPDEST JUMPDEST DUP3 DUP3 DIV SWAP1 POP SWAP3 SWAP2 POP POP JUMP JUMPDEST PUSH1 0x0 DUP2 MLOAD SWAP1 POP SWAP2 SWAP1 POP JUMP JUMPDEST PUSH1 0x0 DUP3 DUP3 MSTORE PUSH1 0x20 DUP3 ADD SWAP1 POP SWAP3 SWAP2 POP POP JUMP JUMPDEST PUSH1 0x0 PUSH2 0x912 DUP3 PUSH2 0x8EB JUMP JUMPDEST PUSH2 0x91C DUP2 DUP6 PUSH2 0x8F6 JUMP JUMPDEST SWAP4 POP PUSH2 0x92C DUP2 DUP6 PUSH1 0x20 DUP7 ADD PUSH2 0x6D0 JUMP JUMPDEST PUSH2 0x935 DUP2 PUSH2 0x613 JUMP JUMPDEST DUP5 ADD SWAP2 POP POP SWAP3 SWAP2 POP POP JUMP JUMPDEST PUSH2 0x949 DUP2 PUSH2 0x445 JUMP JUMPDEST DUP3 MSTORE POP POP JUMP JUMPDEST PUSH1 0x0 PUSH1 0x40 DUP3 ADD SWAP1 POP DUP2 DUP2 SUB PUSH1 0x0 DUP4 ADD MSTORE PUSH2 0x969 DUP2 DUP6 PUSH2 0x907 JUMP JUMPDEST SWAP1 POP PUSH2 0x978 PUSH1 0x20 DUP4 ADD DUP5 PUSH2 0x940 JUMP JUMPDEST SWAP4 SWAP3 POP POP POP JUMP JUMPDEST PUSH1 0x0 PUSH1 0x40 DUP3 ADD SWAP1 POP PUSH2 0x994 PUSH1 0x0 DUP4 ADD DUP6 PUSH2 0x940 JUMP JUMPDEST DUP2 DUP2 SUB PUSH1 0x20 DUP4 ADD MSTORE PUSH2 0x9A6 DUP2 DUP5 PUSH2 0x907 JUMP JUMPDEST SWAP1 POP SWAP4 SWAP3 POP POP POP JUMP JUMPDEST PUSH2 0x9B8 DUP2 PUSH2 0x881 JUMP JUMPDEST DUP2 EQ PUSH2 0x9C3 JUMPI PUSH1 0x0 DUP1 REVERT JUMPDEST POP JUMP JUMPDEST PUSH1 0x0 DUP2 MLOAD SWAP1 POP PUSH2 0x9D5 DUP2 PUSH2 0x9AF JUMP JUMPDEST SWAP3 SWAP2 POP POP JUMP JUMPDEST PUSH1 0x0 PUSH1 0x20 DUP3 DUP5 SUB SLT ISZERO PUSH2 0x9F1 JUMPI PUSH2 0x9F0 PUSH2 0x3DF JUMP JUMPDEST JUMPDEST PUSH1 0x0 PUSH2 0x9FF DUP5 DUP3 DUP6 ADD PUSH2 0x9C6 JUMP JUMPDEST SWAP2 POP POP SWAP3 SWAP2 POP POP JUMP JUMPDEST PUSH32 0x4E487B7100000000000000000000000000000000000000000000000000000000 PUSH1 0x0 MSTORE PUSH1 0x22 PUSH1 0x4 MSTORE PUSH1 0x24 PUSH1 0x0 REVERT JUMPDEST PUSH1 0x0 PUSH1 0x2 DUP3 DIV SWAP1 POP PUSH1 0x1 DUP3 AND DUP1 PUSH2 0xA4F JUMPI PUSH1 0x7F DUP3 AND SWAP2 POP JUMPDEST PUSH1 0x20 DUP3 LT DUP2 SUB PUSH2 0xA62 JUMPI PUSH2 0xA61 PUSH2 0xA08 JUMP JUMPDEST JUMPDEST POP SWAP2 SWAP1 POP JUMP JUMPDEST PUSH1 0x0 DUP2 SWAP1 POP DUP2 PUSH1 0x0 MSTORE PUSH1 0x20 PUSH1 0x0 KECCAK256 SWAP1 POP SWAP2 SWAP1 POP JUMP JUMPDEST PUSH1 0x0 PUSH1 0x20 PUSH1 0x1F DUP4 ADD DIV SWAP1 POP SWAP2 SWAP1 POP JUMP JUMPDEST PUSH1 0x0 DUP3 DUP3 SHL SWAP1 POP SWAP3 SWAP2 POP POP JUMP JUMPDEST PUSH1 0x0 PUSH1 0x8 DUP4 MUL PUSH2 0xACA PUSH32 0xFFFFFFFFFFFFFFFFFFFFFFFFFFFFFFFFFFFFFFFFFFFFFFFFFFFFFFFFFFFFFFFF DUP3 PUSH2 0xA8D JUMP JUMPDEST PUSH2 0xAD4 DUP7 DUP4 PUSH2 0xA8D JUMP JUMPDEST SWAP6 POP DUP1 NOT DUP5 AND SWAP4 POP DUP1 DUP7 AND DUP5 OR SWAP3 POP POP POP SWAP4 SWAP3 POP POP POP JUMP JUMPDEST PUSH1 0x0 DUP2 SWAP1 POP SWAP2 SWAP1 POP JUMP JUMPDEST PUSH1 0x0 PUSH2 0xB11 PUSH2 0xB0C PUSH2 0xB07 DUP5 PUSH2 0x881 JUMP JUMPDEST PUSH2 0xAEC JUMP JUMPDEST PUSH2 0x881 JUMP JUMPDEST SWAP1 POP SWAP2 SWAP1 POP JUMP JUMPDEST PUSH1 0x0 DUP2 SWAP1 POP SWAP2 SWAP1 POP JUMP JUMPDEST PUSH2 0xB2B DUP4 PUSH2 0xAF6 JUMP JUMPDEST PUSH2 0xB3F PUSH2 0xB37 DUP3 PUSH2 0xB18 JUMP JUMPDEST DUP5 DUP5 SLOAD PUSH2 0xA9A JUMP JUMPDEST DUP3 SSTORE POP POP POP POP JUMP JUMPDEST PUSH1 0x0 SWAP1 JUMP JUMPDEST PUSH2 0xB54 PUSH2 0xB47 JUMP JUMPDEST PUSH2 0xB5F DUP2 DUP5 DUP5 PUSH2 0xB22 JUMP JUMPDEST POP POP POP JUMP JUMPDEST JUMPDEST DUP2 DUP2 LT ISZERO PUSH2 0xB83 JUMPI PUSH2 0xB78 PUSH1 0x0 DUP3 PUSH2 0xB4C JUMP JUMPDEST PUSH1 0x1 DUP2 ADD SWAP1 POP PUSH2 0xB65 JUMP JUMPDEST POP POP JUMP JUMPDEST PUSH1 0x1F DUP3 GT ISZERO PUSH2 0xBC8 JUMPI PUSH2 0xB99 DUP2 PUSH2 0xA68 JUMP JUMPDEST PUSH2 0xBA2 DUP5 PUSH2 0xA7D JUMP JUMPDEST DUP2 ADD PUSH1 0x20 DUP6 LT ISZERO PUSH2 0xBB1 JUMPI DUP2 SWAP1 POP JUMPDEST PUSH2 0xBC5 PUSH2 0xBBD DUP6 PUSH2 0xA7D JUMP JUMPDEST DUP4 ADD DUP3 PUSH2 0xB64 JUMP JUMPDEST POP POP JUMPDEST POP POP POP JUMP JUMPDEST PUSH1 0x0 DUP3 DUP3 SHR SWAP1 POP SWAP3 SWAP2 POP POP JUMP JUMPDEST PUSH1 0x0 PUSH2 0xBEB PUSH1 0x0 NOT DUP5 PUSH1 0x8 MUL PUSH2 0xBCD JUMP JUMPDEST NOT DUP1 DUP4 AND SWAP2 POP POP SWAP3 SWAP2 POP POP JUMP JUMPDEST PUSH1 0x0 PUSH2 0xC04 DUP4 DUP4 PUSH2 0xBDA JUMP JUMPDEST SWAP2 POP DUP3 PUSH1 0x2 MUL DUP3 OR SWAP1 POP SWAP3 SWAP2 POP POP JUMP JUMPDEST PUSH2 0xC1D DUP3 PUSH2 0x8EB JUMP JUMPDEST PUSH8 0xFFFFFFFFFFFFFFFF DUP2 GT ISZERO PUSH2 0xC36 JUMPI PUSH2 0xC35 PUSH2 0x624 JUMP JUMPDEST JUMPDEST PUSH2 0xC40 DUP3 SLOAD PUSH2 0xA37 JUMP JUMPDEST PUSH2 0xC4B DUP3 DUP3 DUP6 PUSH2 0xB87 JUMP JUMPDEST PUSH1 0x0 PUSH1 0x20 SWAP1 POP PUSH1 0x1F DUP4 GT PUSH1 0x1 DUP2 EQ PUSH2 0xC7E JUMPI PUSH1 0x0 DUP5 ISZERO PUSH2 0xC6C JUMPI DUP3 DUP8 ADD MLOAD SWAP1 POP JUMPDEST PUSH2 0xC76 DUP6 DUP3 PUSH2 0xBF8 JUMP JUMPDEST DUP7 SSTORE POP PUSH2 0xCDE JUMP JUMPDEST PUSH1 0x1F NOT DUP5 AND PUSH2 0xC8C DUP7 PUSH2 0xA68 JUMP JUMPDEST PUSH1 0x0 JUMPDEST DUP3 DUP2 LT ISZERO PUSH2 0xCB4 JUMPI DUP5 DUP10 ADD MLOAD DUP3 SSTORE PUSH1 0x1 DUP3 ADD SWAP2 POP PUSH1 0x20 DUP6 ADD SWAP5 POP PUSH1 0x20 DUP2 ADD SWAP1 POP PUSH2 0xC8F JUMP JUMPDEST DUP7 DUP4 LT ISZERO PUSH2 0xCD1 JUMPI DUP5 DUP10 ADD MLOAD PUSH2 0xCCD PUSH1 0x1F DUP10 AND DUP3 PUSH2 0xBDA JUMP JUMPDEST DUP4 SSTORE POP JUMPDEST PUSH1 0x1 PUSH1 0x2 DUP9 MUL ADD DUP9 SSTORE POP POP POP JUMPDEST POP POP POP POP POP POP JUMP JUMPDEST PUSH1 0x0 PUSH2 0xD01 PUSH2 0xCFC PUSH2 0xCF7 DUP5 PUSH2 0x425 JUMP JUMPDEST PUSH2 0xAEC JUMP JUMPDEST PUSH2 0x425 JUMP JUMPDEST SWAP1 POP SWAP2 SWAP1 POP JUMP JUMPDEST PUSH1 0x0 PUSH2 0xD13 DUP3 PUSH2 0xCE6 JUMP JUMPDEST SWAP1 POP SWAP2 SWAP1 POP JUMP JUMPDEST PUSH1 0x0 PUSH2 0xD25 DUP3 PUSH2 0xD08 JUMP JUMPDEST SWAP1 POP SWAP2 SWAP1 POP JUMP JUMPDEST PUSH2 0xD35 DUP2 PUSH2 0xD1A JUMP JUMPDEST DUP3 MSTORE POP POP JUMP JUMPDEST PUSH1 0x0 PUSH1 0x20 DUP3 ADD SWAP1 POP PUSH2 0xD50 PUSH1 0x0 DUP4 ADD DUP5 PUSH2 0xD2C JUMP JUMPDEST SWAP3 SWAP2 POP POP JUMP JUMPDEST PUSH2 0xD5F DUP2 PUSH2 0x3E9 JUMP JUMPDEST DUP3 MSTORE POP POP JUMP JUMPDEST PUSH1 0x0 PUSH2 0xD70 DUP3 PUSH2 0xD08 JUMP JUMPDEST SWAP1 POP SWAP2 SWAP1 POP JUMP JUMPDEST PUSH2 0xD80 DUP2 PUSH2 0xD65 JUMP JUMPDEST DUP3 MSTORE POP POP JUMP JUMPDEST PUSH1 0x0 PUSH2 0xD91 DUP3 PUSH2 0xD08 JUMP JUMPDEST SWAP1 POP SWAP2 SWAP1 POP JUMP JUMPDEST PUSH2 0xDA1 DUP2 PUSH2 0xD86 JUMP JUMPDEST DUP3 MSTORE POP POP JUMP JUMPDEST PUSH1 0x0 PUSH2 0xDB2 DUP3 PUSH2 0xD08 JUMP JUMPDEST SWAP1 POP SWAP2 SWAP1 POP JUMP JUMPDEST PUSH2 0xDC2 DUP2 PUSH2 0xDA7 JUMP JUMPDEST DUP3 MSTORE POP POP JUMP JUMPDEST PUSH1 0x0 PUSH2 0xDD3 DUP3 PUSH2 0xD08 JUMP JUMPDEST SWAP1 POP SWAP2 SWAP1 POP JUMP JUMPDEST PUSH2 0xDE3 DUP2 PUSH2 0xDC8 JUMP JUMPDEST DUP3 MSTORE POP POP JUMP JUMPDEST PUSH1 0x0 PUSH1 0xA0 DUP3 ADD SWAP1 POP PUSH2 0xDFE PUSH1 0x0 DUP4 ADD DUP9 PUSH2 0xD56 JUMP JUMPDEST PUSH2 0xE0B PUSH1 0x20 DUP4 ADD DUP8 PUSH2 0xD77 JUMP JUMPDEST PUSH2 0xE18 PUSH1 0x40 DUP4 ADD DUP7 PUSH2 0xD98 JUMP JUMPDEST PUSH2 0xE25 PUSH1 0x60 DUP4 ADD DUP6 PUSH2 0xDB9 JUMP JUMPDEST PUSH2 0xE32 PUSH1 0x80 DUP4 ADD DUP5 PUSH2 0xDDA JUMP JUMPDEST SWAP7 SWAP6 POP POP POP POP POP POP JUMP JUMPDEST PUSH1 0x0 PUSH1 0x20 DUP3 ADD SWAP1 POP PUSH2 0xE51 PUSH1 0x0 DUP4 ADD DUP5 PUSH2 0x940 JUMP JUMPDEST SWAP3 SWAP2 POP POP JUMP JUMPDEST PUSH2 0x1370 DUP1 PUSH2 0xE66 PUSH1 0x0 CODECOPY PUSH1 0x0 RETURN INVALID PUSH1 0x80 PUSH1 0x40 MSTORE PUSH1 0x4 CALLDATASIZE LT PUSH2 0xA7 JUMPI PUSH1 0x0 CALLDATALOAD PUSH1 0xE0 SHR DUP1 PUSH4 0x65058F4C GT PUSH2 0x64 JUMPI DUP1 PUSH4 0x65058F4C EQ PUSH2 0x1BC JUMPI DUP1 PUSH4 0x804EE2B5 EQ PUSH2 0x1D3 JUMPI DUP1 PUSH4 0x9D990317 EQ PUSH2 0x1EF JUMPI DUP1 PUSH4 0xA71B6CD0 EQ PUSH2 0x21A JUMPI DUP1 PUSH4 0xF49F23D6 EQ PUSH2 0x243 JUMPI DUP1 PUSH4 0xF6B6DD85 EQ PUSH2 0x26C JUMPI PUSH2 0xA7 JUMP JUMPDEST DUP1 PUSH4 0x1302424B EQ PUSH2 0xAC JUMPI DUP1 PUSH4 0x2739811A EQ PUSH2 0xE9 JUMPI DUP1 PUSH4 0x36D011B4 EQ PUSH2 0x112 JUMPI DUP1 PUSH4 0x3E77FD8F EQ PUSH2 0x13D JUMPI DUP1 PUSH4 0x5149246A EQ PUSH2 0x168 JUMPI DUP1 PUSH4 0x60B1B4B5 EQ PUSH2 0x191 JUMPI JUMPDEST PUSH1 0x0 DUP1 REVERT JUMPDEST CALLVALUE DUP1 ISZERO PUSH2 0xB8 JUMPI PUSH1 0x0 DUP1 REVERT JUMPDEST POP PUSH2 0xD3 PUSH1 0x4 DUP1 CALLDATASIZE SUB DUP2 ADD SWAP1 PUSH2 0xCE SWAP2 SWAP1 PUSH2 0x890 JUMP JUMPDEST PUSH2 0x2A9 JUMP JUMPDEST PUSH1 0x40 MLOAD PUSH2 0xE0 SWAP2 SWAP1 PUSH2 0x94D JUMP JUMPDEST PUSH1 0x40 MLOAD DUP1 SWAP2 SUB SWAP1 RETURN JUMPDEST CALLVALUE DUP1 ISZERO PUSH2 0xF5 JUMPI PUSH1 0x0 DUP1 REVERT JUMPDEST POP PUSH2 0x110 PUSH1 0x4 DUP1 CALLDATASIZE SUB DUP2 ADD SWAP1 PUSH2 0x10B SWAP2 SWAP1 PUSH2 0xB56 JUMP JUMPDEST PUSH2 0x351 JUMP JUMPDEST STOP JUMPDEST CALLVALUE DUP1 ISZERO PUSH2 0x11E JUMPI PUSH1 0x0 DUP1 REVERT JUMPDEST POP PUSH2 0x127 PUSH2 0x3F6 JUMP JUMPDEST PUSH1 0x40 MLOAD PUSH2 0x134 SWAP2 SWAP1 PUSH2 0x94D JUMP JUMPDEST PUSH1 0x40 MLOAD DUP1 SWAP2 SUB SWAP1 RETURN JUMPDEST CALLVALUE DUP1 ISZERO PUSH2 0x149 JUMPI PUSH1 0x0 DUP1 REVERT JUMPDEST POP PUSH2 0x152 PUSH2 0x484 JUMP JUMPDEST PUSH1 0x40 MLOAD PUSH2 0x15F SWAP2 SWAP1 PUSH2 0xBF6 JUMP JUMPDEST PUSH1 0x40 MLOAD DUP1 SWAP2 SUB SWAP1 RETURN JUMPDEST CALLVALUE DUP1 ISZERO PUSH2 0x174 JUMPI PUSH1 0x0 DUP1 REVERT JUMPDEST POP PUSH2 0x18F PUSH1 0x4 DUP1 CALLDATASIZE SUB DUP2 ADD SWAP1 PUSH2 0x18A SWAP2 SWAP1 PUSH2 0xCC6 JUMP JUMPDEST PUSH2 0x48A JUMP JUMPDEST STOP JUMPDEST CALLVALUE DUP1 ISZERO PUSH2 0x19D JUMPI PUSH1 0x0 DUP1 REVERT JUMPDEST POP PUSH2 0x1A6 PUSH2 0x52F JUMP JUMPDEST PUSH1 0x40 MLOAD PUSH2 0x1B3 SWAP2 SWAP1 PUSH2 0x94D JUMP JUMPDEST PUSH1 0x40 MLOAD DUP1 SWAP2 SUB SWAP1 RETURN JUMPDEST CALLVALUE DUP1 ISZERO PUSH2 0x1C8 JUMPI PUSH1 0x0 DUP1 REVERT JUMPDEST POP PUSH2 0x1D1 PUSH2 0x5D9 JUMP JUMPDEST STOP JUMPDEST PUSH2 0x1ED PUSH1 0x4 DUP1 CALLDATASIZE SUB DUP2 ADD SWAP1 PUSH2 0x1E8 SWAP2 SWAP1 PUSH2 0xD73 JUMP JUMPDEST PUSH2 0x675 JUMP JUMPDEST STOP JUMPDEST CALLVALUE DUP1 ISZERO PUSH2 0x1FB JUMPI PUSH1 0x0 DUP1 REVERT JUMPDEST POP PUSH2 0x204 PUSH2 0x70B JUMP JUMPDEST PUSH1 0x40 MLOAD PUSH2 0x211 SWAP2 SWAP1 PUSH2 0xBF6 JUMP JUMPDEST PUSH1 0x40 MLOAD DUP1 SWAP2 SUB SWAP1 RETURN JUMPDEST CALLVALUE DUP1 ISZERO PUSH2 0x226 JUMPI PUSH1 0x0 DUP1 REVERT JUMPDEST POP PUSH2 0x241 PUSH1 0x4 DUP1 CALLDATASIZE SUB DUP2 ADD SWAP1 PUSH2 0x23C SWAP2 SWAP1 PUSH2 0xDE2 JUMP JUMPDEST PUSH2 0x715 JUMP JUMPDEST STOP JUMPDEST CALLVALUE DUP1 ISZERO PUSH2 0x24F JUMPI PUSH1 0x0 DUP1 REVERT JUMPDEST POP PUSH2 0x26A PUSH1 0x4 DUP1 CALLDATASIZE SUB DUP2 ADD SWAP1 PUSH2 0x265 SWAP2 SWAP1 PUSH2 0xE22 JUMP JUMPDEST PUSH2 0x7AB JUMP JUMPDEST STOP JUMPDEST CALLVALUE DUP1 ISZERO PUSH2 0x278 JUMPI PUSH1 0x0 DUP1 REVERT JUMPDEST POP PUSH2 0x293 PUSH1 0x4 DUP1 CALLDATASIZE SUB DUP2 ADD SWAP1 PUSH2 0x28E SWAP2 SWAP1 PUSH2 0xE22 JUMP JUMPDEST PUSH2 0x83B JUMP JUMPDEST PUSH1 0x40 MLOAD PUSH2 0x2A0 SWAP2 SWAP1 PUSH2 0xE86 JUMP JUMPDEST PUSH1 0x40 MLOAD DUP1 SWAP2 SUB SWAP1 RETURN JUMPDEST PUSH1 0x60 PUSH1 0x0 DUP1 SLOAD SWAP1 PUSH2 0x100 EXP SWAP1 DIV PUSH20 0xFFFFFFFFFFFFFFFFFFFFFFFFFFFFFFFFFFFFFFFF AND PUSH20 0xFFFFFFFFFFFFFFFFFFFFFFFFFFFFFFFFFFFFFFFF AND PUSH4 0x82C41A48 DUP4 PUSH1 0x40 MLOAD DUP3 PUSH4 0xFFFFFFFF AND PUSH1 0xE0 SHL DUP2 MSTORE PUSH1 0x4 ADD PUSH2 0x304 SWAP2 SWAP1 PUSH2 0xBF6 JUMP JUMPDEST PUSH1 0x0 PUSH1 0x40 MLOAD DUP1 DUP4 SUB DUP2 DUP7 GAS STATICCALL ISZERO DUP1 ISZERO PUSH2 0x321 JUMPI RETURNDATASIZE PUSH1 0x0 DUP1 RETURNDATACOPY RETURNDATASIZE PUSH1 0x0 REVERT JUMPDEST POP POP POP POP PUSH1 0x40 MLOAD RETURNDATASIZE PUSH1 0x0 DUP3 RETURNDATACOPY RETURNDATASIZE PUSH1 0x1F NOT PUSH1 0x1F DUP3 ADD AND DUP3 ADD DUP1 PUSH1 0x40 MSTORE POP DUP2 ADD SWAP1 PUSH2 0x34A SWAP2 SWAP1 PUSH2 0xF11 JUMP JUMPDEST SWAP1 POP SWAP2 SWAP1 POP JUMP JUMPDEST PUSH1 0x1 PUSH1 0x0 SWAP1 SLOAD SWAP1 PUSH2 0x100 EXP SWAP1 DIV PUSH20 0xFFFFFFFFFFFFFFFFFFFFFFFFFFFFFFFFFFFFFFFF AND PUSH20 0xFFFFFFFFFFFFFFFFFFFFFFFFFFFFFFFFFFFFFFFF AND PUSH4 0x571F60F3 DUP8 DUP8 DUP8 DUP8 PUSH1 0x0 SHL DUP8 PUSH1 0x0 SHL DUP8 PUSH1 0x40 MLOAD DUP8 PUSH4 0xFFFFFFFF AND PUSH1 0xE0 SHL DUP2 MSTORE PUSH1 0x4 ADD PUSH2 0x3BC SWAP7 SWAP6 SWAP5 SWAP4 SWAP3 SWAP2 SWAP1 PUSH2 0x111C JUMP JUMPDEST PUSH1 0x0 PUSH1 0x40 MLOAD DUP1 DUP4 SUB DUP2 PUSH1 0x0 DUP8 DUP1 EXTCODESIZE ISZERO DUP1 ISZERO PUSH2 0x3D6 JUMPI PUSH1 0x0 DUP1 REVERT JUMPDEST POP GAS CALL ISZERO DUP1 ISZERO PUSH2 0x3EA JUMPI RETURNDATASIZE PUSH1 0x0 DUP1 RETURNDATACOPY RETURNDATASIZE PUSH1 0x0 REVERT JUMPDEST POP POP POP POP POP POP POP POP POP POP JUMP JUMPDEST PUSH1 0x8 DUP1 SLOAD PUSH2 0x403 SWAP1 PUSH2 0x11B0 JUMP JUMPDEST DUP1 PUSH1 0x1F ADD PUSH1 0x20 DUP1 SWAP2 DIV MUL PUSH1 0x20 ADD PUSH1 0x40 MLOAD SWAP1 DUP2 ADD PUSH1 0x40 MSTORE DUP1 SWAP3 SWAP2 SWAP1 DUP2 DUP2 MSTORE PUSH1 0x20 ADD DUP3 DUP1 SLOAD PUSH2 0x42F SWAP1 PUSH2 0x11B0 JUMP JUMPDEST DUP1 ISZERO PUSH2 0x47C JUMPI DUP1 PUSH1 0x1F LT PUSH2 0x451 JUMPI PUSH2 0x100 DUP1 DUP4 SLOAD DIV MUL DUP4 MSTORE SWAP2 PUSH1 0x20 ADD SWAP2 PUSH2 0x47C JUMP JUMPDEST DUP3 ADD SWAP2 SWAP1 PUSH1 0x0 MSTORE PUSH1 0x20 PUSH1 0x0 KECCAK256 SWAP1 JUMPDEST DUP2 SLOAD DUP2 MSTORE SWAP1 PUSH1 0x1 ADD SWAP1 PUSH1 0x20 ADD DUP1 DUP4 GT PUSH2 0x45F JUMPI DUP3 SWAP1 SUB PUSH1 0x1F AND DUP3 ADD SWAP2 JUMPDEST POP POP POP POP POP DUP2 JUMP JUMPDEST PUSH1 0x7 SLOAD DUP2 JUMP JUMPDEST PUSH1 0x1 PUSH1 0x0 SWAP1 SLOAD SWAP1 PUSH2 0x100 EXP SWAP1 DIV PUSH20 0xFFFFFFFFFFFFFFFFFFFFFFFFFFFFFFFFFFFFFFFF AND PUSH20 0xFFFFFFFFFFFFFFFFFFFFFFFFFFFFFFFFFFFFFFFF AND PUSH4 0xC20654EA DUP8 DUP8 DUP8 DUP8 PUSH1 0x0 SHL DUP8 PUSH1 0x0 SHL DUP8 PUSH1 0x40 MLOAD DUP8 PUSH4 0xFFFFFFFF AND PUSH1 0xE0 SHL DUP2 MSTORE PUSH1 0x4 ADD PUSH2 0x4F5 SWAP7 SWAP6 SWAP5 SWAP4 SWAP3 SWAP2 SWAP1 PUSH2 0x11E1 JUMP JUMPDEST PUSH1 0x0 PUSH1 0x40 MLOAD DUP1 DUP4 SUB DUP2 PUSH1 0x0 DUP8 DUP1 EXTCODESIZE ISZERO DUP1 ISZERO PUSH2 0x50F JUMPI PUSH1 0x0 DUP1 REVERT JUMPDEST POP GAS CALL ISZERO DUP1 ISZERO PUSH2 0x523 JUMPI RETURNDATASIZE PUSH1 0x0 DUP1 RETURNDATACOPY RETURNDATASIZE PUSH1 0x0 REVERT JUMPDEST POP POP POP POP POP POP POP POP POP POP JUMP JUMPDEST PUSH1 0x60 PUSH1 0x2 PUSH1 0x0 SWAP1 SLOAD SWAP1 PUSH2 0x100 EXP SWAP1 DIV PUSH20 0xFFFFFFFFFFFFFFFFFFFFFFFFFFFFFFFFFFFFFFFF AND PUSH20 0xFFFFFFFFFFFFFFFFFFFFFFFFFFFFFFFFFFFFFFFF AND PUSH4 0xC87B56DD PUSH1 0x7 SLOAD PUSH1 0x40 MLOAD DUP3 PUSH4 0xFFFFFFFF AND PUSH1 0xE0 SHL DUP2 MSTORE PUSH1 0x4 ADD PUSH2 0x58E SWAP2 SWAP1 PUSH2 0xBF6 JUMP JUMPDEST PUSH1 0x0 PUSH1 0x40 MLOAD DUP1 DUP4 SUB DUP2 DUP7 GAS STATICCALL ISZERO DUP1 ISZERO PUSH2 0x5AB JUMPI RETURNDATASIZE PUSH1 0x0 DUP1 RETURNDATACOPY RETURNDATASIZE PUSH1 0x0 REVERT JUMPDEST POP POP POP POP PUSH1 0x40 MLOAD RETURNDATASIZE PUSH1 0x0 DUP3 RETURNDATACOPY RETURNDATASIZE PUSH1 0x1F NOT PUSH1 0x1F DUP3 ADD AND DUP3 ADD DUP1 PUSH1 0x40 MSTORE POP DUP2 ADD SWAP1 PUSH2 0x5D4 SWAP2 SWAP1 PUSH2 0xF11 JUMP JUMPDEST SWAP1 POP SWAP1 JUMP JUMPDEST PUSH1 0x0 PUSH1 0x32 SWAP1 POP PUSH1 0x6 PUSH1 0x0 SWAP1 SLOAD SWAP1 PUSH2 0x100 EXP SWAP1 DIV PUSH20 0xFFFFFFFFFFFFFFFFFFFFFFFFFFFFFFFFFFFFFFFF AND PUSH20 0xFFFFFFFFFFFFFFFFFFFFFFFFFFFFFFFFFFFFFFFF AND PUSH4 0xCE6B0726 CALLER DUP4 PUSH1 0x7 SLOAD PUSH1 0x40 MLOAD DUP5 PUSH4 0xFFFFFFFF AND PUSH1 0xE0 SHL DUP2 MSTORE PUSH1 0x4 ADD PUSH2 0x640 SWAP4 SWAP3 SWAP2 SWAP1 PUSH2 0x128E JUMP JUMPDEST PUSH1 0x0 PUSH1 0x40 MLOAD DUP1 DUP4 SUB DUP2 PUSH1 0x0 DUP8 DUP1 EXTCODESIZE ISZERO DUP1 ISZERO PUSH2 0x65A JUMPI PUSH1 0x0 DUP1 REVERT JUMPDEST POP GAS CALL ISZERO DUP1 ISZERO PUSH2 0x66E JUMPI RETURNDATASIZE PUSH1 0x0 DUP1 RETURNDATACOPY RETURNDATASIZE PUSH1 0x0 REVERT JUMPDEST POP POP POP POP POP JUMP JUMPDEST PUSH1 0x0 DUP1 SLOAD SWAP1 PUSH2 0x100 EXP SWAP1 DIV PUSH20 0xFFFFFFFFFFFFFFFFFFFFFFFFFFFFFFFFFFFFFFFF AND PUSH20 0xFFFFFFFFFFFFFFFFFFFFFFFFFFFFFFFFFFFFFFFF AND PUSH4 0x3B12C05B DUP5 DUP5 DUP5 CALLER PUSH1 0x40 MLOAD DUP6 PUSH4 0xFFFFFFFF AND PUSH1 0xE0 SHL DUP2 MSTORE PUSH1 0x4 ADD PUSH2 0x6D4 SWAP5 SWAP4 SWAP3 SWAP2 SWAP1 PUSH2 0x12C5 JUMP JUMPDEST PUSH1 0x0 PUSH1 0x40 MLOAD DUP1 DUP4 SUB DUP2 PUSH1 0x0 DUP8 DUP1 EXTCODESIZE ISZERO DUP1 ISZERO PUSH2 0x6EE JUMPI PUSH1 0x0 DUP1 REVERT JUMPDEST POP GAS CALL ISZERO DUP1 ISZERO PUSH2 0x702 JUMPI RETURNDATASIZE PUSH1 0x0 DUP1 RETURNDATACOPY RETURNDATASIZE PUSH1 0x0 REVERT JUMPDEST POP POP POP POP POP POP POP JUMP JUMPDEST PUSH1 0x0 PUSH1 0x7 SLOAD SWAP1 POP SWAP1 JUMP JUMPDEST PUSH1 0x1 PUSH1 0x0 SWAP1 SLOAD SWAP1 PUSH2 0x100 EXP SWAP1 DIV PUSH20 0xFFFFFFFFFFFFFFFFFFFFFFFFFFFFFFFFFFFFFFFF AND PUSH20 0xFFFFFFFFFFFFFFFFFFFFFFFFFFFFFFFFFFFFFFFF AND PUSH4 0x37A2BC52 DUP4 PUSH1 0x0 SHL DUP4 PUSH1 0x40 MLOAD DUP4 PUSH4 0xFFFFFFFF AND PUSH1 0xE0 SHL DUP2 MSTORE PUSH1 0x4 ADD PUSH2 0x775 SWAP3 SWAP2 SWAP1 PUSH2 0x1311 JUMP JUMPDEST PUSH1 0x0 PUSH1 0x40 MLOAD DUP1 DUP4 SUB DUP2 PUSH1 0x0 DUP8 DUP1 EXTCODESIZE ISZERO DUP1 ISZERO PUSH2 0x78F JUMPI PUSH1 0x0 DUP1 REVERT JUMPDEST POP GAS CALL ISZERO DUP1 ISZERO PUSH2 0x7A3 JUMPI RETURNDATASIZE PUSH1 0x0 DUP1 RETURNDATACOPY RETURNDATASIZE PUSH1 0x0 REVERT JUMPDEST POP POP POP POP POP POP JUMP JUMPDEST PUSH1 0x5 PUSH1 0x0 SWAP1 SLOAD SWAP1 PUSH2 0x100 EXP SWAP1 DIV PUSH20 0xFFFFFFFFFFFFFFFFFFFFFFFFFFFFFFFFFFFFFFFF AND PUSH20 0xFFFFFFFFFFFFFFFFFFFFFFFFFFFFFFFFFFFFFFFF AND PUSH4 0xB4F12F6 DUP3 PUSH1 0x40 MLOAD DUP3 PUSH4 0xFFFFFFFF AND PUSH1 0xE0 SHL DUP2 MSTORE PUSH1 0x4 ADD PUSH2 0x806 SWAP2 SWAP1 PUSH2 0x94D JUMP JUMPDEST PUSH1 0x0 PUSH1 0x40 MLOAD DUP1 DUP4 SUB DUP2 PUSH1 0x0 DUP8 DUP1 EXTCODESIZE ISZERO DUP1 ISZERO PUSH2 0x820 JUMPI PUSH1 0x0 DUP1 REVERT JUMPDEST POP GAS CALL ISZERO DUP1 ISZERO PUSH2 0x834 JUMPI RETURNDATASIZE PUSH1 0x0 DUP1 RETURNDATACOPY RETURNDATASIZE PUSH1 0x0 REVERT JUMPDEST POP POP POP POP POP JUMP JUMPDEST PUSH1 0x0 PUSH1 0x1 SWAP1 POP SWAP2 SWAP1 POP JUMP JUMPDEST PUSH1 0x0 PUSH1 0x40 MLOAD SWAP1 POP SWAP1 JUMP JUMPDEST PUSH1 0x0 DUP1 REVERT JUMPDEST PUSH1 0x0 DUP1 REVERT JUMPDEST PUSH1 0x0 DUP2 SWAP1 POP SWAP2 SWAP1 POP JUMP JUMPDEST PUSH2 0x86D DUP2 PUSH2 0x85A JUMP JUMPDEST DUP2 EQ PUSH2 0x878 JUMPI PUSH1 0x0 DUP1 REVERT JUMPDEST POP JUMP JUMPDEST PUSH1 0x0 DUP2 CALLDATALOAD SWAP1 POP PUSH2 0x88A DUP2 PUSH2 0x864 JUMP JUMPDEST SWAP3 SWAP2 POP POP JUMP JUMPDEST PUSH1 0x0 PUSH1 0x20 DUP3 DUP5 SUB SLT ISZERO PUSH2 0x8A6 JUMPI PUSH2 0x8A5 PUSH2 0x850 JUMP JUMPDEST JUMPDEST PUSH1 0x0 PUSH2 0x8B4 DUP5 DUP3 DUP6 ADD PUSH2 0x87B JUMP JUMPDEST SWAP2 POP POP SWAP3 SWAP2 POP POP JUMP JUMPDEST PUSH1 0x0 DUP2 MLOAD SWAP1 POP SWAP2 SWAP1 POP JUMP JUMPDEST PUSH1 0x0 DUP3 DUP3 MSTORE PUSH1 0x20 DUP3 ADD SWAP1 POP SWAP3 SWAP2 POP POP JUMP JUMPDEST PUSH1 0x0 JUMPDEST DUP4 DUP2 LT ISZERO PUSH2 0x8F7 JUMPI DUP1 DUP3 ADD MLOAD DUP2 DUP5 ADD MSTORE PUSH1 0x20 DUP2 ADD SWAP1 POP PUSH2 0x8DC JUMP JUMPDEST PUSH1 0x0 DUP5 DUP5 ADD MSTORE POP POP POP POP JUMP JUMPDEST PUSH1 0x0 PUSH1 0x1F NOT PUSH1 0x1F DUP4 ADD AND SWAP1 POP SWAP2 SWAP1 POP JUMP JUMPDEST PUSH1 0x0 PUSH2 0x91F DUP3 PUSH2 0x8BD JUMP JUMPDEST PUSH2 0x929 DUP2 DUP6 PUSH2 0x8C8 JUMP JUMPDEST SWAP4 POP PUSH2 0x939 DUP2 DUP6 PUSH1 0x20 DUP7 ADD PUSH2 0x8D9 JUMP JUMPDEST PUSH2 0x942 DUP2 PUSH2 0x903 JUMP JUMPDEST DUP5 ADD SWAP2 POP POP SWAP3 SWAP2 POP POP JUMP JUMPDEST PUSH1 0x0 PUSH1 0x20 DUP3 ADD SWAP1 POP DUP2 DUP2 SUB PUSH1 0x0 DUP4 ADD MSTORE PUSH2 0x967 DUP2 DUP5 PUSH2 0x914 JUMP JUMPDEST SWAP1 POP SWAP3 SWAP2 POP POP JUMP JUMPDEST PUSH1 0x0 DUP1 REVERT JUMPDEST PUSH32 0x4E487B7100000000000000000000000000000000000000000000000000000000 PUSH1 0x0 MSTORE PUSH1 0x41 PUSH1 0x4 MSTORE PUSH1 0x24 PUSH1 0x0 REVERT JUMPDEST PUSH2 0x9AC DUP3 PUSH2 0x903 JUMP JUMPDEST DUP2 ADD DUP2 DUP2 LT PUSH8 0xFFFFFFFFFFFFFFFF DUP3 GT OR ISZERO PUSH2 0x9CB JUMPI PUSH2 0x9CA PUSH2 0x974 JUMP JUMPDEST JUMPDEST DUP1 PUSH1 0x40 MSTORE POP POP POP JUMP JUMPDEST PUSH1 0x0 PUSH2 0x9DE PUSH2 0x846 JUMP JUMPDEST SWAP1 POP PUSH2 0x9EA DUP3 DUP3 PUSH2 0x9A3 JUMP JUMPDEST SWAP2 SWAP1 POP JUMP JUMPDEST PUSH1 0x0 PUSH8 0xFFFFFFFFFFFFFFFF DUP3 GT ISZERO PUSH2 0xA0A JUMPI PUSH2 0xA09 PUSH2 0x974 JUMP JUMPDEST JUMPDEST PUSH1 0x20 DUP3 MUL SWAP1 POP SWAP2 SWAP1 POP JUMP JUMPDEST PUSH1 0x0 DUP1 REVERT JUMPDEST PUSH1 0x0 PUSH2 0xA2D PUSH2 0xA28 DUP5 PUSH2 0x9EF JUMP JUMPDEST PUSH2 0x9D4 JUMP JUMPDEST SWAP1 POP DUP1 PUSH1 0x20 DUP5 MUL DUP4 ADD DUP6 DUP2 GT ISZERO PUSH2 0xA47 JUMPI PUSH2 0xA46 PUSH2 0xA15 JUMP JUMPDEST JUMPDEST DUP4 JUMPDEST DUP2 DUP2 LT ISZERO PUSH2 0xA70 JUMPI DUP1 PUSH2 0xA5C DUP9 DUP3 PUSH2 0x87B JUMP JUMPDEST DUP5 MSTORE PUSH1 0x20 DUP5 ADD SWAP4 POP POP PUSH1 0x20 DUP2 ADD SWAP1 POP PUSH2 0xA49 JUMP JUMPDEST POP POP POP SWAP4 SWAP3 POP POP POP JUMP JUMPDEST PUSH1 0x0 DUP3 PUSH1 0x1F DUP4 ADD SLT PUSH2 0xA8F JUMPI PUSH2 0xA8E PUSH2 0x96F JUMP JUMPDEST JUMPDEST PUSH1 0x2 PUSH2 0xA9C DUP5 DUP3 DUP6 PUSH2 0xA1A JUMP JUMPDEST SWAP2 POP POP SWAP3 SWAP2 POP POP JUMP JUMPDEST PUSH1 0x0 PUSH8 0xFFFFFFFFFFFFFFFF DUP3 GT ISZERO PUSH2 0xAC0 JUMPI PUSH2 0xABF PUSH2 0x974 JUMP JUMPDEST JUMPDEST PUSH1 0x20 DUP3 MUL SWAP1 POP SWAP2 SWAP1 POP JUMP JUMPDEST PUSH1 0x0 PUSH2 0xADE PUSH2 0xAD9 DUP5 PUSH2 0xAA5 JUMP JUMPDEST PUSH2 0x9D4 JUMP JUMPDEST SWAP1 POP DUP1 PUSH1 0x40 DUP5 MUL DUP4 ADD DUP6 DUP2 GT ISZERO PUSH2 0xAF8 JUMPI PUSH2 0xAF7 PUSH2 0xA15 JUMP JUMPDEST JUMPDEST DUP4 JUMPDEST DUP2 DUP2 LT ISZERO PUSH2 0xB21 JUMPI DUP1 PUSH2 0xB0D DUP9 DUP3 PUSH2 0xA7A JUMP JUMPDEST DUP5 MSTORE PUSH1 0x20 DUP5 ADD SWAP4 POP POP PUSH1 0x40 DUP2 ADD SWAP1 POP PUSH2 0xAFA JUMP JUMPDEST POP POP POP SWAP4 SWAP3 POP POP POP JUMP JUMPDEST PUSH1 0x0 DUP3 PUSH1 0x1F DUP4 ADD SLT PUSH2 0xB40 JUMPI PUSH2 0xB3F PUSH2 0x96F JUMP JUMPDEST JUMPDEST PUSH1 0x2 PUSH2 0xB4D DUP5 DUP3 DUP6 PUSH2 0xACB JUMP JUMPDEST SWAP2 POP POP SWAP3 SWAP2 POP POP JUMP JUMPDEST PUSH1 0x0 DUP1 PUSH1 0x0 DUP1 PUSH1 0x0 DUP1 PUSH2 0x160 DUP8 DUP10 SUB SLT ISZERO PUSH2 0xB74 JUMPI PUSH2 0xB73 PUSH2 0x850 JUMP JUMPDEST JUMPDEST PUSH1 0x0 PUSH2 0xB82 DUP10 DUP3 DUP11 ADD PUSH2 0xA7A JUMP JUMPDEST SWAP7 POP POP PUSH1 0x40 PUSH2 0xB93 DUP10 DUP3 DUP11 ADD PUSH2 0xB2B JUMP JUMPDEST SWAP6 POP POP PUSH1 0xC0 PUSH2 0xBA4 DUP10 DUP3 DUP11 ADD PUSH2 0xA7A JUMP JUMPDEST SWAP5 POP POP PUSH2 0x100 PUSH2 0xBB6 DUP10 DUP3 DUP11 ADD PUSH2 0x87B JUMP JUMPDEST SWAP4 POP POP PUSH2 0x120 PUSH2 0xBC8 DUP10 DUP3 DUP11 ADD PUSH2 0x87B JUMP JUMPDEST SWAP3 POP POP PUSH2 0x140 PUSH2 0xBDA DUP10 DUP3 DUP11 ADD PUSH2 0x87B JUMP JUMPDEST SWAP2 POP POP SWAP3 SWAP6 POP SWAP3 SWAP6 POP SWAP3 SWAP6 JUMP JUMPDEST PUSH2 0xBF0 DUP2 PUSH2 0x85A JUMP JUMPDEST DUP3 MSTORE POP POP JUMP JUMPDEST PUSH1 0x0 PUSH1 0x20 DUP3 ADD SWAP1 POP PUSH2 0xC0B PUSH1 0x0 DUP4 ADD DUP5 PUSH2 0xBE7 JUMP JUMPDEST SWAP3 SWAP2 POP POP JUMP JUMPDEST PUSH1 0x0 DUP1 REVERT JUMPDEST PUSH1 0x0 PUSH8 0xFFFFFFFFFFFFFFFF DUP3 GT ISZERO PUSH2 0xC31 JUMPI PUSH2 0xC30 PUSH2 0x974 JUMP JUMPDEST JUMPDEST PUSH2 0xC3A DUP3 PUSH2 0x903 JUMP JUMPDEST SWAP1 POP PUSH1 0x20 DUP2 ADD SWAP1 POP SWAP2 SWAP1 POP JUMP JUMPDEST DUP3 DUP2 DUP4 CALLDATACOPY PUSH1 0x0 DUP4 DUP4 ADD MSTORE POP POP POP JUMP JUMPDEST PUSH1 0x0 PUSH2 0xC69 PUSH2 0xC64 DUP5 PUSH2 0xC16 JUMP JUMPDEST PUSH2 0x9D4 JUMP JUMPDEST SWAP1 POP DUP3 DUP2 MSTORE PUSH1 0x20 DUP2 ADD DUP5 DUP5 DUP5 ADD GT ISZERO PUSH2 0xC85 JUMPI PUSH2 0xC84 PUSH2 0xC11 JUMP JUMPDEST JUMPDEST PUSH2 0xC90 DUP5 DUP3 DUP6 PUSH2 0xC47 JUMP JUMPDEST POP SWAP4 SWAP3 POP POP POP JUMP JUMPDEST PUSH1 0x0 DUP3 PUSH1 0x1F DUP4 ADD SLT PUSH2 0xCAD JUMPI PUSH2 0xCAC PUSH2 0x96F JUMP JUMPDEST JUMPDEST DUP2 CALLDATALOAD PUSH2 0xCBD DUP5 DUP3 PUSH1 0x20 DUP7 ADD PUSH2 0xC56 JUMP JUMPDEST SWAP2 POP POP SWAP3 SWAP2 POP POP JUMP JUMPDEST PUSH1 0x0 DUP1 PUSH1 0x0 DUP1 PUSH1 0x0 DUP1 PUSH2 0x160 DUP8 DUP10 SUB SLT ISZERO PUSH2 0xCE4 JUMPI PUSH2 0xCE3 PUSH2 0x850 JUMP JUMPDEST JUMPDEST PUSH1 0x0 PUSH2 0xCF2 DUP10 DUP3 DUP11 ADD PUSH2 0xA7A JUMP JUMPDEST SWAP7 POP POP PUSH1 0x40 PUSH2 0xD03 DUP10 DUP3 DUP11 ADD PUSH2 0xB2B JUMP JUMPDEST SWAP6 POP POP PUSH1 0xC0 PUSH2 0xD14 DUP10 DUP3 DUP11 ADD PUSH2 0xA7A JUMP JUMPDEST SWAP5 POP POP PUSH2 0x100 PUSH2 0xD26 DUP10 DUP3 DUP11 ADD PUSH2 0x87B JUMP JUMPDEST SWAP4 POP POP PUSH2 0x120 PUSH2 0xD38 DUP10 DUP3 DUP11 ADD PUSH2 0x87B JUMP JUMPDEST SWAP3 POP POP PUSH2 0x140 DUP8 ADD CALLDATALOAD PUSH8 0xFFFFFFFFFFFFFFFF DUP2 GT ISZERO PUSH2 0xD5A JUMPI PUSH2 0xD59 PUSH2 0x855 JUMP JUMPDEST JUMPDEST PUSH2 0xD66 DUP10 DUP3 DUP11 ADD PUSH2 0xC98 JUMP JUMPDEST SWAP2 POP POP SWAP3 SWAP6 POP SWAP3 SWAP6 POP SWAP3 SWAP6 JUMP JUMPDEST PUSH1 0x0 DUP1 PUSH1 0x0 PUSH1 0x60 DUP5 DUP7 SUB SLT ISZERO PUSH2 0xD8C JUMPI PUSH2 0xD8B PUSH2 0x850 JUMP JUMPDEST JUMPDEST PUSH1 0x0 PUSH2 0xD9A DUP7 DUP3 DUP8 ADD PUSH2 0x87B JUMP JUMPDEST SWAP4 POP POP PUSH1 0x20 PUSH2 0xDAB DUP7 DUP3 DUP8 ADD PUSH2 0x87B JUMP JUMPDEST SWAP3 POP POP PUSH1 0x40 DUP5 ADD CALLDATALOAD PUSH8 0xFFFFFFFFFFFFFFFF DUP2 GT ISZERO PUSH2 0xDCC JUMPI PUSH2 0xDCB PUSH2 0x855 JUMP JUMPDEST JUMPDEST PUSH2 0xDD8 DUP7 DUP3 DUP8 ADD PUSH2 0xC98 JUMP JUMPDEST SWAP2 POP POP SWAP3 POP SWAP3 POP SWAP3 JUMP JUMPDEST PUSH1 0x0 DUP1 PUSH1 0x40 DUP4 DUP6 SUB SLT ISZERO PUSH2 0xDF9 JUMPI PUSH2 0xDF8 PUSH2 0x850 JUMP JUMPDEST JUMPDEST PUSH1 0x0 PUSH2 0xE07 DUP6 DUP3 DUP7 ADD PUSH2 0x87B JUMP JUMPDEST SWAP3 POP POP PUSH1 0x20 PUSH2 0xE18 DUP6 DUP3 DUP7 ADD PUSH2 0x87B JUMP JUMPDEST SWAP2 POP POP SWAP3 POP SWAP3 SWAP1 POP JUMP JUMPDEST PUSH1 0x0 PUSH1 0x20 DUP3 DUP5 SUB SLT ISZERO PUSH2 0xE38 JUMPI PUSH2 0xE37 PUSH2 0x850 JUMP JUMPDEST JUMPDEST PUSH1 0x0 DUP3 ADD CALLDATALOAD PUSH8 0xFFFFFFFFFFFFFFFF DUP2 GT ISZERO PUSH2 0xE56 JUMPI PUSH2 0xE55 PUSH2 0x855 JUMP JUMPDEST JUMPDEST PUSH2 0xE62 DUP5 DUP3 DUP6 ADD PUSH2 0xC98 JUMP JUMPDEST SWAP2 POP POP SWAP3 SWAP2 POP POP JUMP JUMPDEST PUSH1 0x0 DUP2 ISZERO ISZERO SWAP1 POP SWAP2 SWAP1 POP JUMP JUMPDEST PUSH2 0xE80 DUP2 PUSH2 0xE6B JUMP JUMPDEST DUP3 MSTORE POP POP JUMP JUMPDEST PUSH1 0x0 PUSH1 0x20 DUP3 ADD SWAP1 POP PUSH2 0xE9B PUSH1 0x0 DUP4 ADD DUP5 PUSH2 0xE77 JUMP JUMPDEST SWAP3 SWAP2 POP POP JUMP JUMPDEST PUSH1 0x0 PUSH2 0xEB4 PUSH2 0xEAF DUP5 PUSH2 0xC16 JUMP JUMPDEST PUSH2 0x9D4 JUMP JUMPDEST SWAP1 POP DUP3 DUP2 MSTORE PUSH1 0x20 DUP2 ADD DUP5 DUP5 DUP5 ADD GT ISZERO PUSH2 0xED0 JUMPI PUSH2 0xECF PUSH2 0xC11 JUMP JUMPDEST JUMPDEST PUSH2 0xEDB DUP5 DUP3 DUP6 PUSH2 0x8D9 JUMP JUMPDEST POP SWAP4 SWAP3 POP POP POP JUMP JUMPDEST PUSH1 0x0 DUP3 PUSH1 0x1F DUP4 ADD SLT PUSH2 0xEF8 JUMPI PUSH2 0xEF7 PUSH2 0x96F JUMP JUMPDEST JUMPDEST DUP2 MLOAD PUSH2 0xF08 DUP5 DUP3 PUSH1 0x20 DUP7 ADD PUSH2 0xEA1 JUMP JUMPDEST SWAP2 POP POP SWAP3 SWAP2 POP POP JUMP JUMPDEST PUSH1 0x0 PUSH1 0x20 DUP3 DUP5 SUB SLT ISZERO PUSH2 0xF27 JUMPI PUSH2 0xF26 PUSH2 0x850 JUMP JUMPDEST JUMPDEST PUSH1 0x0 DUP3 ADD MLOAD PUSH8 0xFFFFFFFFFFFFFFFF DUP2 GT ISZERO PUSH2 0xF45 JUMPI PUSH2 0xF44 PUSH2 0x855 JUMP JUMPDEST JUMPDEST PUSH2 0xF51 DUP5 DUP3 DUP6 ADD PUSH2 0xEE3 JUMP JUMPDEST SWAP2 POP POP SWAP3 SWAP2 POP POP JUMP JUMPDEST PUSH1 0x0 PUSH1 0x2 SWAP1 POP SWAP2 SWAP1 POP JUMP JUMPDEST PUSH1 0x0 DUP2 SWAP1 POP SWAP3 SWAP2 POP POP JUMP JUMPDEST PUSH1 0x0 DUP2 SWAP1 POP SWAP2 SWAP1 POP JUMP JUMPDEST PUSH2 0xF83 DUP2 PUSH2 0x85A JUMP JUMPDEST DUP3 MSTORE POP POP JUMP JUMPDEST PUSH1 0x0 PUSH2 0xF95 DUP4 DUP4 PUSH2 0xF7A JUMP JUMPDEST PUSH1 0x20 DUP4 ADD SWAP1 POP SWAP3 SWAP2 POP POP JUMP JUMPDEST PUSH1 0x0 PUSH1 0x20 DUP3 ADD SWAP1 POP SWAP2 SWAP1 POP JUMP JUMPDEST PUSH2 0xFB7 DUP2 PUSH2 0xF5A JUMP JUMPDEST PUSH2 0xFC1 DUP2 DUP5 PUSH2 0xF65 JUMP JUMPDEST SWAP3 POP PUSH2 0xFCC DUP3 PUSH2 0xF70 JUMP JUMPDEST DUP1 PUSH1 0x0 JUMPDEST DUP4 DUP2 LT ISZERO PUSH2 0xFFD JUMPI DUP2 MLOAD PUSH2 0xFE4 DUP8 DUP3 PUSH2 0xF89 JUMP JUMPDEST SWAP7 POP PUSH2 0xFEF DUP4 PUSH2 0xFA1 JUMP JUMPDEST SWAP3 POP POP PUSH1 0x1 DUP2 ADD SWAP1 POP PUSH2 0xFD0 JUMP JUMPDEST POP POP POP POP POP POP JUMP JUMPDEST PUSH1 0x0 PUSH1 0x2 SWAP1 POP SWAP2 SWAP1 POP JUMP JUMPDEST PUSH1 0x0 DUP2 SWAP1 POP SWAP3 SWAP2 POP POP JUMP JUMPDEST PUSH1 0x0 DUP2 SWAP1 POP SWAP2 SWAP1 POP JUMP JUMPDEST PUSH1 0x0 DUP2 SWAP1 POP SWAP3 SWAP2 POP POP JUMP JUMPDEST PUSH2 0x1039 DUP2 PUSH2 0xF5A JUMP JUMPDEST PUSH2 0x1043 DUP2 DUP5 PUSH2 0x1025 JUMP JUMPDEST SWAP3 POP PUSH2 0x104E DUP3 PUSH2 0xF70 JUMP JUMPDEST DUP1 PUSH1 0x0 JUMPDEST DUP4 DUP2 LT ISZERO PUSH2 0x107F JUMPI DUP2 MLOAD PUSH2 0x1066 DUP8 DUP3 PUSH2 0xF89 JUMP JUMPDEST SWAP7 POP PUSH2 0x1071 DUP4 PUSH2 0xFA1 JUMP JUMPDEST SWAP3 POP POP PUSH1 0x1 DUP2 ADD SWAP1 POP PUSH2 0x1052 JUMP JUMPDEST POP POP POP POP POP POP JUMP JUMPDEST PUSH1 0x0 PUSH2 0x1093 DUP4 DUP4 PUSH2 0x1030 JUMP JUMPDEST PUSH1 0x40 DUP4 ADD SWAP1 POP SWAP3 SWAP2 POP POP JUMP JUMPDEST PUSH1 0x0 PUSH1 0x20 DUP3 ADD SWAP1 POP SWAP2 SWAP1 POP JUMP JUMPDEST PUSH2 0x10B5 DUP2 PUSH2 0x1005 JUMP JUMPDEST PUSH2 0x10BF DUP2 DUP5 PUSH2 0x1010 JUMP JUMPDEST SWAP3 POP PUSH2 0x10CA DUP3 PUSH2 0x101B JUMP JUMPDEST DUP1 PUSH1 0x0 JUMPDEST DUP4 DUP2 LT ISZERO PUSH2 0x10FB JUMPI DUP2 MLOAD PUSH2 0x10E2 DUP8 DUP3 PUSH2 0x1087 JUMP JUMPDEST SWAP7 POP PUSH2 0x10ED DUP4 PUSH2 0x109F JUMP JUMPDEST SWAP3 POP POP PUSH1 0x1 DUP2 ADD SWAP1 POP PUSH2 0x10CE JUMP JUMPDEST POP POP POP POP POP POP JUMP JUMPDEST PUSH1 0x0 DUP2 SWAP1 POP SWAP2 SWAP1 POP JUMP JUMPDEST PUSH2 0x1116 DUP2 PUSH2 0x1103 JUMP JUMPDEST DUP3 MSTORE POP POP JUMP JUMPDEST PUSH1 0x0 PUSH2 0x160 DUP3 ADD SWAP1 POP PUSH2 0x1132 PUSH1 0x0 DUP4 ADD DUP10 PUSH2 0xFAE JUMP JUMPDEST PUSH2 0x113F PUSH1 0x40 DUP4 ADD DUP9 PUSH2 0x10AC JUMP JUMPDEST PUSH2 0x114C PUSH1 0xC0 DUP4 ADD DUP8 PUSH2 0xFAE JUMP JUMPDEST PUSH2 0x115A PUSH2 0x100 DUP4 ADD DUP7 PUSH2 0x110D JUMP JUMPDEST PUSH2 0x1168 PUSH2 0x120 DUP4 ADD DUP6 PUSH2 0x110D JUMP JUMPDEST PUSH2 0x1176 PUSH2 0x140 DUP4 ADD DUP5 PUSH2 0xBE7 JUMP JUMPDEST SWAP8 SWAP7 POP POP POP POP POP POP POP JUMP JUMPDEST PUSH32 0x4E487B7100000000000000000000000000000000000000000000000000000000 PUSH1 0x0 MSTORE PUSH1 0x22 PUSH1 0x4 MSTORE PUSH1 0x24 PUSH1 0x0 REVERT JUMPDEST PUSH1 0x0 PUSH1 0x2 DUP3 DIV SWAP1 POP PUSH1 0x1 DUP3 AND DUP1 PUSH2 0x11C8 JUMPI PUSH1 0x7F DUP3 AND SWAP2 POP JUMPDEST PUSH1 0x20 DUP3 LT DUP2 SUB PUSH2 0x11DB JUMPI PUSH2 0x11DA PUSH2 0x1181 JUMP JUMPDEST JUMPDEST POP SWAP2 SWAP1 POP JUMP JUMPDEST PUSH1 0x0 PUSH2 0x160 DUP3 ADD SWAP1 POP PUSH2 0x11F7 PUSH1 0x0 DUP4 ADD DUP10 PUSH2 0xFAE JUMP JUMPDEST PUSH2 0x1204 PUSH1 0x40 DUP4 ADD DUP9 PUSH2 0x10AC JUMP JUMPDEST PUSH2 0x1211 PUSH1 0xC0 DUP4 ADD DUP8 PUSH2 0xFAE JUMP JUMPDEST PUSH2 0x121F PUSH2 0x100 DUP4 ADD DUP7 PUSH2 0x110D JUMP JUMPDEST PUSH2 0x122D PUSH2 0x120 DUP4 ADD DUP6 PUSH2 0x110D JUMP JUMPDEST DUP2 DUP2 SUB PUSH2 0x140 DUP4 ADD MSTORE PUSH2 0x1240 DUP2 DUP5 PUSH2 0x914 JUMP JUMPDEST SWAP1 POP SWAP8 SWAP7 POP POP POP POP POP POP POP JUMP JUMPDEST PUSH1 0x0 PUSH20 0xFFFFFFFFFFFFFFFFFFFFFFFFFFFFFFFFFFFFFFFF DUP3 AND SWAP1 POP SWAP2 SWAP1 POP JUMP JUMPDEST PUSH1 0x0 PUSH2 0x1278 DUP3 PUSH2 0x124D JUMP JUMPDEST SWAP1 POP SWAP2 SWAP1 POP JUMP JUMPDEST PUSH2 0x1288 DUP2 PUSH2 0x126D JUMP JUMPDEST DUP3 MSTORE POP POP JUMP JUMPDEST PUSH1 0x0 PUSH1 0x60 DUP3 ADD SWAP1 POP PUSH2 0x12A3 PUSH1 0x0 DUP4 ADD DUP7 PUSH2 0x127F JUMP JUMPDEST PUSH2 0x12B0 PUSH1 0x20 DUP4 ADD DUP6 PUSH2 0xBE7 JUMP JUMPDEST PUSH2 0x12BD PUSH1 0x40 DUP4 ADD DUP5 PUSH2 0xBE7 JUMP JUMPDEST SWAP5 SWAP4 POP POP POP POP JUMP JUMPDEST PUSH1 0x0 PUSH1 0x80 DUP3 ADD SWAP1 POP PUSH2 0x12DA PUSH1 0x0 DUP4 ADD DUP8 PUSH2 0xBE7 JUMP JUMPDEST PUSH2 0x12E7 PUSH1 0x20 DUP4 ADD DUP7 PUSH2 0xBE7 JUMP JUMPDEST DUP2 DUP2 SUB PUSH1 0x40 DUP4 ADD MSTORE PUSH2 0x12F9 DUP2 DUP6 PUSH2 0x914 JUMP JUMPDEST SWAP1 POP PUSH2 0x1308 PUSH1 0x60 DUP4 ADD DUP5 PUSH2 0x127F JUMP JUMPDEST SWAP6 SWAP5 POP POP POP POP POP JUMP JUMPDEST PUSH1 0x0 PUSH1 0x40 DUP3 ADD SWAP1 POP PUSH2 0x1326 PUSH1 0x0 DUP4 ADD DUP6 PUSH2 0x110D JUMP JUMPDEST PUSH2 0x1333 PUSH1 0x20 DUP4 ADD DUP5 PUSH2 0xBE7 JUMP JUMPDEST SWAP4 SWAP3 POP POP POP JUMP INVALID LOG2 PUSH5 0x6970667358 0x22 SLT KECCAK256 0xE1 BYTE DUP1 0xE9 MSTORE8 SWAP2 LT PUSH6 0x814D03E3879A 0xE5 PUSH0 INVALID 0xA9 JUMP DUP3 EXTCODECOPY CALL MSTORE PUSH24 0x97EE7A4C0C660AE264736F6C634300081900336080604052 CALLVALUE DUP1 ISZERO PUSH2 0x10 JUMPI PUSH1 0x0 DUP1 REVERT JUMPDEST POP PUSH1 0x40 MLOAD PUSH2 0x9AB CODESIZE SUB DUP1 PUSH2 0x9AB DUP4 CODECOPY DUP2 DUP2 ADD PUSH1 0x40 MSTORE DUP2 ADD SWAP1 PUSH2 0x32 SWAP2 SWAP1 PUSH2 0xEE JUMP JUMPDEST DUP1 PUSH1 0x1 PUSH1 0x0 PUSH2 0x100 EXP DUP2 SLOAD DUP2 PUSH20 0xFFFFFFFFFFFFFFFFFFFFFFFFFFFFFFFFFFFFFFFF MUL NOT AND SWAP1 DUP4 PUSH20 0xFFFFFFFFFFFFFFFFFFFFFFFFFFFFFFFFFFFFFFFF AND MUL OR SWAP1 SSTORE POP POP PUSH2 0x11B JUMP JUMPDEST PUSH1 0x0 DUP1 REVERT JUMPDEST PUSH1 0x0 PUSH20 0xFFFFFFFFFFFFFFFFFFFFFFFFFFFFFFFFFFFFFFFF DUP3 AND SWAP1 POP SWAP2 SWAP1 POP JUMP JUMPDEST PUSH1 0x0 PUSH2 0xA9 DUP3 PUSH2 0x7E JUMP JUMPDEST SWAP1 POP SWAP2 SWAP1 POP JUMP JUMPDEST PUSH1 0x0 PUSH2 0xBB DUP3 PUSH2 0x9E JUMP JUMPDEST SWAP1 POP SWAP2 SWAP1 POP JUMP JUMPDEST PUSH2 0xCB DUP2 PUSH2 0xB0 JUMP JUMPDEST DUP2 EQ PUSH2 0xD6 JUMPI PUSH1 0x0 DUP1 REVERT JUMPDEST POP JUMP JUMPDEST PUSH1 0x0 DUP2 MLOAD SWAP1 POP PUSH2 0xE8 DUP2 PUSH2 0xC2 JUMP JUMPDEST SWAP3 SWAP2 POP POP JUMP JUMPDEST PUSH1 0x0 PUSH1 0x20 DUP3 DUP5 SUB SLT ISZERO PUSH2 0x104 JUMPI PUSH2 0x103 PUSH2 0x79 JUMP JUMPDEST JUMPDEST PUSH1 0x0 PUSH2 0x112 DUP5 DUP3 DUP6 ADD PUSH2 0xD9 JUMP JUMPDEST SWAP2 POP POP SWAP3 SWAP2 POP POP JUMP JUMPDEST PUSH2 0x881 DUP1 PUSH2 0x12A PUSH1 0x0 CODECOPY PUSH1 0x0 RETURN INVALID PUSH1 0x80 PUSH1 0x40 MSTORE PUSH1 0x4 CALLDATASIZE LT PUSH2 0x34 JUMPI PUSH1 0x0 CALLDATALOAD PUSH1 0xE0 SHR DUP1 PUSH4 0x2E1F9763 EQ PUSH2 0x39 JUMPI DUP1 PUSH4 0x3B12C05B EQ PUSH2 0x76 JUMPI DUP1 PUSH4 0x82C41A48 EQ PUSH2 0x92 JUMPI JUMPDEST PUSH1 0x0 DUP1 REVERT JUMPDEST CALLVALUE DUP1 ISZERO PUSH2 0x45 JUMPI PUSH1 0x0 DUP1 REVERT JUMPDEST POP PUSH2 0x60 PUSH1 0x4 DUP1 CALLDATASIZE SUB DUP2 ADD SWAP1 PUSH2 0x5B SWAP2 SWAP1 PUSH2 0x386 JUMP JUMPDEST PUSH2 0xCF JUMP JUMPDEST PUSH1 0x40 MLOAD PUSH2 0x6D SWAP2 SWAP1 PUSH2 0x404 JUMP JUMPDEST PUSH1 0x40 MLOAD DUP1 SWAP2 SUB SWAP1 RETURN JUMPDEST PUSH2 0x90 PUSH1 0x4 DUP1 CALLDATASIZE SUB DUP2 ADD SWAP1 PUSH2 0x8B SWAP2 SWAP1 PUSH2 0x5C3 JUMP JUMPDEST PUSH2 0x119 JUMP JUMPDEST STOP JUMPDEST CALLVALUE DUP1 ISZERO PUSH2 0x9E JUMPI PUSH1 0x0 DUP1 REVERT JUMPDEST POP PUSH2 0xB9 PUSH1 0x4 DUP1 CALLDATASIZE SUB DUP2 ADD SWAP1 PUSH2 0xB4 SWAP2 SWAP1 PUSH2 0x386 JUMP JUMPDEST PUSH2 0x232 JUMP JUMPDEST PUSH1 0x40 MLOAD PUSH2 0xC6 SWAP2 SWAP1 PUSH2 0x6C5 JUMP JUMPDEST PUSH1 0x40 MLOAD DUP1 SWAP2 SUB SWAP1 RETURN JUMPDEST PUSH2 0xD7 PUSH2 0x31B JUMP JUMPDEST PUSH1 0x0 DUP1 DUP4 DUP2 MSTORE PUSH1 0x20 ADD SWAP1 DUP2 MSTORE PUSH1 0x20 ADD PUSH1 0x0 KECCAK256 PUSH1 0x40 MLOAD DUP1 PUSH1 0x60 ADD PUSH1 0x40 MSTORE SWAP1 DUP2 PUSH1 0x0 DUP3 ADD SLOAD DUP2 MSTORE PUSH1 0x20 ADD PUSH1 0x1 DUP3 ADD SLOAD DUP2 MSTORE PUSH1 0x20 ADD PUSH1 0x2 DUP3 ADD SLOAD DUP2 MSTORE POP POP SWAP1 POP SWAP2 SWAP1 POP JUMP JUMPDEST PUSH1 0x0 PUSH1 0x1 PUSH1 0x0 SWAP1 SLOAD SWAP1 PUSH2 0x100 EXP SWAP1 DIV PUSH20 0xFFFFFFFFFFFFFFFFFFFFFFFFFFFFFFFFFFFFFFFF AND PUSH20 0xFFFFFFFFFFFFFFFFFFFFFFFFFFFFFFFFFFFFFFFF AND PUSH4 0xD204C45E CALLVALUE DUP5 DUP7 PUSH1 0x40 MLOAD DUP5 PUSH4 0xFFFFFFFF AND PUSH1 0xE0 SHL DUP2 MSTORE PUSH1 0x4 ADD PUSH2 0x179 SWAP3 SWAP2 SWAP1 PUSH2 0x6F6 JUMP JUMPDEST PUSH1 0x20 PUSH1 0x40 MLOAD DUP1 DUP4 SUB DUP2 DUP6 DUP9 GAS CALL ISZERO DUP1 ISZERO PUSH2 0x197 JUMPI RETURNDATASIZE PUSH1 0x0 DUP1 RETURNDATACOPY RETURNDATASIZE PUSH1 0x0 REVERT JUMPDEST POP POP POP POP POP PUSH1 0x40 MLOAD RETURNDATASIZE PUSH1 0x1F NOT PUSH1 0x1F DUP3 ADD AND DUP3 ADD DUP1 PUSH1 0x40 MSTORE POP DUP2 ADD SWAP1 PUSH2 0x1BC SWAP2 SWAP1 PUSH2 0x73B JUMP JUMPDEST SWAP1 POP PUSH1 0x0 PUSH2 0x1CA PUSH1 0x2 PUSH2 0x2F7 JUMP JUMPDEST SWAP1 POP PUSH2 0x1D6 PUSH1 0x2 PUSH2 0x305 JUMP JUMPDEST PUSH1 0x0 PUSH1 0x40 MLOAD DUP1 PUSH1 0x60 ADD PUSH1 0x40 MSTORE DUP1 DUP9 DUP2 MSTORE PUSH1 0x20 ADD DUP8 DUP2 MSTORE PUSH1 0x20 ADD DUP5 DUP2 MSTORE POP SWAP1 POP DUP1 PUSH1 0x0 DUP1 DUP5 DUP2 MSTORE PUSH1 0x20 ADD SWAP1 DUP2 MSTORE PUSH1 0x20 ADD PUSH1 0x0 KECCAK256 PUSH1 0x0 DUP3 ADD MLOAD DUP2 PUSH1 0x0 ADD SSTORE PUSH1 0x20 DUP3 ADD MLOAD DUP2 PUSH1 0x1 ADD SSTORE PUSH1 0x40 DUP3 ADD MLOAD DUP2 PUSH1 0x2 ADD SSTORE SWAP1 POP POP POP POP POP POP POP POP POP JUMP JUMPDEST PUSH1 0x60 PUSH1 0x0 DUP1 PUSH1 0x0 DUP5 DUP2 MSTORE PUSH1 0x20 ADD SWAP1 DUP2 MSTORE PUSH1 0x20 ADD PUSH1 0x0 KECCAK256 PUSH1 0x2 ADD SLOAD SWAP1 POP PUSH1 0x1 PUSH1 0x0 SWAP1 SLOAD SWAP1 PUSH2 0x100 EXP SWAP1 DIV PUSH20 0xFFFFFFFFFFFFFFFFFFFFFFFFFFFFFFFFFFFFFFFF AND PUSH20 0xFFFFFFFFFFFFFFFFFFFFFFFFFFFFFFFFFFFFFFFF AND PUSH4 0xC87B56DD DUP3 PUSH1 0x40 MLOAD DUP3 PUSH4 0xFFFFFFFF AND PUSH1 0xE0 SHL DUP2 MSTORE PUSH1 0x4 ADD PUSH2 0x2A9 SWAP2 SWAP1 PUSH2 0x777 JUMP JUMPDEST PUSH1 0x0 PUSH1 0x40 MLOAD DUP1 DUP4 SUB DUP2 DUP7 GAS STATICCALL ISZERO DUP1 ISZERO PUSH2 0x2C6 JUMPI RETURNDATASIZE PUSH1 0x0 DUP1 RETURNDATACOPY RETURNDATASIZE PUSH1 0x0 REVERT JUMPDEST POP POP POP POP PUSH1 0x40 MLOAD RETURNDATASIZE PUSH1 0x0 DUP3 RETURNDATACOPY RETURNDATASIZE PUSH1 0x1F NOT PUSH1 0x1F DUP3 ADD AND DUP3 ADD DUP1 PUSH1 0x40 MSTORE POP DUP2 ADD SWAP1 PUSH2 0x2EF SWAP2 SWAP1 PUSH2 0x802 JUMP JUMPDEST SWAP2 POP POP SWAP2 SWAP1 POP JUMP JUMPDEST PUSH1 0x0 DUP2 PUSH1 0x0 ADD SLOAD SWAP1 POP SWAP2 SWAP1 POP JUMP JUMPDEST PUSH1 0x1 DUP2 PUSH1 0x0 ADD PUSH1 0x0 DUP3 DUP3 SLOAD ADD SWAP3 POP POP DUP2 SWAP1 SSTORE POP POP JUMP JUMPDEST PUSH1 0x40 MLOAD DUP1 PUSH1 0x60 ADD PUSH1 0x40 MSTORE DUP1 PUSH1 0x0 DUP2 MSTORE PUSH1 0x20 ADD PUSH1 0x0 DUP2 MSTORE PUSH1 0x20 ADD PUSH1 0x0 DUP2 MSTORE POP SWAP1 JUMP JUMPDEST PUSH1 0x0 PUSH1 0x40 MLOAD SWAP1 POP SWAP1 JUMP JUMPDEST PUSH1 0x0 DUP1 REVERT JUMPDEST PUSH1 0x0 DUP1 REVERT JUMPDEST PUSH1 0x0 DUP2 SWAP1 POP SWAP2 SWAP1 POP JUMP JUMPDEST PUSH2 0x363 DUP2 PUSH2 0x350 JUMP JUMPDEST DUP2 EQ PUSH2 0x36E JUMPI PUSH1 0x0 DUP1 REVERT JUMPDEST POP JUMP JUMPDEST PUSH1 0x0 DUP2 CALLDATALOAD SWAP1 POP PUSH2 0x380 DUP2 PUSH2 0x35A JUMP JUMPDEST SWAP3 SWAP2 POP POP JUMP JUMPDEST PUSH1 0x0 PUSH1 0x20 DUP3 DUP5 SUB SLT ISZERO PUSH2 0x39C JUMPI PUSH2 0x39B PUSH2 0x346 JUMP JUMPDEST JUMPDEST PUSH1 0x0 PUSH2 0x3AA DUP5 DUP3 DUP6 ADD PUSH2 0x371 JUMP JUMPDEST SWAP2 POP POP SWAP3 SWAP2 POP POP JUMP JUMPDEST PUSH2 0x3BC DUP2 PUSH2 0x350 JUMP JUMPDEST DUP3 MSTORE POP POP JUMP JUMPDEST PUSH1 0x60 DUP3 ADD PUSH1 0x0 DUP3 ADD MLOAD PUSH2 0x3D8 PUSH1 0x0 DUP6 ADD DUP3 PUSH2 0x3B3 JUMP JUMPDEST POP PUSH1 0x20 DUP3 ADD MLOAD PUSH2 0x3EB PUSH1 0x20 DUP6 ADD DUP3 PUSH2 0x3B3 JUMP JUMPDEST POP PUSH1 0x40 DUP3 ADD MLOAD PUSH2 0x3FE PUSH1 0x40 DUP6 ADD DUP3 PUSH2 0x3B3 JUMP JUMPDEST POP POP POP POP JUMP JUMPDEST PUSH1 0x0 PUSH1 0x60 DUP3 ADD SWAP1 POP PUSH2 0x419 PUSH1 0x0 DUP4 ADD DUP5 PUSH2 0x3C2 JUMP JUMPDEST SWAP3 SWAP2 POP POP JUMP JUMPDEST PUSH1 0x0 DUP1 REVERT JUMPDEST PUSH1 0x0 DUP1 REVERT JUMPDEST PUSH1 0x0 PUSH1 0x1F NOT PUSH1 0x1F DUP4 ADD AND SWAP1 POP SWAP2 SWAP1 POP JUMP JUMPDEST PUSH32 0x4E487B7100000000000000000000000000000000000000000000000000000000 PUSH1 0x0 MSTORE PUSH1 0x41 PUSH1 0x4 MSTORE PUSH1 0x24 PUSH1 0x0 REVERT JUMPDEST PUSH2 0x472 DUP3 PUSH2 0x429 JUMP JUMPDEST DUP2 ADD DUP2 DUP2 LT PUSH8 0xFFFFFFFFFFFFFFFF DUP3 GT OR ISZERO PUSH2 0x491 JUMPI PUSH2 0x490 PUSH2 0x43A JUMP JUMPDEST JUMPDEST DUP1 PUSH1 0x40 MSTORE POP POP POP JUMP JUMPDEST PUSH1 0x0 PUSH2 0x4A4 PUSH2 0x33C JUMP JUMPDEST SWAP1 POP PUSH2 0x4B0 DUP3 DUP3 PUSH2 0x469 JUMP JUMPDEST SWAP2 SWAP1 POP JUMP JUMPDEST PUSH1 0x0 PUSH8 0xFFFFFFFFFFFFFFFF DUP3 GT ISZERO PUSH2 0x4D0 JUMPI PUSH2 0x4CF PUSH2 0x43A JUMP JUMPDEST JUMPDEST PUSH2 0x4D9 DUP3 PUSH2 0x429 JUMP JUMPDEST SWAP1 POP PUSH1 0x20 DUP2 ADD SWAP1 POP SWAP2 SWAP1 POP JUMP JUMPDEST DUP3 DUP2 DUP4 CALLDATACOPY PUSH1 0x0 DUP4 DUP4 ADD MSTORE POP POP POP JUMP JUMPDEST PUSH1 0x0 PUSH2 0x508 PUSH2 0x503 DUP5 PUSH2 0x4B5 JUMP JUMPDEST PUSH2 0x49A JUMP JUMPDEST SWAP1 POP DUP3 DUP2 MSTORE PUSH1 0x20 DUP2 ADD DUP5 DUP5 DUP5 ADD GT ISZERO PUSH2 0x524 JUMPI PUSH2 0x523 PUSH2 0x424 JUMP JUMPDEST JUMPDEST PUSH2 0x52F DUP5 DUP3 DUP6 PUSH2 0x4E6 JUMP JUMPDEST POP SWAP4 SWAP3 POP POP POP JUMP JUMPDEST PUSH1 0x0 DUP3 PUSH1 0x1F DUP4 ADD SLT PUSH2 0x54C JUMPI PUSH2 0x54B PUSH2 0x41F JUMP JUMPDEST JUMPDEST DUP2 CALLDATALOAD PUSH2 0x55C DUP5 DUP3 PUSH1 0x20 DUP7 ADD PUSH2 0x4F5 JUMP JUMPDEST SWAP2 POP POP SWAP3 SWAP2 POP POP JUMP JUMPDEST PUSH1 0x0 PUSH20 0xFFFFFFFFFFFFFFFFFFFFFFFFFFFFFFFFFFFFFFFF DUP3 AND SWAP1 POP SWAP2 SWAP1 POP JUMP JUMPDEST PUSH1 0x0 PUSH2 0x590 DUP3 PUSH2 0x565 JUMP JUMPDEST SWAP1 POP SWAP2 SWAP1 POP JUMP JUMPDEST PUSH2 0x5A0 DUP2 PUSH2 0x585 JUMP JUMPDEST DUP2 EQ PUSH2 0x5AB JUMPI PUSH1 0x0 DUP1 REVERT JUMPDEST POP JUMP JUMPDEST PUSH1 0x0 DUP2 CALLDATALOAD SWAP1 POP PUSH2 0x5BD DUP2 PUSH2 0x597 JUMP JUMPDEST SWAP3 SWAP2 POP POP JUMP JUMPDEST PUSH1 0x0 DUP1 PUSH1 0x0 DUP1 PUSH1 0x80 DUP6 DUP8 SUB SLT ISZERO PUSH2 0x5DD JUMPI PUSH2 0x5DC PUSH2 0x346 JUMP JUMPDEST JUMPDEST PUSH1 0x0 PUSH2 0x5EB DUP8 DUP3 DUP9 ADD PUSH2 0x371 JUMP JUMPDEST SWAP5 POP POP PUSH1 0x20 PUSH2 0x5FC DUP8 DUP3 DUP9 ADD PUSH2 0x371 JUMP JUMPDEST SWAP4 POP POP PUSH1 0x40 DUP6 ADD CALLDATALOAD PUSH8 0xFFFFFFFFFFFFFFFF DUP2 GT ISZERO PUSH2 0x61D JUMPI PUSH2 0x61C PUSH2 0x34B JUMP JUMPDEST JUMPDEST PUSH2 0x629 DUP8 DUP3 DUP9 ADD PUSH2 0x537 JUMP JUMPDEST SWAP3 POP POP PUSH1 0x60 PUSH2 0x63A DUP8 DUP3 DUP9 ADD PUSH2 0x5AE JUMP JUMPDEST SWAP2 POP POP SWAP3 SWAP6 SWAP2 SWAP5 POP SWAP3 POP JUMP JUMPDEST PUSH1 0x0 DUP2 MLOAD SWAP1 POP SWAP2 SWAP1 POP JUMP JUMPDEST PUSH1 0x0 DUP3 DUP3 MSTORE PUSH1 0x20 DUP3 ADD SWAP1 POP SWAP3 SWAP2 POP POP JUMP JUMPDEST PUSH1 0x0 JUMPDEST DUP4 DUP2 LT ISZERO PUSH2 0x680 JUMPI DUP1 DUP3 ADD MLOAD DUP2 DUP5 ADD MSTORE PUSH1 0x20 DUP2 ADD SWAP1 POP PUSH2 0x665 JUMP JUMPDEST PUSH1 0x0 DUP5 DUP5 ADD MSTORE POP POP POP POP JUMP JUMPDEST PUSH1 0x0 PUSH2 0x697 DUP3 PUSH2 0x646 JUMP JUMPDEST PUSH2 0x6A1 DUP2 DUP6 PUSH2 0x651 JUMP JUMPDEST SWAP4 POP PUSH2 0x6B1 DUP2 DUP6 PUSH1 0x20 DUP7 ADD PUSH2 0x662 JUMP JUMPDEST PUSH2 0x6BA DUP2 PUSH2 0x429 JUMP JUMPDEST DUP5 ADD SWAP2 POP POP SWAP3 SWAP2 POP POP JUMP JUMPDEST PUSH1 0x0 PUSH1 0x20 DUP3 ADD SWAP1 POP DUP2 DUP2 SUB PUSH1 0x0 DUP4 ADD MSTORE PUSH2 0x6DF DUP2 DUP5 PUSH2 0x68C JUMP JUMPDEST SWAP1 POP SWAP3 SWAP2 POP POP JUMP JUMPDEST PUSH2 0x6F0 DUP2 PUSH2 0x585 JUMP JUMPDEST DUP3 MSTORE POP POP JUMP JUMPDEST PUSH1 0x0 PUSH1 0x40 DUP3 ADD SWAP1 POP PUSH2 0x70B PUSH1 0x0 DUP4 ADD DUP6 PUSH2 0x6E7 JUMP JUMPDEST DUP2 DUP2 SUB PUSH1 0x20 DUP4 ADD MSTORE PUSH2 0x71D DUP2 DUP5 PUSH2 0x68C JUMP JUMPDEST SWAP1 POP SWAP4 SWAP3 POP POP POP JUMP JUMPDEST PUSH1 0x0 DUP2 MLOAD SWAP1 POP PUSH2 0x735 DUP2 PUSH2 0x35A JUMP JUMPDEST SWAP3 SWAP2 POP POP JUMP JUMPDEST PUSH1 0x0 PUSH1 0x20 DUP3 DUP5 SUB SLT ISZERO PUSH2 0x751 JUMPI PUSH2 0x750 PUSH2 0x346 JUMP JUMPDEST JUMPDEST PUSH1 0x0 PUSH2 0x75F DUP5 DUP3 DUP6 ADD PUSH2 0x726 JUMP JUMPDEST SWAP2 POP POP SWAP3 SWAP2 POP POP JUMP JUMPDEST PUSH2 0x771 DUP2 PUSH2 0x350 JUMP JUMPDEST DUP3 MSTORE POP POP JUMP JUMPDEST PUSH1 0x0 PUSH1 0x20 DUP3 ADD SWAP1 POP PUSH2 0x78C PUSH1 0x0 DUP4 ADD DUP5 PUSH2 0x768 JUMP JUMPDEST SWAP3 SWAP2 POP POP JUMP JUMPDEST PUSH1 0x0 PUSH2 0x7A5 PUSH2 0x7A0 DUP5 PUSH2 0x4B5 JUMP JUMPDEST PUSH2 0x49A JUMP JUMPDEST SWAP1 POP DUP3 DUP2 MSTORE PUSH1 0x20 DUP2 ADD DUP5 DUP5 DUP5 ADD GT ISZERO PUSH2 0x7C1 JUMPI PUSH2 0x7C0 PUSH2 0x424 JUMP JUMPDEST JUMPDEST PUSH2 0x7CC DUP5 DUP3 DUP6 PUSH2 0x662 JUMP JUMPDEST POP SWAP4 SWAP3 POP POP POP JUMP JUMPDEST PUSH1 0x0 DUP3 PUSH1 0x1F DUP4 ADD SLT PUSH2 0x7E9 JUMPI PUSH2 0x7E8 PUSH2 0x41F JUMP JUMPDEST JUMPDEST DUP2 MLOAD PUSH2 0x7F9 DUP5 DUP3 PUSH1 0x20 DUP7 ADD PUSH2 0x792 JUMP JUMPDEST SWAP2 POP POP SWAP3 SWAP2 POP POP JUMP JUMPDEST PUSH1 0x0 PUSH1 0x20 DUP3 DUP5 SUB SLT ISZERO PUSH2 0x818 JUMPI PUSH2 0x817 PUSH2 0x346 JUMP JUMPDEST JUMPDEST PUSH1 0x0 DUP3 ADD MLOAD PUSH8 0xFFFFFFFFFFFFFFFF DUP2 GT ISZERO PUSH2 0x836 JUMPI PUSH2 0x835 PUSH2 0x34B JUMP JUMPDEST JUMPDEST PUSH2 0x842 DUP5 DUP3 DUP6 ADD PUSH2 0x7D4 JUMP JUMPDEST SWAP2 POP POP SWAP3 SWAP2 POP POP JUMP INVALID LOG2 PUSH5 0x6970667358 0x22 SLT KECCAK256 0xD3 0xF6 MCOPY PUSH28 0x8C97642199A7F6AEE641A662C8775A5862BEF60C7A36F628103D104E PUSH5 0x736F6C6343 STOP ADDMOD NOT STOP CALLER PUSH1 0xE0 PUSH1 0x40 MSTORE PUSH1 0x0 PUSH1 0x3 PUSH1 0x0 PUSH2 0x100 EXP DUP2 SLOAD DUP2 PUSH4 0xFFFFFFFF MUL NOT AND SWAP1 DUP4 PUSH4 0xFFFFFFFF AND MUL OR SWAP1 SSTORE POP PUSH1 0x0 PUSH1 0x3 PUSH1 0x4 PUSH2 0x100 EXP DUP2 SLOAD DUP2 PUSH4 0xFFFFFFFF MUL NOT AND SWAP1 DUP4 PUSH4 0xFFFFFFFF AND MUL OR SWAP1 SSTORE POP PUSH1 0x2 PUSH1 0x8 SSTORE PUSH3 0x3F480 PUSH1 0x9 SSTORE PUSH1 0xA DUP1 SSTORE PUSH1 0x1E PUSH1 0xB SSTORE CALLVALUE DUP1 ISZERO PUSH2 0x69 JUMPI PUSH1 0x0 DUP1 REVERT JUMPDEST POP PUSH1 0x40 MLOAD PUSH2 0x418D CODESIZE SUB DUP1 PUSH2 0x418D DUP4 CODECOPY DUP2 DUP2 ADD PUSH1 0x40 MSTORE DUP2 ADD SWAP1 PUSH2 0x8B SWAP2 SWAP1 PUSH2 0xAC7 JUMP JUMPDEST DUP5 DUP5 PUSH1 0x0 DUP3 PUSH4 0xFFFFFFFF AND GT PUSH2 0xD6 JUMPI PUSH1 0x40 MLOAD PUSH32 0x8C379A000000000000000000000000000000000000000000000000000000000 DUP2 MSTORE PUSH1 0x4 ADD PUSH2 0xCD SWAP1 PUSH2 0xBC5 JUMP JUMPDEST PUSH1 0x40 MLOAD DUP1 SWAP2 SUB SWAP1 REVERT JUMPDEST PUSH1 0x20 DUP3 PUSH4 0xFFFFFFFF AND LT PUSH2 0x11F JUMPI PUSH1 0x40 MLOAD PUSH32 0x8C379A000000000000000000000000000000000000000000000000000000000 DUP2 MSTORE PUSH1 0x4 ADD PUSH2 0x116 SWAP1 PUSH2 0xC31 JUMP JUMPDEST PUSH1 0x40 MLOAD DUP1 SWAP2 SUB SWAP1 REVERT JUMPDEST DUP2 PUSH1 0x3 PUSH1 0x8 PUSH2 0x100 EXP DUP2 SLOAD DUP2 PUSH4 0xFFFFFFFF MUL NOT AND SWAP1 DUP4 PUSH4 0xFFFFFFFF AND MUL OR SWAP1 SSTORE POP DUP1 PUSH20 0xFFFFFFFFFFFFFFFFFFFFFFFFFFFFFFFFFFFFFFFF AND PUSH1 0x80 DUP2 PUSH20 0xFFFFFFFFFFFFFFFFFFFFFFFFFFFFFFFFFFFFFFFF AND DUP2 MSTORE POP POP PUSH1 0x0 JUMPDEST DUP3 PUSH4 0xFFFFFFFF AND DUP2 PUSH4 0xFFFFFFFF AND LT ISZERO PUSH2 0x1C9 JUMPI PUSH2 0x1A0 DUP2 PUSH4 0xFFFFFFFF AND PUSH2 0x2BD PUSH1 0x20 SHL PUSH1 0x20 SHR JUMP JUMPDEST PUSH1 0x0 DUP1 DUP4 PUSH4 0xFFFFFFFF AND DUP2 MSTORE PUSH1 0x20 ADD SWAP1 DUP2 MSTORE PUSH1 0x20 ADD PUSH1 0x0 KECCAK256 DUP2 SWAP1 SSTORE POP DUP1 DUP1 PUSH1 0x1 ADD SWAP2 POP POP PUSH2 0x177 JUMP JUMPDEST POP PUSH2 0x1F1 PUSH1 0x3 PUSH1 0x8 SWAP1 SLOAD SWAP1 PUSH2 0x100 EXP SWAP1 DIV PUSH4 0xFFFFFFFF AND PUSH4 0xFFFFFFFF AND PUSH2 0x2BD PUSH1 0x20 SHL PUSH1 0x20 SHR JUMP JUMPDEST PUSH1 0x1 PUSH1 0x0 DUP1 DUP2 MSTORE PUSH1 0x20 ADD SWAP1 DUP2 MSTORE PUSH1 0x20 ADD PUSH1 0x0 KECCAK256 DUP2 SWAP1 SSTORE POP POP POP DUP3 PUSH20 0xFFFFFFFFFFFFFFFFFFFFFFFFFFFFFFFFFFFFFFFF AND PUSH1 0xA0 DUP2 PUSH20 0xFFFFFFFFFFFFFFFFFFFFFFFFFFFFFFFFFFFFFFFF AND DUP2 MSTORE POP POP DUP2 PUSH20 0xFFFFFFFFFFFFFFFFFFFFFFFFFFFFFFFFFFFFFFFF AND PUSH1 0xC0 DUP2 PUSH20 0xFFFFFFFFFFFFFFFFFFFFFFFFFFFFFFFFFFFFFFFF AND DUP2 MSTORE POP POP DUP1 PUSH1 0xC PUSH1 0x0 PUSH2 0x100 EXP DUP2 SLOAD DUP2 PUSH20 0xFFFFFFFFFFFFFFFFFFFFFFFFFFFFFFFFFFFFFFFF MUL NOT AND SWAP1 DUP4 PUSH20 0xFFFFFFFFFFFFFFFFFFFFFFFFFFFFFFFFFFFFFFFF AND MUL OR SWAP1 SSTORE POP POP POP POP POP POP PUSH2 0xCBD JUMP JUMPDEST PUSH1 0x0 DUP1 DUP3 SUB PUSH2 0x2F1 JUMPI PUSH32 0x2FE54C60D3ACABF3343A35B6EBA15DB4821B340F76E741E2249685ED4899AF6C PUSH1 0x0 SHL SWAP1 POP PUSH2 0x957 JUMP JUMPDEST PUSH1 0x1 DUP3 SUB PUSH2 0x324 JUMPI PUSH32 0x256A6135777EEE2FD26F54B8B7037A25439D5235CAEE224154186D2B8A52E31D PUSH1 0x0 SHL SWAP1 POP PUSH2 0x957 JUMP JUMPDEST PUSH1 0x2 DUP3 SUB PUSH2 0x357 JUMPI PUSH32 0x1151949895E82AB19924DE92C40A3D6F7BCB60D92B00504B8199613683F0C200 PUSH1 0x0 SHL SWAP1 POP PUSH2 0x957 JUMP JUMPDEST PUSH1 0x3 DUP3 SUB PUSH2 0x38A JUMPI PUSH32 0x20121EE811489FF8D61F09FB89E313F14959A0F28BB428A20DBA6B0B068B3BDB PUSH1 0x0 SHL SWAP1 POP PUSH2 0x957 JUMP JUMPDEST PUSH1 0x4 DUP3 SUB PUSH2 0x3BD JUMPI PUSH32 0xA89CA6FFA14CC462CFEDB842C30ED221A50A3D6BF022A6A57DC82AB24C157C9 PUSH1 0x0 SHL SWAP1 POP PUSH2 0x957 JUMP JUMPDEST PUSH1 0x5 DUP3 SUB PUSH2 0x3F0 JUMPI PUSH32 0x24CA05C2B5CD42E890D6BE94C68D0689F4F21C9CEC9C0F13FE41D566DFB54959 PUSH1 0x0 SHL SWAP1 POP PUSH2 0x957 JUMP JUMPDEST PUSH1 0x6 DUP3 SUB PUSH2 0x423 JUMPI PUSH32 0x1CCB97C932565A92C60156BDBA2D08F3BF1377464E025CEE765679E604A7315C PUSH1 0x0 SHL SWAP1 POP PUSH2 0x957 JUMP JUMPDEST PUSH1 0x7 DUP3 SUB PUSH2 0x456 JUMPI PUSH32 0x19156FBD7D1A8BF5CBA8909367DE1B624534EBAB4F0F79E003BCCDD1B182BDB4 PUSH1 0x0 SHL SWAP1 POP PUSH2 0x957 JUMP JUMPDEST PUSH1 0x8 DUP3 SUB PUSH2 0x489 JUMPI PUSH32 0x261AF8C1F0912E465744641409F622D466C3920AC6E5FF37E36604CB11DFFF80 PUSH1 0x0 SHL SWAP1 POP PUSH2 0x957 JUMP JUMPDEST PUSH1 0x9 DUP3 SUB PUSH2 0x4BB JUMPI PUSH31 0x58459724FF6CA5A1652FCBC3E82B93895CF08E975B19BEAB3F54C217D1C007 PUSH1 0x0 SHL SWAP1 POP PUSH2 0x957 JUMP JUMPDEST PUSH1 0xA DUP3 SUB PUSH2 0x4EE JUMPI PUSH32 0x1F04EF20DEE48D39984D8EABE768A70EAFA6310AD20849D4573C3C40C2AD1E30 PUSH1 0x0 SHL SWAP1 POP PUSH2 0x957 JUMP JUMPDEST PUSH1 0xB DUP3 SUB PUSH2 0x521 JUMPI PUSH32 0x1BEA3DEC5DAB51567CE7E200A30F7BA6D4276AEAA53E2686F962A46C66D511E5 PUSH1 0x0 SHL SWAP1 POP PUSH2 0x957 JUMP JUMPDEST PUSH1 0xC DUP3 SUB PUSH2 0x554 JUMPI PUSH32 0xEE0F941E2DA4B9E31C3CA97A40D8FA9CE68D97C084177071B3CB46CD3372F0F PUSH1 0x0 SHL SWAP1 POP PUSH2 0x957 JUMP JUMPDEST PUSH1 0xD DUP3 SUB PUSH2 0x587 JUMPI PUSH32 0x1CA9503E8935884501BBAF20BE14EB4C46B89772C97B96E3B2EBF3A36A948BBD PUSH1 0x0 SHL SWAP1 POP PUSH2 0x957 JUMP JUMPDEST PUSH1 0xE DUP3 SUB PUSH2 0x5BA JUMPI PUSH32 0x133A80E30697CD55D8F7D4B0965B7BE24057BA5DC3DA898EE2187232446CB108 PUSH1 0x0 SHL SWAP1 POP PUSH2 0x957 JUMP JUMPDEST PUSH1 0xF DUP3 SUB PUSH2 0x5ED JUMPI PUSH32 0x13E6D8FC88839ED76E182C2A779AF5B2C0DA9DD18C90427A644F7E148A6253B6 PUSH1 0x0 SHL SWAP1 POP PUSH2 0x957 JUMP JUMPDEST PUSH1 0x10 DUP3 SUB PUSH2 0x620 JUMPI PUSH32 0x1EB16B057A477F4BC8F572EA6BEE39561098F78F15BFB3699DCBB7BD8DB61854 PUSH1 0x0 SHL SWAP1 POP PUSH2 0x957 JUMP JUMPDEST PUSH1 0x11 DUP3 SUB PUSH2 0x653 JUMPI PUSH32 0xDA2CB16A1CEAABF1C16B838F7A9E3F2A3A3088D9E0A6DEBAA748114620696EA PUSH1 0x0 SHL SWAP1 POP PUSH2 0x957 JUMP JUMPDEST PUSH1 0x12 DUP3 SUB PUSH2 0x686 JUMPI PUSH32 0x24A3B3D822420B14B5D8CB6C28A574F01E98EA9E940551D2EBD75CEE12649F9D PUSH1 0x0 SHL SWAP1 POP PUSH2 0x957 JUMP JUMPDEST PUSH1 0x13 DUP3 SUB PUSH2 0x6B9 JUMPI PUSH32 0x198622ACBD783D1B0D9064105B1FC8E4D8889DE95C4C519B3F635809FE6AFC05 PUSH1 0x0 SHL SWAP1 POP PUSH2 0x957 JUMP JUMPDEST PUSH1 0x14 DUP3 SUB PUSH2 0x6EC JUMPI PUSH32 0x29D7ED391256CCC3EA596C86E933B89FF339D25EA8DDCED975AE2FE30B5296D4 PUSH1 0x0 SHL SWAP1 POP PUSH2 0x957 JUMP JUMPDEST PUSH1 0x15 DUP3 SUB PUSH2 0x71F JUMPI PUSH32 0x19BE59F2F0413CE78C0C3703A3A5451B1D7F39629FA33ABD11548A76065B2967 PUSH1 0x0 SHL SWAP1 POP PUSH2 0x957 JUMP JUMPDEST PUSH1 0x16 DUP3 SUB PUSH2 0x752 JUMPI PUSH32 0x1FF3F61797E538B70E619310D33F2A063E7EB59104E112E95738DA1254DC3453 PUSH1 0x0 SHL SWAP1 POP PUSH2 0x957 JUMP JUMPDEST PUSH1 0x17 DUP3 SUB PUSH2 0x785 JUMPI PUSH32 0x10C16AE9959CF8358980D9DD9616E48228737310A10E2B6B731C1A548F036C48 PUSH1 0x0 SHL SWAP1 POP PUSH2 0x957 JUMP JUMPDEST PUSH1 0x18 DUP3 SUB PUSH2 0x7B8 JUMPI PUSH32 0xBA433A63174A90AC20992E75E3095496812B652685B5E1A2EAE0B1BF4E8FCD1 PUSH1 0x0 SHL SWAP1 POP PUSH2 0x957 JUMP JUMPDEST PUSH1 0x19 DUP3 SUB PUSH2 0x7EB JUMPI PUSH32 0x19DDB9DF2BC98D987D0DFECA9D2B643DEAFAB8F7036562E627C3667266A044C PUSH1 0x0 SHL SWAP1 POP PUSH2 0x957 JUMP JUMPDEST PUSH1 0x1A DUP3 SUB PUSH2 0x81E JUMPI PUSH32 0x2D3C88B23175C5A5565DB928414C66D1912B11ACF974B2E644CAAAC04739CE99 PUSH1 0x0 SHL SWAP1 POP PUSH2 0x957 JUMP JUMPDEST PUSH1 0x1B DUP3 SUB PUSH2 0x851 JUMPI PUSH32 0x2EAB55F6AE4E66E32C5189EED5C470840863445760F5ED7E7B69B2A62600F354 PUSH1 0x0 SHL SWAP1 POP PUSH2 0x957 JUMP JUMPDEST PUSH1 0x1C DUP3 SUB PUSH2 0x883 JUMPI PUSH31 0x2DF37A2642621802383CF952BF4DD1F32E05433BEEB1FD41031FB7EACE979D PUSH1 0x0 SHL SWAP1 POP PUSH2 0x957 JUMP JUMPDEST PUSH1 0x1D DUP3 SUB PUSH2 0x8B6 JUMPI PUSH32 0x104AEB41435DB66C3E62FECCC1D6F5D98D0A0ED75D1374DB457CF462E3A1F427 PUSH1 0x0 SHL SWAP1 POP PUSH2 0x957 JUMP JUMPDEST PUSH1 0x1E DUP3 SUB PUSH2 0x8E9 JUMPI PUSH32 0x1F3C6FD858E9A7D4B0D1F38E256A09D81D5A5E3C963987E2D4B814CFAB7C6EBB PUSH1 0x0 SHL SWAP1 POP PUSH2 0x957 JUMP JUMPDEST PUSH1 0x1F DUP3 SUB PUSH2 0x91C JUMPI PUSH32 0x2C7A07D20DFF79D01FECEDC1134284A8D08436606C93693B67E333F671BF69CC PUSH1 0x0 SHL SWAP1 POP PUSH2 0x957 JUMP JUMPDEST PUSH1 0x40 MLOAD PUSH32 0x8C379A000000000000000000000000000000000000000000000000000000000 DUP2 MSTORE PUSH1 0x4 ADD PUSH2 0x94E SWAP1 PUSH2 0xC9D JUMP JUMPDEST PUSH1 0x40 MLOAD DUP1 SWAP2 SUB SWAP1 REVERT JUMPDEST SWAP2 SWAP1 POP JUMP JUMPDEST PUSH1 0x0 DUP1 REVERT JUMPDEST PUSH1 0x0 PUSH4 0xFFFFFFFF DUP3 AND SWAP1 POP SWAP2 SWAP1 POP JUMP JUMPDEST PUSH2 0x97A DUP2 PUSH2 0x961 JUMP JUMPDEST DUP2 EQ PUSH2 0x985 JUMPI PUSH1 0x0 DUP1 REVERT JUMPDEST POP JUMP JUMPDEST PUSH1 0x0 DUP2 MLOAD SWAP1 POP PUSH2 0x997 DUP2 PUSH2 0x971 JUMP JUMPDEST SWAP3 SWAP2 POP POP JUMP JUMPDEST PUSH1 0x0 PUSH20 0xFFFFFFFFFFFFFFFFFFFFFFFFFFFFFFFFFFFFFFFF DUP3 AND SWAP1 POP SWAP2 SWAP1 POP JUMP JUMPDEST PUSH1 0x0 PUSH2 0x9C8 DUP3 PUSH2 0x99D JUMP JUMPDEST SWAP1 POP SWAP2 SWAP1 POP JUMP JUMPDEST PUSH1 0x0 PUSH2 0x9DA DUP3 PUSH2 0x9BD JUMP JUMPDEST SWAP1 POP SWAP2 SWAP1 POP JUMP JUMPDEST PUSH2 0x9EA DUP2 PUSH2 0x9CF JUMP JUMPDEST DUP2 EQ PUSH2 0x9F5 JUMPI PUSH1 0x0 DUP1 REVERT JUMPDEST POP JUMP JUMPDEST PUSH1 0x0 DUP2 MLOAD SWAP1 POP PUSH2 0xA07 DUP2 PUSH2 0x9E1 JUMP JUMPDEST SWAP3 SWAP2 POP POP JUMP JUMPDEST PUSH1 0x0 PUSH2 0xA18 DUP3 PUSH2 0x9BD JUMP JUMPDEST SWAP1 POP SWAP2 SWAP1 POP JUMP JUMPDEST PUSH2 0xA28 DUP2 PUSH2 0xA0D JUMP JUMPDEST DUP2 EQ PUSH2 0xA33 JUMPI PUSH1 0x0 DUP1 REVERT JUMPDEST POP JUMP JUMPDEST PUSH1 0x0 DUP2 MLOAD SWAP1 POP PUSH2 0xA45 DUP2 PUSH2 0xA1F JUMP JUMPDEST SWAP3 SWAP2 POP POP JUMP JUMPDEST PUSH1 0x0 PUSH2 0xA56 DUP3 PUSH2 0x9BD JUMP JUMPDEST SWAP1 POP SWAP2 SWAP1 POP JUMP JUMPDEST PUSH2 0xA66 DUP2 PUSH2 0xA4B JUMP JUMPDEST DUP2 EQ PUSH2 0xA71 JUMPI PUSH1 0x0 DUP1 REVERT JUMPDEST POP JUMP JUMPDEST PUSH1 0x0 DUP2 MLOAD SWAP1 POP PUSH2 0xA83 DUP2 PUSH2 0xA5D JUMP JUMPDEST SWAP3 SWAP2 POP POP JUMP JUMPDEST PUSH1 0x0 PUSH2 0xA94 DUP3 PUSH2 0x9BD JUMP JUMPDEST SWAP1 POP SWAP2 SWAP1 POP JUMP JUMPDEST PUSH2 0xAA4 DUP2 PUSH2 0xA89 JUMP JUMPDEST DUP2 EQ PUSH2 0xAAF JUMPI PUSH1 0x0 DUP1 REVERT JUMPDEST POP JUMP JUMPDEST PUSH1 0x0 DUP2 MLOAD SWAP1 POP PUSH2 0xAC1 DUP2 PUSH2 0xA9B JUMP JUMPDEST SWAP3 SWAP2 POP POP JUMP JUMPDEST PUSH1 0x0 DUP1 PUSH1 0x0 DUP1 PUSH1 0x0 PUSH1 0xA0 DUP7 DUP9 SUB SLT ISZERO PUSH2 0xAE3 JUMPI PUSH2 0xAE2 PUSH2 0x95C JUMP JUMPDEST JUMPDEST PUSH1 0x0 PUSH2 0xAF1 DUP9 DUP3 DUP10 ADD PUSH2 0x988 JUMP JUMPDEST SWAP6 POP POP PUSH1 0x20 PUSH2 0xB02 DUP9 DUP3 DUP10 ADD PUSH2 0x9F8 JUMP JUMPDEST SWAP5 POP POP PUSH1 0x40 PUSH2 0xB13 DUP9 DUP3 DUP10 ADD PUSH2 0xA36 JUMP JUMPDEST SWAP4 POP POP PUSH1 0x60 PUSH2 0xB24 DUP9 DUP3 DUP10 ADD PUSH2 0xA74 JUMP JUMPDEST SWAP3 POP POP PUSH1 0x80 PUSH2 0xB35 DUP9 DUP3 DUP10 ADD PUSH2 0xAB2 JUMP JUMPDEST SWAP2 POP POP SWAP3 SWAP6 POP SWAP3 SWAP6 SWAP1 SWAP4 POP JUMP JUMPDEST PUSH1 0x0 DUP3 DUP3 MSTORE PUSH1 0x20 DUP3 ADD SWAP1 POP SWAP3 SWAP2 POP POP JUMP JUMPDEST PUSH32 0x5F6C6576656C732073686F756C642062652067726561746572207468616E207A PUSH1 0x0 DUP3 ADD MSTORE PUSH32 0x65726F0000000000000000000000000000000000000000000000000000000000 PUSH1 0x20 DUP3 ADD MSTORE POP JUMP JUMPDEST PUSH1 0x0 PUSH2 0xBAF PUSH1 0x23 DUP4 PUSH2 0xB42 JUMP JUMPDEST SWAP2 POP PUSH2 0xBBA DUP3 PUSH2 0xB53 JUMP JUMPDEST PUSH1 0x40 DUP3 ADD SWAP1 POP SWAP2 SWAP1 POP JUMP JUMPDEST PUSH1 0x0 PUSH1 0x20 DUP3 ADD SWAP1 POP DUP2 DUP2 SUB PUSH1 0x0 DUP4 ADD MSTORE PUSH2 0xBDE DUP2 PUSH2 0xBA2 JUMP JUMPDEST SWAP1 POP SWAP2 SWAP1 POP JUMP JUMPDEST PUSH32 0x5F6C6576656C732073686F756C64206265206C657373207468616E2033320000 PUSH1 0x0 DUP3 ADD MSTORE POP JUMP JUMPDEST PUSH1 0x0 PUSH2 0xC1B PUSH1 0x1E DUP4 PUSH2 0xB42 JUMP JUMPDEST SWAP2 POP PUSH2 0xC26 DUP3 PUSH2 0xBE5 JUMP JUMPDEST PUSH1 0x20 DUP3 ADD SWAP1 POP SWAP2 SWAP1 POP JUMP JUMPDEST PUSH1 0x0 PUSH1 0x20 DUP3 ADD SWAP1 POP DUP2 DUP2 SUB PUSH1 0x0 DUP4 ADD MSTORE PUSH2 0xC4A DUP2 PUSH2 0xC0E JUMP JUMPDEST SWAP1 POP SWAP2 SWAP1 POP JUMP JUMPDEST PUSH32 0x496E646578206F7574206F6620626F756E647300000000000000000000000000 PUSH1 0x0 DUP3 ADD MSTORE POP JUMP JUMPDEST PUSH1 0x0 PUSH2 0xC87 PUSH1 0x13 DUP4 PUSH2 0xB42 JUMP JUMPDEST SWAP2 POP PUSH2 0xC92 DUP3 PUSH2 0xC51 JUMP JUMPDEST PUSH1 0x20 DUP3 ADD SWAP1 POP SWAP2 SWAP1 POP JUMP JUMPDEST PUSH1 0x0 PUSH1 0x20 DUP3 ADD SWAP1 POP DUP2 DUP2 SUB PUSH1 0x0 DUP4 ADD MSTORE PUSH2 0xCB6 DUP2 PUSH2 0xC7A JUMP JUMPDEST SWAP1 POP SWAP2 SWAP1 POP JUMP JUMPDEST PUSH1 0x80 MLOAD PUSH1 0xA0 MLOAD PUSH1 0xC0 MLOAD PUSH2 0x3469 PUSH2 0xD24 PUSH1 0x0 CODECOPY PUSH1 0x0 DUP2 DUP2 PUSH2 0x84A ADD MSTORE DUP2 DUP2 PUSH2 0xC9A ADD MSTORE DUP2 DUP2 PUSH2 0x106C ADD MSTORE PUSH2 0x148A ADD MSTORE PUSH1 0x0 DUP2 DUP2 PUSH2 0x5DE ADD MSTORE DUP2 DUP2 PUSH2 0x9BA ADD MSTORE PUSH2 0x11EE ADD MSTORE PUSH1 0x0 DUP2 DUP2 PUSH2 0xE10 ADD MSTORE DUP2 DUP2 PUSH2 0xEEA ADD MSTORE DUP2 DUP2 PUSH2 0x10C9 ADD MSTORE PUSH2 0x1BEC ADD MSTORE PUSH2 0x3469 PUSH1 0x0 RETURN INVALID PUSH1 0x80 PUSH1 0x40 MSTORE CALLVALUE DUP1 ISZERO PUSH2 0x10 JUMPI PUSH1 0x0 DUP1 REVERT JUMPDEST POP PUSH1 0x4 CALLDATASIZE LT PUSH2 0x1A9 JUMPI PUSH1 0x0 CALLDATALOAD PUSH1 0xE0 SHR DUP1 PUSH4 0x90EEB02B GT PUSH2 0xF9 JUMPI DUP1 PUSH4 0xD5803D8C GT PUSH2 0x97 JUMPI DUP1 PUSH4 0xED33639F GT PUSH2 0x71 JUMPI DUP1 PUSH4 0xED33639F EQ PUSH2 0x520 JUMPI DUP1 PUSH4 0xF178E47C EQ PUSH2 0x53E JUMPI DUP1 PUSH4 0xF6B6DD85 EQ PUSH2 0x56E JUMPI DUP1 PUSH4 0xFC7E9C6F EQ PUSH2 0x59E JUMPI PUSH2 0x1A9 JUMP JUMPDEST DUP1 PUSH4 0xD5803D8C EQ PUSH2 0x4B4 JUMPI DUP1 PUSH4 0xE8295588 EQ PUSH2 0x4D2 JUMPI DUP1 PUSH4 0xEC732959 EQ PUSH2 0x502 JUMPI PUSH2 0x1A9 JUMP JUMPDEST DUP1 PUSH4 0xC20654EA GT PUSH2 0xD3 JUMPI DUP1 PUSH4 0xC20654EA EQ PUSH2 0x41A JUMPI DUP1 PUSH4 0xC2B40AE4 EQ PUSH2 0x436 JUMPI DUP1 PUSH4 0xC6062A4D EQ PUSH2 0x466 JUMPI DUP1 PUSH4 0xCD87A3B4 EQ PUSH2 0x496 JUMPI PUSH2 0x1A9 JUMP JUMPDEST DUP1 PUSH4 0x90EEB02B EQ PUSH2 0x3AE JUMPI DUP1 PUSH4 0xB8615EAB EQ PUSH2 0x3CC JUMPI DUP1 PUSH4 0xBA70F757 EQ PUSH2 0x3FC JUMPI PUSH2 0x1A9 JUMP JUMPDEST DUP1 PUSH4 0x4F67886E GT PUSH2 0x166 JUMPI DUP1 PUSH4 0x62EED67A GT PUSH2 0x140 JUMPI DUP1 PUSH4 0x62EED67A EQ PUSH2 0x300 JUMPI DUP1 PUSH4 0x6D9833E3 EQ PUSH2 0x330 JUMPI DUP1 PUSH4 0x6EC6484E EQ PUSH2 0x360 JUMPI DUP1 PUSH4 0x839DF945 EQ PUSH2 0x37E JUMPI PUSH2 0x1A9 JUMP JUMPDEST DUP1 PUSH4 0x4F67886E EQ PUSH2 0x284 JUMPI DUP1 PUSH4 0x571F60F3 EQ PUSH2 0x2B4 JUMPI DUP1 PUSH4 0x5BB93995 EQ PUSH2 0x2D0 JUMPI PUSH2 0x1A9 JUMP JUMPDEST DUP1 PUSH4 0x2997E86B EQ PUSH2 0x1AE JUMPI DUP1 PUSH4 0x2B7AC3F3 EQ PUSH2 0x1DE JUMPI DUP1 PUSH4 0x37A2BC52 EQ PUSH2 0x1FC JUMPI DUP1 PUSH4 0x3807372D EQ PUSH2 0x218 JUMPI DUP1 PUSH4 0x414A37BA EQ PUSH2 0x248 JUMPI DUP1 PUSH4 0x4ECF518B EQ PUSH2 0x266 JUMPI JUMPDEST PUSH1 0x0 DUP1 REVERT JUMPDEST PUSH2 0x1C8 PUSH1 0x4 DUP1 CALLDATASIZE SUB DUP2 ADD SWAP1 PUSH2 0x1C3 SWAP2 SWAP1 PUSH2 0x1EC5 JUMP JUMPDEST PUSH2 0x5BC JUMP JUMPDEST PUSH1 0x40 MLOAD PUSH2 0x1D5 SWAP2 SWAP1 PUSH2 0x1F0D JUMP JUMPDEST PUSH1 0x40 MLOAD DUP1 SWAP2 SUB SWAP1 RETURN JUMPDEST PUSH2 0x1E6 PUSH2 0x5DC JUMP JUMPDEST PUSH1 0x40 MLOAD PUSH2 0x1F3 SWAP2 SWAP1 PUSH2 0x1FA7 JUMP JUMPDEST PUSH1 0x40 MLOAD DUP1 SWAP2 SUB SWAP1 RETURN JUMPDEST PUSH2 0x216 PUSH1 0x4 DUP1 CALLDATASIZE SUB DUP2 ADD SWAP1 PUSH2 0x211 SWAP2 SWAP1 PUSH2 0x1FF8 JUMP JUMPDEST PUSH2 0x600 JUMP JUMPDEST STOP JUMPDEST PUSH2 0x232 PUSH1 0x4 DUP1 CALLDATASIZE SUB DUP2 ADD SWAP1 PUSH2 0x22D SWAP2 SWAP1 PUSH2 0x1EC5 JUMP JUMPDEST PUSH2 0x8F0 JUMP JUMPDEST PUSH1 0x40 MLOAD PUSH2 0x23F SWAP2 SWAP1 PUSH2 0x2047 JUMP JUMPDEST PUSH1 0x40 MLOAD DUP1 SWAP2 SUB SWAP1 RETURN JUMPDEST PUSH2 0x250 PUSH2 0x908 JUMP JUMPDEST PUSH1 0x40 MLOAD PUSH2 0x25D SWAP2 SWAP1 PUSH2 0x2047 JUMP JUMPDEST PUSH1 0x40 MLOAD DUP1 SWAP2 SUB SWAP1 RETURN JUMPDEST PUSH2 0x26E PUSH2 0x92C JUMP JUMPDEST PUSH1 0x40 MLOAD PUSH2 0x27B SWAP2 SWAP1 PUSH2 0x2081 JUMP JUMPDEST PUSH1 0x40 MLOAD DUP1 SWAP2 SUB SWAP1 RETURN JUMPDEST PUSH2 0x29E PUSH1 0x4 DUP1 CALLDATASIZE SUB DUP2 ADD SWAP1 PUSH2 0x299 SWAP2 SWAP1 PUSH2 0x21E2 JUMP JUMPDEST PUSH2 0x942 JUMP JUMPDEST PUSH1 0x40 MLOAD PUSH2 0x2AB SWAP2 SWAP1 PUSH2 0x223A JUMP JUMPDEST PUSH1 0x40 MLOAD DUP1 SWAP2 SUB SWAP1 RETURN JUMPDEST PUSH2 0x2CE PUSH1 0x4 DUP1 CALLDATASIZE SUB DUP2 ADD SWAP1 PUSH2 0x2C9 SWAP2 SWAP1 PUSH2 0x23BC JUMP JUMPDEST PUSH2 0x970 JUMP JUMPDEST STOP JUMPDEST PUSH2 0x2EA PUSH1 0x4 DUP1 CALLDATASIZE SUB DUP2 ADD SWAP1 PUSH2 0x2E5 SWAP2 SWAP1 PUSH2 0x244D JUMP JUMPDEST PUSH2 0xD41 JUMP JUMPDEST PUSH1 0x40 MLOAD PUSH2 0x2F7 SWAP2 SWAP1 PUSH2 0x223A JUMP JUMPDEST PUSH1 0x40 MLOAD DUP1 SWAP2 SUB SWAP1 RETURN JUMPDEST PUSH2 0x31A PUSH1 0x4 DUP1 CALLDATASIZE SUB DUP2 ADD SWAP1 PUSH2 0x315 SWAP2 SWAP1 PUSH2 0x244D JUMP JUMPDEST PUSH2 0xF9C JUMP JUMPDEST PUSH1 0x40 MLOAD PUSH2 0x327 SWAP2 SWAP1 PUSH2 0x223A JUMP JUMPDEST PUSH1 0x40 MLOAD DUP1 SWAP2 SUB SWAP1 RETURN JUMPDEST PUSH2 0x34A PUSH1 0x4 DUP1 CALLDATASIZE SUB DUP2 ADD SWAP1 PUSH2 0x345 SWAP2 SWAP1 PUSH2 0x1EC5 JUMP JUMPDEST PUSH2 0xFCD JUMP JUMPDEST PUSH1 0x40 MLOAD PUSH2 0x357 SWAP2 SWAP1 PUSH2 0x1F0D JUMP JUMPDEST PUSH1 0x40 MLOAD DUP1 SWAP2 SUB SWAP1 RETURN JUMPDEST PUSH2 0x368 PUSH2 0x106A JUMP JUMPDEST PUSH1 0x40 MLOAD PUSH2 0x375 SWAP2 SWAP1 PUSH2 0x24AE JUMP JUMPDEST PUSH1 0x40 MLOAD DUP1 SWAP2 SUB SWAP1 RETURN JUMPDEST PUSH2 0x398 PUSH1 0x4 DUP1 CALLDATASIZE SUB DUP2 ADD SWAP1 PUSH2 0x393 SWAP2 SWAP1 PUSH2 0x1EC5 JUMP JUMPDEST PUSH2 0x108E JUMP JUMPDEST PUSH1 0x40 MLOAD PUSH2 0x3A5 SWAP2 SWAP1 PUSH2 0x1F0D JUMP JUMPDEST PUSH1 0x40 MLOAD DUP1 SWAP2 SUB SWAP1 RETURN JUMPDEST PUSH2 0x3B6 PUSH2 0x10AE JUMP JUMPDEST PUSH1 0x40 MLOAD PUSH2 0x3C3 SWAP2 SWAP1 PUSH2 0x2081 JUMP JUMPDEST PUSH1 0x40 MLOAD DUP1 SWAP2 SUB SWAP1 RETURN JUMPDEST PUSH2 0x3E6 PUSH1 0x4 DUP1 CALLDATASIZE SUB DUP2 ADD SWAP1 PUSH2 0x3E1 SWAP2 SWAP1 PUSH2 0x24C9 JUMP JUMPDEST PUSH2 0x10C4 JUMP JUMPDEST PUSH1 0x40 MLOAD PUSH2 0x3F3 SWAP2 SWAP1 PUSH2 0x2047 JUMP JUMPDEST PUSH1 0x40 MLOAD DUP1 SWAP2 SUB SWAP1 RETURN JUMPDEST PUSH2 0x404 PUSH2 0x1171 JUMP JUMPDEST PUSH1 0x40 MLOAD PUSH2 0x411 SWAP2 SWAP1 PUSH2 0x223A JUMP JUMPDEST PUSH1 0x40 MLOAD DUP1 SWAP2 SUB SWAP1 RETURN JUMPDEST PUSH2 0x434 PUSH1 0x4 DUP1 CALLDATASIZE SUB DUP2 ADD SWAP1 PUSH2 0x42F SWAP2 SWAP1 PUSH2 0x24F6 JUMP JUMPDEST PUSH2 0x11A4 JUMP JUMPDEST STOP JUMPDEST PUSH2 0x450 PUSH1 0x4 DUP1 CALLDATASIZE SUB DUP2 ADD SWAP1 PUSH2 0x44B SWAP2 SWAP1 PUSH2 0x24C9 JUMP JUMPDEST PUSH2 0x13A4 JUMP JUMPDEST PUSH1 0x40 MLOAD PUSH2 0x45D SWAP2 SWAP1 PUSH2 0x223A JUMP JUMPDEST PUSH1 0x40 MLOAD DUP1 SWAP2 SUB SWAP1 RETURN JUMPDEST PUSH2 0x480 PUSH1 0x4 DUP1 CALLDATASIZE SUB DUP2 ADD SWAP1 PUSH2 0x47B SWAP2 SWAP1 PUSH2 0x24C9 JUMP JUMPDEST PUSH2 0x13BC JUMP JUMPDEST PUSH1 0x40 MLOAD PUSH2 0x48D SWAP2 SWAP1 PUSH2 0x2661 JUMP JUMPDEST PUSH1 0x40 MLOAD DUP1 SWAP2 SUB SWAP1 RETURN JUMPDEST PUSH2 0x49E PUSH2 0x1481 JUMP JUMPDEST PUSH1 0x40 MLOAD PUSH2 0x4AB SWAP2 SWAP1 PUSH2 0x2081 JUMP JUMPDEST PUSH1 0x40 MLOAD DUP1 SWAP2 SUB SWAP1 RETURN JUMPDEST PUSH2 0x4BC PUSH2 0x1486 JUMP JUMPDEST PUSH1 0x40 MLOAD PUSH2 0x4C9 SWAP2 SWAP1 PUSH2 0x2047 JUMP JUMPDEST PUSH1 0x40 MLOAD DUP1 SWAP2 SUB SWAP1 RETURN JUMPDEST PUSH2 0x4EC PUSH1 0x4 DUP1 CALLDATASIZE SUB DUP2 ADD SWAP1 PUSH2 0x4E7 SWAP2 SWAP1 PUSH2 0x24C9 JUMP JUMPDEST PUSH2 0x1527 JUMP JUMPDEST PUSH1 0x40 MLOAD PUSH2 0x4F9 SWAP2 SWAP1 PUSH2 0x223A JUMP JUMPDEST PUSH1 0x40 MLOAD DUP1 SWAP2 SUB SWAP1 RETURN JUMPDEST PUSH2 0x50A PUSH2 0x1BC6 JUMP JUMPDEST PUSH1 0x40 MLOAD PUSH2 0x517 SWAP2 SWAP1 PUSH2 0x2047 JUMP JUMPDEST PUSH1 0x40 MLOAD DUP1 SWAP2 SUB SWAP1 RETURN JUMPDEST PUSH2 0x528 PUSH2 0x1BEA JUMP JUMPDEST PUSH1 0x40 MLOAD PUSH2 0x535 SWAP2 SWAP1 PUSH2 0x26A4 JUMP JUMPDEST PUSH1 0x40 MLOAD DUP1 SWAP2 SUB SWAP1 RETURN JUMPDEST PUSH2 0x558 PUSH1 0x4 DUP1 CALLDATASIZE SUB DUP2 ADD SWAP1 PUSH2 0x553 SWAP2 SWAP1 PUSH2 0x24C9 JUMP JUMPDEST PUSH2 0x1C0E JUMP JUMPDEST PUSH1 0x40 MLOAD PUSH2 0x565 SWAP2 SWAP1 PUSH2 0x223A JUMP JUMPDEST PUSH1 0x40 MLOAD DUP1 SWAP2 SUB SWAP1 RETURN JUMPDEST PUSH2 0x588 PUSH1 0x4 DUP1 CALLDATASIZE SUB DUP2 ADD SWAP1 PUSH2 0x583 SWAP2 SWAP1 PUSH2 0x21E2 JUMP JUMPDEST PUSH2 0x1C26 JUMP JUMPDEST PUSH1 0x40 MLOAD PUSH2 0x595 SWAP2 SWAP1 PUSH2 0x1F0D JUMP JUMPDEST PUSH1 0x40 MLOAD DUP1 SWAP2 SUB SWAP1 RETURN JUMPDEST PUSH2 0x5A6 PUSH2 0x1C64 JUMP JUMPDEST PUSH1 0x40 MLOAD PUSH2 0x5B3 SWAP2 SWAP1 PUSH2 0x2081 JUMP JUMPDEST PUSH1 0x40 MLOAD DUP1 SWAP2 SUB SWAP1 RETURN JUMPDEST PUSH1 0x4 PUSH1 0x20 MSTORE DUP1 PUSH1 0x0 MSTORE PUSH1 0x40 PUSH1 0x0 KECCAK256 PUSH1 0x0 SWAP2 POP SLOAD SWAP1 PUSH2 0x100 EXP SWAP1 DIV PUSH1 0xFF AND DUP2 JUMP JUMPDEST PUSH32 0x0 DUP2 JUMP JUMPDEST PUSH1 0x5 PUSH1 0x0 DUP4 DUP2 MSTORE PUSH1 0x20 ADD SWAP1 DUP2 MSTORE PUSH1 0x20 ADD PUSH1 0x0 KECCAK256 PUSH1 0x0 SWAP1 SLOAD SWAP1 PUSH2 0x100 EXP SWAP1 DIV PUSH1 0xFF AND ISZERO PUSH2 0x661 JUMPI PUSH1 0x40 MLOAD PUSH32 0x8C379A000000000000000000000000000000000000000000000000000000000 DUP2 MSTORE PUSH1 0x4 ADD PUSH2 0x658 SWAP1 PUSH2 0x2742 JUMP JUMPDEST PUSH1 0x40 MLOAD DUP1 SWAP2 SUB SWAP1 REVERT JUMPDEST PUSH1 0x0 PUSH1 0xC PUSH1 0x0 SWAP1 SLOAD SWAP1 PUSH2 0x100 EXP SWAP1 DIV PUSH20 0xFFFFFFFFFFFFFFFFFFFFFFFFFFFFFFFFFFFFFFFF AND PUSH20 0xFFFFFFFFFFFFFFFFFFFFFFFFFFFFFFFFFFFFFFFF AND PUSH4 0x2E1F9763 DUP4 PUSH1 0x40 MLOAD DUP3 PUSH4 0xFFFFFFFF AND PUSH1 0xE0 SHL DUP2 MSTORE PUSH1 0x4 ADD PUSH2 0x6BE SWAP2 SWAP1 PUSH2 0x2047 JUMP JUMPDEST PUSH1 0x60 PUSH1 0x40 MLOAD DUP1 DUP4 SUB DUP2 DUP7 GAS STATICCALL ISZERO DUP1 ISZERO PUSH2 0x6DB JUMPI RETURNDATASIZE PUSH1 0x0 DUP1 RETURNDATACOPY RETURNDATASIZE PUSH1 0x0 REVERT JUMPDEST POP POP POP POP PUSH1 0x40 MLOAD RETURNDATASIZE PUSH1 0x1F NOT PUSH1 0x1F DUP3 ADD AND DUP3 ADD DUP1 PUSH1 0x40 MSTORE POP DUP2 ADD SWAP1 PUSH2 0x6FF SWAP2 SWAP1 PUSH2 0x27E0 JUMP JUMPDEST PUSH1 0x0 ADD MLOAD SWAP1 POP PUSH1 0x0 PUSH1 0xC PUSH1 0x0 SWAP1 SLOAD SWAP1 PUSH2 0x100 EXP SWAP1 DIV PUSH20 0xFFFFFFFFFFFFFFFFFFFFFFFFFFFFFFFFFFFFFFFF AND PUSH20 0xFFFFFFFFFFFFFFFFFFFFFFFFFFFFFFFFFFFFFFFF AND PUSH4 0x2E1F9763 DUP5 PUSH1 0x40 MLOAD DUP3 PUSH4 0xFFFFFFFF AND PUSH1 0xE0 SHL DUP2 MSTORE PUSH1 0x4 ADD PUSH2 0x762 SWAP2 SWAP1 PUSH2 0x2047 JUMP JUMPDEST PUSH1 0x60 PUSH1 0x40 MLOAD DUP1 DUP4 SUB DUP2 DUP7 GAS STATICCALL ISZERO DUP1 ISZERO PUSH2 0x77F JUMPI RETURNDATASIZE PUSH1 0x0 DUP1 RETURNDATACOPY RETURNDATASIZE PUSH1 0x0 REVERT JUMPDEST POP POP POP POP PUSH1 0x40 MLOAD RETURNDATASIZE PUSH1 0x1F NOT PUSH1 0x1F DUP3 ADD AND DUP3 ADD DUP1 PUSH1 0x40 MSTORE POP DUP2 ADD SWAP1 PUSH2 0x7A3 SWAP2 SWAP1 PUSH2 0x27E0 JUMP JUMPDEST PUSH1 0x20 ADD MLOAD SWAP1 POP PUSH1 0x0 DUP1 DUP4 DUP4 PUSH2 0x7B8 SWAP2 SWAP1 PUSH2 0x283C JUMP JUMPDEST SUB PUSH2 0x7C6 JUMPI PUSH1 0x0 SWAP1 POP PUSH2 0x7D5 JUMP JUMPDEST DUP3 DUP3 PUSH2 0x7D2 SWAP2 SWAP1 PUSH2 0x283C JUMP JUMPDEST SWAP1 POP JUMPDEST PUSH1 0x1 PUSH1 0x5 PUSH1 0x0 DUP8 DUP2 MSTORE PUSH1 0x20 ADD SWAP1 DUP2 MSTORE PUSH1 0x20 ADD PUSH1 0x0 KECCAK256 PUSH1 0x0 PUSH2 0x100 EXP DUP2 SLOAD DUP2 PUSH1 0xFF MUL NOT AND SWAP1 DUP4 ISZERO ISZERO MUL OR SWAP1 SSTORE POP PUSH1 0x0 PUSH2 0x80C DUP7 PUSH2 0x1C7A JUMP JUMPDEST SWAP1 POP DUP6 PUSH32 0x401999886E5F90A91B92A0BFB7E2D48F714651A4D1C929BB3A753525BA066B91 DUP3 NUMBER PUSH1 0x40 MLOAD PUSH2 0x840 SWAP3 SWAP2 SWAP1 PUSH2 0x2870 JUMP JUMPDEST PUSH1 0x40 MLOAD DUP1 SWAP2 SUB SWAP1 LOG2 PUSH32 0x0 PUSH20 0xFFFFFFFFFFFFFFFFFFFFFFFFFFFFFFFFFFFFFFFF AND PUSH4 0x6C61D60F ADDRESS PUSH8 0xDE0B6B3A7640000 DUP6 PUSH2 0x899 SWAP2 SWAP1 PUSH2 0x2899 JUMP JUMPDEST PUSH1 0x40 MLOAD DUP4 PUSH4 0xFFFFFFFF AND PUSH1 0xE0 SHL DUP2 MSTORE PUSH1 0x4 ADD PUSH2 0x8B6 SWAP3 SWAP2 SWAP1 PUSH2 0x28FC JUMP JUMPDEST PUSH1 0x0 PUSH1 0x40 MLOAD DUP1 DUP4 SUB DUP2 PUSH1 0x0 DUP8 DUP1 EXTCODESIZE ISZERO DUP1 ISZERO PUSH2 0x8D0 JUMPI PUSH1 0x0 DUP1 REVERT JUMPDEST POP GAS CALL ISZERO DUP1 ISZERO PUSH2 0x8E4 JUMPI RETURNDATASIZE PUSH1 0x0 DUP1 RETURNDATACOPY RETURNDATASIZE PUSH1 0x0 REVERT JUMPDEST POP POP POP POP POP POP POP POP POP POP JUMP JUMPDEST PUSH1 0x6 PUSH1 0x20 MSTORE DUP1 PUSH1 0x0 MSTORE PUSH1 0x40 PUSH1 0x0 KECCAK256 PUSH1 0x0 SWAP2 POP SWAP1 POP SLOAD DUP2 JUMP JUMPDEST PUSH32 0x30644E72E131A029B85045B68181585D2833E84879B9709143E1F593F0000001 DUP2 JUMP JUMPDEST PUSH1 0x3 PUSH1 0x8 SWAP1 SLOAD SWAP1 PUSH2 0x100 EXP SWAP1 DIV PUSH4 0xFFFFFFFF AND DUP2 JUMP JUMPDEST PUSH1 0x7 DUP2 DUP1 MLOAD PUSH1 0x20 DUP2 ADD DUP3 ADD DUP1 MLOAD DUP5 DUP3 MSTORE PUSH1 0x20 DUP4 ADD PUSH1 0x20 DUP6 ADD KECCAK256 DUP2 DUP4 MSTORE DUP1 SWAP6 POP POP POP POP POP POP PUSH1 0x0 SWAP2 POP SWAP1 POP SLOAD DUP2 JUMP JUMPDEST PUSH2 0x979 DUP3 PUSH2 0xFCD JUMP JUMPDEST PUSH2 0x9B8 JUMPI PUSH1 0x40 MLOAD PUSH32 0x8C379A000000000000000000000000000000000000000000000000000000000 DUP2 MSTORE PUSH1 0x4 ADD PUSH2 0x9AF SWAP1 PUSH2 0x2971 JUMP JUMPDEST PUSH1 0x40 MLOAD DUP1 SWAP2 SUB SWAP1 REVERT JUMPDEST PUSH32 0x0 PUSH20 0xFFFFFFFFFFFFFFFFFFFFFFFFFFFFFFFFFFFFFFFF AND PUSH4 0xF5C9D69E DUP8 DUP8 DUP8 PUSH1 0x40 MLOAD DUP1 PUSH1 0x40 ADD PUSH1 0x40 MSTORE DUP1 DUP10 PUSH1 0x0 SHR DUP2 MSTORE PUSH1 0x20 ADD DUP9 PUSH1 0x0 SHR DUP2 MSTORE POP PUSH1 0x40 MLOAD DUP6 PUSH4 0xFFFFFFFF AND PUSH1 0xE0 SHL DUP2 MSTORE PUSH1 0x4 ADD PUSH2 0xA31 SWAP5 SWAP4 SWAP3 SWAP2 SWAP1 PUSH2 0x2B3A JUMP JUMPDEST PUSH1 0x20 PUSH1 0x40 MLOAD DUP1 DUP4 SUB DUP2 DUP7 GAS STATICCALL ISZERO DUP1 ISZERO PUSH2 0xA4E JUMPI RETURNDATASIZE PUSH1 0x0 DUP1 RETURNDATACOPY RETURNDATASIZE PUSH1 0x0 REVERT JUMPDEST POP POP POP POP PUSH1 0x40 MLOAD RETURNDATASIZE PUSH1 0x1F NOT PUSH1 0x1F DUP3 ADD AND DUP3 ADD DUP1 PUSH1 0x40 MSTORE POP DUP2 ADD SWAP1 PUSH2 0xA72 SWAP2 SWAP1 PUSH2 0x2BAD JUMP JUMPDEST PUSH2 0xAB1 JUMPI PUSH1 0x40 MLOAD PUSH32 0x8C379A000000000000000000000000000000000000000000000000000000000 DUP2 MSTORE PUSH1 0x4 ADD PUSH2 0xAA8 SWAP1 PUSH2 0x2C26 JUMP JUMPDEST PUSH1 0x40 MLOAD DUP1 SWAP2 SUB SWAP1 REVERT JUMPDEST PUSH1 0x0 DUP1 SHL PUSH1 0x6 PUSH1 0x0 DUP6 DUP2 MSTORE PUSH1 0x20 ADD SWAP1 DUP2 MSTORE PUSH1 0x20 ADD PUSH1 0x0 KECCAK256 SLOAD PUSH1 0x0 SHL SUB PUSH2 0xB0C JUMPI PUSH1 0x40 MLOAD PUSH32 0x8C379A000000000000000000000000000000000000000000000000000000000 DUP2 MSTORE PUSH1 0x4 ADD PUSH2 0xB03 SWAP1 PUSH2 0x2C92 JUMP JUMPDEST PUSH1 0x40 MLOAD DUP1 SWAP2 SUB SWAP1 REVERT JUMPDEST TIMESTAMP PUSH1 0x6 PUSH1 0x0 DUP6 DUP2 MSTORE PUSH1 0x20 ADD SWAP1 DUP2 MSTORE PUSH1 0x20 ADD PUSH1 0x0 KECCAK256 SLOAD LT PUSH2 0xB58 JUMPI PUSH3 0x278D00 PUSH1 0x6 PUSH1 0x0 DUP6 DUP2 MSTORE PUSH1 0x20 ADD SWAP1 DUP2 MSTORE PUSH1 0x20 ADD PUSH1 0x0 KECCAK256 PUSH1 0x0 DUP3 DUP3 SLOAD PUSH2 0xB4C SWAP2 SWAP1 PUSH2 0x283C JUMP JUMPDEST SWAP3 POP POP DUP2 SWAP1 SSTORE POP PUSH2 0xBF4 JUMP JUMPDEST TIMESTAMP PUSH1 0x9 SLOAD PUSH3 0x278D00 PUSH2 0xB6A SWAP2 SWAP1 PUSH2 0x2CB2 JUMP JUMPDEST PUSH1 0x6 PUSH1 0x0 DUP7 DUP2 MSTORE PUSH1 0x20 ADD SWAP1 DUP2 MSTORE PUSH1 0x20 ADD PUSH1 0x0 KECCAK256 SLOAD PUSH2 0xB88 SWAP2 SWAP1 PUSH2 0x283C JUMP JUMPDEST LT PUSH2 0xBB8 JUMPI PUSH3 0x278D00 TIMESTAMP PUSH2 0xB9C SWAP2 SWAP1 PUSH2 0x283C JUMP JUMPDEST PUSH1 0x6 PUSH1 0x0 DUP6 DUP2 MSTORE PUSH1 0x20 ADD SWAP1 DUP2 MSTORE PUSH1 0x20 ADD PUSH1 0x0 KECCAK256 DUP2 SWAP1 SSTORE POP PUSH2 0xBF3 JUMP JUMPDEST PUSH1 0x40 MLOAD PUSH32 0x8C379A000000000000000000000000000000000000000000000000000000000 DUP2 MSTORE PUSH1 0x4 ADD PUSH2 0xBEA SWAP1 PUSH2 0x2D32 JUMP JUMPDEST PUSH1 0x40 MLOAD DUP1 SWAP2 SUB SWAP1 REVERT JUMPDEST JUMPDEST PUSH1 0x0 PUSH1 0xC PUSH1 0x0 SWAP1 SLOAD SWAP1 PUSH2 0x100 EXP SWAP1 DIV PUSH20 0xFFFFFFFFFFFFFFFFFFFFFFFFFFFFFFFFFFFFFFFF AND PUSH20 0xFFFFFFFFFFFFFFFFFFFFFFFFFFFFFFFFFFFFFFFF AND PUSH4 0x2E1F9763 DUP4 PUSH1 0x40 MLOAD DUP3 PUSH4 0xFFFFFFFF AND PUSH1 0xE0 SHL DUP2 MSTORE PUSH1 0x4 ADD PUSH2 0xC51 SWAP2 SWAP1 PUSH2 0x2047 JUMP JUMPDEST PUSH1 0x60 PUSH1 0x40 MLOAD DUP1 DUP4 SUB DUP2 DUP7 GAS STATICCALL ISZERO DUP1 ISZERO PUSH2 0xC6E JUMPI RETURNDATASIZE PUSH1 0x0 DUP1 RETURNDATACOPY RETURNDATASIZE PUSH1 0x0 REVERT JUMPDEST POP POP POP POP PUSH1 0x40 MLOAD RETURNDATASIZE PUSH1 0x1F NOT PUSH1 0x1F DUP3 ADD AND DUP3 ADD DUP1 PUSH1 0x40 MSTORE POP DUP2 ADD SWAP1 PUSH2 0xC92 SWAP2 SWAP1 PUSH2 0x27E0 JUMP JUMPDEST PUSH1 0x20 ADD MLOAD SWAP1 POP PUSH32 0x0 PUSH20 0xFFFFFFFFFFFFFFFFFFFFFFFFFFFFFFFFFFFFFFFF AND PUSH4 0x6C61D60F ADDRESS PUSH8 0xDE0B6B3A7640000 DUP5 PUSH2 0xCE9 SWAP2 SWAP1 PUSH2 0x2899 JUMP JUMPDEST PUSH1 0x40 MLOAD DUP4 PUSH4 0xFFFFFFFF AND PUSH1 0xE0 SHL DUP2 MSTORE PUSH1 0x4 ADD PUSH2 0xD06 SWAP3 SWAP2 SWAP1 PUSH2 0x28FC JUMP JUMPDEST PUSH1 0x0 PUSH1 0x40 MLOAD DUP1 DUP4 SUB DUP2 PUSH1 0x0 DUP8 DUP1 EXTCODESIZE ISZERO DUP1 ISZERO PUSH2 0xD20 JUMPI PUSH1 0x0 DUP1 REVERT JUMPDEST POP GAS CALL ISZERO DUP1 ISZERO PUSH2 0xD34 JUMPI RETURNDATASIZE PUSH1 0x0 DUP1 RETURNDATACOPY RETURNDATASIZE PUSH1 0x0 REVERT JUMPDEST POP POP POP POP POP POP POP POP POP POP POP JUMP JUMPDEST PUSH1 0x0 PUSH32 0x30644E72E131A029B85045B68181585D2833E84879B9709143E1F593F0000001 DUP4 LT PUSH2 0xDA5 JUMPI PUSH1 0x40 MLOAD PUSH32 0x8C379A000000000000000000000000000000000000000000000000000000000 DUP2 MSTORE PUSH1 0x4 ADD PUSH2 0xD9C SWAP1 PUSH2 0x2D9E JUMP JUMPDEST PUSH1 0x40 MLOAD DUP1 SWAP2 SUB SWAP1 REVERT JUMPDEST PUSH32 0x30644E72E131A029B85045B68181585D2833E84879B9709143E1F593F0000001 DUP3 LT PUSH2 0xE07 JUMPI PUSH1 0x40 MLOAD PUSH32 0x8C379A000000000000000000000000000000000000000000000000000000000 DUP2 MSTORE PUSH1 0x4 ADD PUSH2 0xDFE SWAP1 PUSH2 0x2E30 JUMP JUMPDEST PUSH1 0x40 MLOAD DUP1 SWAP2 SUB SWAP1 REVERT JUMPDEST PUSH1 0x0 DUP4 SWAP1 POP PUSH1 0x0 PUSH32 0x0 PUSH20 0xFFFFFFFFFFFFFFFFFFFFFFFFFFFFFFFFFFFFFFFF AND PUSH4 0x3F1A1187 DUP4 DUP4 PUSH1 0x0 PUSH1 0x40 MLOAD DUP5 PUSH4 0xFFFFFFFF AND PUSH1 0xE0 SHL DUP2 MSTORE PUSH1 0x4 ADD PUSH2 0xE6C SWAP4 SWAP3 SWAP2 SWAP1 PUSH2 0x2E8B JUMP JUMPDEST PUSH1 0x40 DUP1 MLOAD DUP1 DUP4 SUB DUP2 DUP7 GAS STATICCALL ISZERO DUP1 ISZERO PUSH2 0xE88 JUMPI RETURNDATASIZE PUSH1 0x0 DUP1 RETURNDATACOPY RETURNDATASIZE PUSH1 0x0 REVERT JUMPDEST POP POP POP POP PUSH1 0x40 MLOAD RETURNDATASIZE PUSH1 0x1F NOT PUSH1 0x1F DUP3 ADD AND DUP3 ADD DUP1 PUSH1 0x40 MSTORE POP DUP2 ADD SWAP1 PUSH2 0xEAC SWAP2 SWAP1 PUSH2 0x2EC2 JUMP JUMPDEST DUP1 SWAP3 POP DUP2 SWAP4 POP POP POP PUSH32 0x30644E72E131A029B85045B68181585D2833E84879B9709143E1F593F0000001 DUP1 PUSH2 0xEE3 JUMPI PUSH2 0xEE2 PUSH2 0x2F02 JUMP JUMPDEST JUMPDEST DUP5 DUP4 ADDMOD SWAP2 POP PUSH32 0x0 PUSH20 0xFFFFFFFFFFFFFFFFFFFFFFFFFFFFFFFFFFFFFFFF AND PUSH4 0x3F1A1187 DUP4 DUP4 PUSH1 0x0 PUSH1 0x40 MLOAD DUP5 PUSH4 0xFFFFFFFF AND PUSH1 0xE0 SHL DUP2 MSTORE PUSH1 0x4 ADD PUSH2 0xF46 SWAP4 SWAP3 SWAP2 SWAP1 PUSH2 0x2E8B JUMP JUMPDEST PUSH1 0x40 DUP1 MLOAD DUP1 DUP4 SUB DUP2 DUP7 GAS STATICCALL ISZERO DUP1 ISZERO PUSH2 0xF62 JUMPI RETURNDATASIZE PUSH1 0x0 DUP1 RETURNDATACOPY RETURNDATASIZE PUSH1 0x0 REVERT JUMPDEST POP POP POP POP PUSH1 0x40 MLOAD RETURNDATASIZE PUSH1 0x1F NOT PUSH1 0x1F DUP3 ADD AND DUP3 ADD DUP1 PUSH1 0x40 MSTORE POP DUP2 ADD SWAP1 PUSH2 0xF86 SWAP2 SWAP1 PUSH2 0x2EC2 JUMP JUMPDEST DUP1 SWAP3 POP DUP2 SWAP4 POP POP POP DUP2 PUSH1 0x0 SHL SWAP3 POP POP POP SWAP3 SWAP2 POP POP JUMP JUMPDEST PUSH1 0x2 PUSH1 0x20 MSTORE DUP2 PUSH1 0x0 MSTORE PUSH1 0x40 PUSH1 0x0 KECCAK256 DUP2 DUP2 SLOAD DUP2 LT PUSH2 0xFB8 JUMPI PUSH1 0x0 DUP1 REVERT JUMPDEST SWAP1 PUSH1 0x0 MSTORE PUSH1 0x20 PUSH1 0x0 KECCAK256 ADD PUSH1 0x0 SWAP2 POP SWAP2 POP POP SLOAD DUP2 JUMP JUMPDEST PUSH1 0x0 DUP1 PUSH1 0x0 SHL DUP3 SUB PUSH2 0xFE2 JUMPI PUSH1 0x0 SWAP1 POP PUSH2 0x1065 JUMP JUMPDEST PUSH1 0x0 PUSH1 0x3 PUSH1 0x0 SWAP1 SLOAD SWAP1 PUSH2 0x100 EXP SWAP1 DIV PUSH4 0xFFFFFFFF AND SWAP1 POP PUSH1 0x0 DUP2 SWAP1 POP JUMPDEST PUSH1 0x1 PUSH1 0x0 DUP3 PUSH4 0xFFFFFFFF AND DUP2 MSTORE PUSH1 0x20 ADD SWAP1 DUP2 MSTORE PUSH1 0x20 ADD PUSH1 0x0 KECCAK256 SLOAD DUP5 SUB PUSH2 0x102A JUMPI PUSH1 0x1 SWAP3 POP POP POP PUSH2 0x1065 JUMP JUMPDEST PUSH1 0x0 DUP2 PUSH4 0xFFFFFFFF AND SUB PUSH2 0x103D JUMPI PUSH1 0x1E SWAP1 POP JUMPDEST DUP1 DUP1 PUSH2 0x1048 SWAP1 PUSH2 0x2F31 JUMP JUMPDEST SWAP2 POP POP DUP2 PUSH4 0xFFFFFFFF AND DUP2 PUSH4 0xFFFFFFFF AND SUB PUSH2 0xFFF JUMPI PUSH1 0x0 SWAP3 POP POP POP JUMPDEST SWAP2 SWAP1 POP JUMP JUMPDEST PUSH32 0x0 DUP2 JUMP JUMPDEST PUSH1 0x5 PUSH1 0x20 MSTORE DUP1 PUSH1 0x0 MSTORE PUSH1 0x40 PUSH1 0x0 KECCAK256 PUSH1 0x0 SWAP2 POP SLOAD SWAP1 PUSH2 0x100 EXP SWAP1 DIV PUSH1 0xFF AND DUP2 JUMP JUMPDEST PUSH1 0x3 PUSH1 0x0 SWAP1 SLOAD SWAP1 PUSH2 0x100 EXP SWAP1 DIV PUSH4 0xFFFFFFFF AND DUP2 JUMP JUMPDEST PUSH1 0x0 DUP1 PUSH32 0x0 PUSH20 0xFFFFFFFFFFFFFFFFFFFFFFFFFFFFFFFFFFFFFFFF AND PUSH4 0x3F1A1187 DUP5 PUSH1 0x0 DUP1 PUSH1 0x40 MLOAD DUP5 PUSH4 0xFFFFFFFF AND PUSH1 0xE0 SHL DUP2 MSTORE PUSH1 0x4 ADD PUSH2 0x1125 SWAP4 SWAP3 SWAP2 SWAP1 PUSH2 0x2F5A JUMP JUMPDEST PUSH1 0x40 DUP1 MLOAD DUP1 DUP4 SUB DUP2 DUP7 GAS STATICCALL ISZERO DUP1 ISZERO PUSH2 0x1141 JUMPI RETURNDATASIZE PUSH1 0x0 DUP1 RETURNDATACOPY RETURNDATASIZE PUSH1 0x0 REVERT JUMPDEST POP POP POP POP PUSH1 0x40 MLOAD RETURNDATASIZE PUSH1 0x1F NOT PUSH1 0x1F DUP3 ADD AND DUP3 ADD DUP1 PUSH1 0x40 MSTORE POP DUP2 ADD SWAP1 PUSH2 0x1165 SWAP2 SWAP1 PUSH2 0x2EC2 JUMP JUMPDEST POP SWAP1 POP DUP1 SWAP2 POP POP SWAP2 SWAP1 POP JUMP JUMPDEST PUSH1 0x0 PUSH1 0x1 PUSH1 0x0 PUSH1 0x3 PUSH1 0x0 SWAP1 SLOAD SWAP1 PUSH2 0x100 EXP SWAP1 DIV PUSH4 0xFFFFFFFF AND PUSH4 0xFFFFFFFF AND DUP2 MSTORE PUSH1 0x20 ADD SWAP1 DUP2 MSTORE PUSH1 0x20 ADD PUSH1 0x0 KECCAK256 SLOAD SWAP1 POP SWAP1 JUMP JUMPDEST PUSH2 0x11AD DUP3 PUSH2 0xFCD JUMP JUMPDEST PUSH2 0x11EC JUMPI PUSH1 0x40 MLOAD PUSH32 0x8C379A000000000000000000000000000000000000000000000000000000000 DUP2 MSTORE PUSH1 0x4 ADD PUSH2 0x11E3 SWAP1 PUSH2 0x2971 JUMP JUMPDEST PUSH1 0x40 MLOAD DUP1 SWAP2 SUB SWAP1 REVERT JUMPDEST PUSH32 0x0 PUSH20 0xFFFFFFFFFFFFFFFFFFFFFFFFFFFFFFFFFFFFFFFF AND PUSH4 0xF5C9D69E DUP8 DUP8 DUP8 PUSH1 0x40 MLOAD DUP1 PUSH1 0x40 ADD PUSH1 0x40 MSTORE DUP1 DUP10 PUSH1 0x0 SHR DUP2 MSTORE PUSH1 0x20 ADD DUP9 PUSH1 0x0 SHR DUP2 MSTORE POP PUSH1 0x40 MLOAD DUP6 PUSH4 0xFFFFFFFF AND PUSH1 0xE0 SHL DUP2 MSTORE PUSH1 0x4 ADD PUSH2 0x1265 SWAP5 SWAP4 SWAP3 SWAP2 SWAP1 PUSH2 0x2B3A JUMP JUMPDEST PUSH1 0x20 PUSH1 0x40 MLOAD DUP1 DUP4 SUB DUP2 DUP7 GAS STATICCALL ISZERO DUP1 ISZERO PUSH2 0x1282 JUMPI RETURNDATASIZE PUSH1 0x0 DUP1 RETURNDATACOPY RETURNDATASIZE PUSH1 0x0 REVERT JUMPDEST POP POP POP POP PUSH1 0x40 MLOAD RETURNDATASIZE PUSH1 0x1F NOT PUSH1 0x1F DUP3 ADD AND DUP3 ADD DUP1 PUSH1 0x40 MSTORE POP DUP2 ADD SWAP1 PUSH2 0x12A6 SWAP2 SWAP1 PUSH2 0x2BAD JUMP JUMPDEST PUSH2 0x12E5 JUMPI PUSH1 0x40 MLOAD PUSH32 0x8C379A000000000000000000000000000000000000000000000000000000000 DUP2 MSTORE PUSH1 0x4 ADD PUSH2 0x12DC SWAP1 PUSH2 0x2C26 JUMP JUMPDEST PUSH1 0x40 MLOAD DUP1 SWAP2 SUB SWAP1 REVERT JUMPDEST PUSH1 0x0 DUP1 SHL PUSH1 0x6 PUSH1 0x0 DUP6 DUP2 MSTORE PUSH1 0x20 ADD SWAP1 DUP2 MSTORE PUSH1 0x20 ADD PUSH1 0x0 KECCAK256 SLOAD PUSH1 0x0 SHL EQ PUSH2 0x1340 JUMPI PUSH1 0x40 MLOAD PUSH32 0x8C379A000000000000000000000000000000000000000000000000000000000 DUP2 MSTORE PUSH1 0x4 ADD PUSH2 0x1337 SWAP1 PUSH2 0x2FDD JUMP JUMPDEST PUSH1 0x40 MLOAD DUP1 SWAP2 SUB SWAP1 REVERT JUMPDEST DUP3 PUSH1 0x7 DUP3 PUSH1 0x40 MLOAD PUSH2 0x1351 SWAP2 SWAP1 PUSH2 0x306E JUMP JUMPDEST SWAP1 DUP2 MSTORE PUSH1 0x20 ADD PUSH1 0x40 MLOAD DUP1 SWAP2 SUB SWAP1 KECCAK256 DUP2 SWAP1 SSTORE POP PUSH1 0x0 PUSH1 0x9 SLOAD PUSH3 0x278D00 TIMESTAMP PUSH2 0x1377 SWAP2 SWAP1 PUSH2 0x283C JUMP JUMPDEST PUSH2 0x1381 SWAP2 SWAP1 PUSH2 0x283C JUMP JUMPDEST SWAP1 POP DUP1 PUSH1 0x6 PUSH1 0x0 DUP7 DUP2 MSTORE PUSH1 0x20 ADD SWAP1 DUP2 MSTORE PUSH1 0x20 ADD PUSH1 0x0 KECCAK256 DUP2 SWAP1 SSTORE POP POP POP POP POP POP POP POP JUMP JUMPDEST PUSH1 0x1 PUSH1 0x20 MSTORE DUP1 PUSH1 0x0 MSTORE PUSH1 0x40 PUSH1 0x0 KECCAK256 PUSH1 0x0 SWAP2 POP SWAP1 POP SLOAD DUP2 JUMP JUMPDEST PUSH1 0x60 PUSH1 0x3 PUSH1 0x8 SWAP1 SLOAD SWAP1 PUSH2 0x100 EXP SWAP1 DIV PUSH4 0xFFFFFFFF AND PUSH4 0xFFFFFFFF AND DUP3 LT PUSH2 0x1418 JUMPI PUSH1 0x40 MLOAD PUSH32 0x8C379A000000000000000000000000000000000000000000000000000000000 DUP2 MSTORE PUSH1 0x4 ADD PUSH2 0x140F SWAP1 PUSH2 0x30D1 JUMP JUMPDEST PUSH1 0x40 MLOAD DUP1 SWAP2 SUB SWAP1 REVERT JUMPDEST PUSH1 0x2 PUSH1 0x0 DUP4 DUP2 MSTORE PUSH1 0x20 ADD SWAP1 DUP2 MSTORE PUSH1 0x20 ADD PUSH1 0x0 KECCAK256 DUP1 SLOAD DUP1 PUSH1 0x20 MUL PUSH1 0x20 ADD PUSH1 0x40 MLOAD SWAP1 DUP2 ADD PUSH1 0x40 MSTORE DUP1 SWAP3 SWAP2 SWAP1 DUP2 DUP2 MSTORE PUSH1 0x20 ADD DUP3 DUP1 SLOAD DUP1 ISZERO PUSH2 0x1475 JUMPI PUSH1 0x20 MUL DUP3 ADD SWAP2 SWAP1 PUSH1 0x0 MSTORE PUSH1 0x20 PUSH1 0x0 KECCAK256 SWAP1 JUMPDEST DUP2 SLOAD DUP2 MSTORE PUSH1 0x20 ADD SWAP1 PUSH1 0x1 ADD SWAP1 DUP1 DUP4 GT PUSH2 0x1461 JUMPI JUMPDEST POP POP POP POP POP SWAP1 POP SWAP2 SWAP1 POP JUMP JUMPDEST PUSH1 0x1E DUP2 JUMP JUMPDEST PUSH1 0x0 PUSH32 0x0 PUSH20 0xFFFFFFFFFFFFFFFFFFFFFFFFFFFFFFFFFFFFFFFF AND PUSH4 0x70A08231 ADDRESS PUSH1 0x40 MLOAD DUP3 PUSH4 0xFFFFFFFF AND PUSH1 0xE0 SHL DUP2 MSTORE PUSH1 0x4 ADD PUSH2 0x14E1 SWAP2 SWAP1 PUSH2 0x30F1 JUMP JUMPDEST PUSH1 0x20 PUSH1 0x40 MLOAD DUP1 DUP4 SUB DUP2 DUP7 GAS STATICCALL ISZERO DUP1 ISZERO PUSH2 0x14FE JUMPI RETURNDATASIZE PUSH1 0x0 DUP1 RETURNDATACOPY RETURNDATASIZE PUSH1 0x0 REVERT JUMPDEST POP POP POP POP PUSH1 0x40 MLOAD RETURNDATASIZE PUSH1 0x1F NOT PUSH1 0x1F DUP3 ADD AND DUP3 ADD DUP1 PUSH1 0x40 MSTORE POP DUP2 ADD SWAP1 PUSH2 0x1522 SWAP2 SWAP1 PUSH2 0x310C JUMP JUMPDEST SWAP1 POP SWAP1 JUMP JUMPDEST PUSH1 0x0 DUP1 DUP3 SUB PUSH2 0x155B JUMPI PUSH32 0x2FE54C60D3ACABF3343A35B6EBA15DB4821B340F76E741E2249685ED4899AF6C PUSH1 0x0 SHL SWAP1 POP PUSH2 0x1BC1 JUMP JUMPDEST PUSH1 0x1 DUP3 SUB PUSH2 0x158E JUMPI PUSH32 0x256A6135777EEE2FD26F54B8B7037A25439D5235CAEE224154186D2B8A52E31D PUSH1 0x0 SHL SWAP1 POP PUSH2 0x1BC1 JUMP JUMPDEST PUSH1 0x2 DUP3 SUB PUSH2 0x15C1 JUMPI PUSH32 0x1151949895E82AB19924DE92C40A3D6F7BCB60D92B00504B8199613683F0C200 PUSH1 0x0 SHL SWAP1 POP PUSH2 0x1BC1 JUMP JUMPDEST PUSH1 0x3 DUP3 SUB PUSH2 0x15F4 JUMPI PUSH32 0x20121EE811489FF8D61F09FB89E313F14959A0F28BB428A20DBA6B0B068B3BDB PUSH1 0x0 SHL SWAP1 POP PUSH2 0x1BC1 JUMP JUMPDEST PUSH1 0x4 DUP3 SUB PUSH2 0x1627 JUMPI PUSH32 0xA89CA6FFA14CC462CFEDB842C30ED221A50A3D6BF022A6A57DC82AB24C157C9 PUSH1 0x0 SHL SWAP1 POP PUSH2 0x1BC1 JUMP JUMPDEST PUSH1 0x5 DUP3 SUB PUSH2 0x165A JUMPI PUSH32 0x24CA05C2B5CD42E890D6BE94C68D0689F4F21C9CEC9C0F13FE41D566DFB54959 PUSH1 0x0 SHL SWAP1 POP PUSH2 0x1BC1 JUMP JUMPDEST PUSH1 0x6 DUP3 SUB PUSH2 0x168D JUMPI PUSH32 0x1CCB97C932565A92C60156BDBA2D08F3BF1377464E025CEE765679E604A7315C PUSH1 0x0 SHL SWAP1 POP PUSH2 0x1BC1 JUMP JUMPDEST PUSH1 0x7 DUP3 SUB PUSH2 0x16C0 JUMPI PUSH32 0x19156FBD7D1A8BF5CBA8909367DE1B624534EBAB4F0F79E003BCCDD1B182BDB4 PUSH1 0x0 SHL SWAP1 POP PUSH2 0x1BC1 JUMP JUMPDEST PUSH1 0x8 DUP3 SUB PUSH2 0x16F3 JUMPI PUSH32 0x261AF8C1F0912E465744641409F622D466C3920AC6E5FF37E36604CB11DFFF80 PUSH1 0x0 SHL SWAP1 POP PUSH2 0x1BC1 JUMP JUMPDEST PUSH1 0x9 DUP3 SUB PUSH2 0x1725 JUMPI PUSH31 0x58459724FF6CA5A1652FCBC3E82B93895CF08E975B19BEAB3F54C217D1C007 PUSH1 0x0 SHL SWAP1 POP PUSH2 0x1BC1 JUMP JUMPDEST PUSH1 0xA DUP3 SUB PUSH2 0x1758 JUMPI PUSH32 0x1F04EF20DEE48D39984D8EABE768A70EAFA6310AD20849D4573C3C40C2AD1E30 PUSH1 0x0 SHL SWAP1 POP PUSH2 0x1BC1 JUMP JUMPDEST PUSH1 0xB DUP3 SUB PUSH2 0x178B JUMPI PUSH32 0x1BEA3DEC5DAB51567CE7E200A30F7BA6D4276AEAA53E2686F962A46C66D511E5 PUSH1 0x0 SHL SWAP1 POP PUSH2 0x1BC1 JUMP JUMPDEST PUSH1 0xC DUP3 SUB PUSH2 0x17BE JUMPI PUSH32 0xEE0F941E2DA4B9E31C3CA97A40D8FA9CE68D97C084177071B3CB46CD3372F0F PUSH1 0x0 SHL SWAP1 POP PUSH2 0x1BC1 JUMP JUMPDEST PUSH1 0xD DUP3 SUB PUSH2 0x17F1 JUMPI PUSH32 0x1CA9503E8935884501BBAF20BE14EB4C46B89772C97B96E3B2EBF3A36A948BBD PUSH1 0x0 SHL SWAP1 POP PUSH2 0x1BC1 JUMP JUMPDEST PUSH1 0xE DUP3 SUB PUSH2 0x1824 JUMPI PUSH32 0x133A80E30697CD55D8F7D4B0965B7BE24057BA5DC3DA898EE2187232446CB108 PUSH1 0x0 SHL SWAP1 POP PUSH2 0x1BC1 JUMP JUMPDEST PUSH1 0xF DUP3 SUB PUSH2 0x1857 JUMPI PUSH32 0x13E6D8FC88839ED76E182C2A779AF5B2C0DA9DD18C90427A644F7E148A6253B6 PUSH1 0x0 SHL SWAP1 POP PUSH2 0x1BC1 JUMP JUMPDEST PUSH1 0x10 DUP3 SUB PUSH2 0x188A JUMPI PUSH32 0x1EB16B057A477F4BC8F572EA6BEE39561098F78F15BFB3699DCBB7BD8DB61854 PUSH1 0x0 SHL SWAP1 POP PUSH2 0x1BC1 JUMP JUMPDEST PUSH1 0x11 DUP3 SUB PUSH2 0x18BD JUMPI PUSH32 0xDA2CB16A1CEAABF1C16B838F7A9E3F2A3A3088D9E0A6DEBAA748114620696EA PUSH1 0x0 SHL SWAP1 POP PUSH2 0x1BC1 JUMP JUMPDEST PUSH1 0x12 DUP3 SUB PUSH2 0x18F0 JUMPI PUSH32 0x24A3B3D822420B14B5D8CB6C28A574F01E98EA9E940551D2EBD75CEE12649F9D PUSH1 0x0 SHL SWAP1 POP PUSH2 0x1BC1 JUMP JUMPDEST PUSH1 0x13 DUP3 SUB PUSH2 0x1923 JUMPI PUSH32 0x198622ACBD783D1B0D9064105B1FC8E4D8889DE95C4C519B3F635809FE6AFC05 PUSH1 0x0 SHL SWAP1 POP PUSH2 0x1BC1 JUMP JUMPDEST PUSH1 0x14 DUP3 SUB PUSH2 0x1956 JUMPI PUSH32 0x29D7ED391256CCC3EA596C86E933B89FF339D25EA8DDCED975AE2FE30B5296D4 PUSH1 0x0 SHL SWAP1 POP PUSH2 0x1BC1 JUMP JUMPDEST PUSH1 0x15 DUP3 SUB PUSH2 0x1989 JUMPI PUSH32 0x19BE59F2F0413CE78C0C3703A3A5451B1D7F39629FA33ABD11548A76065B2967 PUSH1 0x0 SHL SWAP1 POP PUSH2 0x1BC1 JUMP JUMPDEST PUSH1 0x16 DUP3 SUB PUSH2 0x19BC JUMPI PUSH32 0x1FF3F61797E538B70E619310D33F2A063E7EB59104E112E95738DA1254DC3453 PUSH1 0x0 SHL SWAP1 POP PUSH2 0x1BC1 JUMP JUMPDEST PUSH1 0x17 DUP3 SUB PUSH2 0x19EF JUMPI PUSH32 0x10C16AE9959CF8358980D9DD9616E48228737310A10E2B6B731C1A548F036C48 PUSH1 0x0 SHL SWAP1 POP PUSH2 0x1BC1 JUMP JUMPDEST PUSH1 0x18 DUP3 SUB PUSH2 0x1A22 JUMPI PUSH32 0xBA433A63174A90AC20992E75E3095496812B652685B5E1A2EAE0B1BF4E8FCD1 PUSH1 0x0 SHL SWAP1 POP PUSH2 0x1BC1 JUMP JUMPDEST PUSH1 0x19 DUP3 SUB PUSH2 0x1A55 JUMPI PUSH32 0x19DDB9DF2BC98D987D0DFECA9D2B643DEAFAB8F7036562E627C3667266A044C PUSH1 0x0 SHL SWAP1 POP PUSH2 0x1BC1 JUMP JUMPDEST PUSH1 0x1A DUP3 SUB PUSH2 0x1A88 JUMPI PUSH32 0x2D3C88B23175C5A5565DB928414C66D1912B11ACF974B2E644CAAAC04739CE99 PUSH1 0x0 SHL SWAP1 POP PUSH2 0x1BC1 JUMP JUMPDEST PUSH1 0x1B DUP3 SUB PUSH2 0x1ABB JUMPI PUSH32 0x2EAB55F6AE4E66E32C5189EED5C470840863445760F5ED7E7B69B2A62600F354 PUSH1 0x0 SHL SWAP1 POP PUSH2 0x1BC1 JUMP JUMPDEST PUSH1 0x1C DUP3 SUB PUSH2 0x1AED JUMPI PUSH31 0x2DF37A2642621802383CF952BF4DD1F32E05433BEEB1FD41031FB7EACE979D PUSH1 0x0 SHL SWAP1 POP PUSH2 0x1BC1 JUMP JUMPDEST PUSH1 0x1D DUP3 SUB PUSH2 0x1B20 JUMPI PUSH32 0x104AEB41435DB66C3E62FECCC1D6F5D98D0A0ED75D1374DB457CF462E3A1F427 PUSH1 0x0 SHL SWAP1 POP PUSH2 0x1BC1 JUMP JUMPDEST PUSH1 0x1E DUP3 SUB PUSH2 0x1B53 JUMPI PUSH32 0x1F3C6FD858E9A7D4B0D1F38E256A09D81D5A5E3C963987E2D4B814CFAB7C6EBB PUSH1 0x0 SHL SWAP1 POP PUSH2 0x1BC1 JUMP JUMPDEST PUSH1 0x1F DUP3 SUB PUSH2 0x1B86 JUMPI PUSH32 0x2C7A07D20DFF79D01FECEDC1134284A8D08436606C93693B67E333F671BF69CC PUSH1 0x0 SHL SWAP1 POP PUSH2 0x1BC1 JUMP JUMPDEST PUSH1 0x40 MLOAD PUSH32 0x8C379A000000000000000000000000000000000000000000000000000000000 DUP2 MSTORE PUSH1 0x4 ADD PUSH2 0x1BB8 SWAP1 PUSH2 0x3185 JUMP JUMPDEST PUSH1 0x40 MLOAD DUP1 SWAP2 SUB SWAP1 REVERT JUMPDEST SWAP2 SWAP1 POP JUMP JUMPDEST PUSH32 0x2FE54C60D3ACABF3343A35B6EBA15DB4821B340F76E741E2249685ED4899AF6C DUP2 JUMP JUMPDEST PUSH32 0x0 DUP2 JUMP JUMPDEST PUSH1 0x0 PUSH1 0x20 MSTORE DUP1 PUSH1 0x0 MSTORE PUSH1 0x40 PUSH1 0x0 KECCAK256 PUSH1 0x0 SWAP2 POP SWAP1 POP SLOAD DUP2 JUMP JUMPDEST PUSH1 0x0 TIMESTAMP PUSH1 0x6 PUSH1 0x0 PUSH1 0x7 DUP6 PUSH1 0x40 MLOAD PUSH2 0x1C3D SWAP2 SWAP1 PUSH2 0x306E JUMP JUMPDEST SWAP1 DUP2 MSTORE PUSH1 0x20 ADD PUSH1 0x40 MLOAD DUP1 SWAP2 SUB SWAP1 KECCAK256 SLOAD DUP2 MSTORE PUSH1 0x20 ADD SWAP1 DUP2 MSTORE PUSH1 0x20 ADD PUSH1 0x0 KECCAK256 SLOAD LT ISZERO SWAP1 POP SWAP2 SWAP1 POP JUMP JUMPDEST PUSH1 0x3 PUSH1 0x4 SWAP1 SLOAD SWAP1 PUSH2 0x100 EXP SWAP1 DIV PUSH4 0xFFFFFFFF AND DUP2 JUMP JUMPDEST PUSH1 0x0 DUP1 PUSH1 0x3 PUSH1 0x4 SWAP1 SLOAD SWAP1 PUSH2 0x100 EXP SWAP1 DIV PUSH4 0xFFFFFFFF AND SWAP1 POP PUSH1 0x3 PUSH1 0x8 SWAP1 SLOAD SWAP1 PUSH2 0x100 EXP SWAP1 DIV PUSH4 0xFFFFFFFF AND PUSH1 0x2 PUSH2 0x1CB1 SWAP2 SWAP1 PUSH2 0x32D8 JUMP JUMPDEST PUSH4 0xFFFFFFFF AND DUP2 PUSH4 0xFFFFFFFF AND SUB PUSH2 0x1CFE JUMPI PUSH1 0x40 MLOAD PUSH32 0x8C379A000000000000000000000000000000000000000000000000000000000 DUP2 MSTORE PUSH1 0x4 ADD PUSH2 0x1CF5 SWAP1 PUSH2 0x3379 JUMP JUMPDEST PUSH1 0x40 MLOAD DUP1 SWAP2 SUB SWAP1 REVERT JUMPDEST PUSH1 0x0 DUP2 SWAP1 POP PUSH1 0x0 DUP5 SWAP1 POP PUSH1 0x0 DUP1 PUSH1 0x0 JUMPDEST PUSH1 0x3 PUSH1 0x8 SWAP1 SLOAD SWAP1 PUSH2 0x100 EXP SWAP1 DIV PUSH4 0xFFFFFFFF AND PUSH4 0xFFFFFFFF AND DUP2 PUSH4 0xFFFFFFFF AND LT ISZERO PUSH2 0x1DD1 JUMPI PUSH1 0x0 PUSH1 0x2 DUP7 PUSH2 0x1D43 SWAP2 SWAP1 PUSH2 0x3399 JUMP JUMPDEST PUSH4 0xFFFFFFFF AND SUB PUSH2 0x1D84 JUMPI DUP4 SWAP3 POP PUSH2 0x1D60 DUP2 PUSH4 0xFFFFFFFF AND PUSH2 0x1527 JUMP JUMPDEST SWAP2 POP DUP4 PUSH1 0x0 DUP1 DUP4 PUSH4 0xFFFFFFFF AND DUP2 MSTORE PUSH1 0x20 ADD SWAP1 DUP2 MSTORE PUSH1 0x20 ADD PUSH1 0x0 KECCAK256 DUP2 SWAP1 SSTORE POP PUSH2 0x1DA3 JUMP JUMPDEST PUSH1 0x0 DUP1 DUP3 PUSH4 0xFFFFFFFF AND DUP2 MSTORE PUSH1 0x20 ADD SWAP1 DUP2 MSTORE PUSH1 0x20 ADD PUSH1 0x0 KECCAK256 SLOAD SWAP3 POP DUP4 SWAP2 POP JUMPDEST PUSH2 0x1DB3 DUP4 PUSH1 0x0 SHR DUP4 PUSH1 0x0 SHR PUSH2 0xD41 JUMP JUMPDEST SWAP4 POP PUSH1 0x2 DUP6 PUSH2 0x1DC2 SWAP2 SWAP1 PUSH2 0x33CA JUMP JUMPDEST SWAP5 POP DUP1 DUP1 PUSH1 0x1 ADD SWAP2 POP POP PUSH2 0x1D0E JUMP JUMPDEST POP PUSH1 0x0 PUSH1 0x1E PUSH1 0x1 PUSH1 0x3 PUSH1 0x0 SWAP1 SLOAD SWAP1 PUSH2 0x100 EXP SWAP1 DIV PUSH4 0xFFFFFFFF AND PUSH2 0x1DF5 SWAP2 SWAP1 PUSH2 0x33FB JUMP JUMPDEST PUSH2 0x1DFF SWAP2 SWAP1 PUSH2 0x3399 JUMP JUMPDEST SWAP1 POP DUP1 PUSH1 0x3 PUSH1 0x0 PUSH2 0x100 EXP DUP2 SLOAD DUP2 PUSH4 0xFFFFFFFF MUL NOT AND SWAP1 DUP4 PUSH4 0xFFFFFFFF AND MUL OR SWAP1 SSTORE POP DUP4 PUSH1 0x1 PUSH1 0x0 DUP4 PUSH4 0xFFFFFFFF AND DUP2 MSTORE PUSH1 0x20 ADD SWAP1 DUP2 MSTORE PUSH1 0x20 ADD PUSH1 0x0 KECCAK256 DUP2 SWAP1 SSTORE POP PUSH1 0x1 DUP7 PUSH2 0x1E4D SWAP2 SWAP1 PUSH2 0x33FB JUMP JUMPDEST PUSH1 0x3 PUSH1 0x4 PUSH2 0x100 EXP DUP2 SLOAD DUP2 PUSH4 0xFFFFFFFF MUL NOT AND SWAP1 DUP4 PUSH4 0xFFFFFFFF AND MUL OR SWAP1 SSTORE POP DUP6 SWAP7 POP POP POP POP POP POP POP SWAP2 SWAP1 POP JUMP JUMPDEST PUSH1 0x0 PUSH1 0x40 MLOAD SWAP1 POP SWAP1 JUMP JUMPDEST PUSH1 0x0 DUP1 REVERT JUMPDEST PUSH1 0x0 DUP1 REVERT JUMPDEST PUSH1 0x0 DUP2 SWAP1 POP SWAP2 SWAP1 POP JUMP JUMPDEST PUSH2 0x1EA2 DUP2 PUSH2 0x1E8F JUMP JUMPDEST DUP2 EQ PUSH2 0x1EAD JUMPI PUSH1 0x0 DUP1 REVERT JUMPDEST POP JUMP JUMPDEST PUSH1 0x0 DUP2 CALLDATALOAD SWAP1 POP PUSH2 0x1EBF DUP2 PUSH2 0x1E99 JUMP JUMPDEST SWAP3 SWAP2 POP POP JUMP JUMPDEST PUSH1 0x0 PUSH1 0x20 DUP3 DUP5 SUB SLT ISZERO PUSH2 0x1EDB JUMPI PUSH2 0x1EDA PUSH2 0x1E85 JUMP JUMPDEST JUMPDEST PUSH1 0x0 PUSH2 0x1EE9 DUP5 DUP3 DUP6 ADD PUSH2 0x1EB0 JUMP JUMPDEST SWAP2 POP POP SWAP3 SWAP2 POP POP JUMP JUMPDEST PUSH1 0x0 DUP2 ISZERO ISZERO SWAP1 POP SWAP2 SWAP1 POP JUMP JUMPDEST PUSH2 0x1F07 DUP2 PUSH2 0x1EF2 JUMP JUMPDEST DUP3 MSTORE POP POP JUMP JUMPDEST PUSH1 0x0 PUSH1 0x20 DUP3 ADD SWAP1 POP PUSH2 0x1F22 PUSH1 0x0 DUP4 ADD DUP5 PUSH2 0x1EFE JUMP JUMPDEST SWAP3 SWAP2 POP POP JUMP JUMPDEST PUSH1 0x0 PUSH20 0xFFFFFFFFFFFFFFFFFFFFFFFFFFFFFFFFFFFFFFFF DUP3 AND SWAP1 POP SWAP2 SWAP1 POP JUMP JUMPDEST PUSH1 0x0 DUP2 SWAP1 POP SWAP2 SWAP1 POP JUMP JUMPDEST PUSH1 0x0 PUSH2 0x1F6D PUSH2 0x1F68 PUSH2 0x1F63 DUP5 PUSH2 0x1F28 JUMP JUMPDEST PUSH2 0x1F48 JUMP JUMPDEST PUSH2 0x1F28 JUMP JUMPDEST SWAP1 POP SWAP2 SWAP1 POP JUMP JUMPDEST PUSH1 0x0 PUSH2 0x1F7F DUP3 PUSH2 0x1F52 JUMP JUMPDEST SWAP1 POP SWAP2 SWAP1 POP JUMP JUMPDEST PUSH1 0x0 PUSH2 0x1F91 DUP3 PUSH2 0x1F74 JUMP JUMPDEST SWAP1 POP SWAP2 SWAP1 POP JUMP JUMPDEST PUSH2 0x1FA1 DUP2 PUSH2 0x1F86 JUMP JUMPDEST DUP3 MSTORE POP POP JUMP JUMPDEST PUSH1 0x0 PUSH1 0x20 DUP3 ADD SWAP1 POP PUSH2 0x1FBC PUSH1 0x0 DUP4 ADD DUP5 PUSH2 0x1F98 JUMP JUMPDEST SWAP3 SWAP2 POP POP JUMP JUMPDEST PUSH1 0x0 DUP2 SWAP1 POP SWAP2 SWAP1 POP JUMP JUMPDEST PUSH2 0x1FD5 DUP2 PUSH2 0x1FC2 JUMP JUMPDEST DUP2 EQ PUSH2 0x1FE0 JUMPI PUSH1 0x0 DUP1 REVERT JUMPDEST POP JUMP JUMPDEST PUSH1 0x0 DUP2 CALLDATALOAD SWAP1 POP PUSH2 0x1FF2 DUP2 PUSH2 0x1FCC JUMP JUMPDEST SWAP3 SWAP2 POP POP JUMP JUMPDEST PUSH1 0x0 DUP1 PUSH1 0x40 DUP4 DUP6 SUB SLT ISZERO PUSH2 0x200F JUMPI PUSH2 0x200E PUSH2 0x1E85 JUMP JUMPDEST JUMPDEST PUSH1 0x0 PUSH2 0x201D DUP6 DUP3 DUP7 ADD PUSH2 0x1EB0 JUMP JUMPDEST SWAP3 POP POP PUSH1 0x20 PUSH2 0x202E DUP6 DUP3 DUP7 ADD PUSH2 0x1FE3 JUMP JUMPDEST SWAP2 POP POP SWAP3 POP SWAP3 SWAP1 POP JUMP JUMPDEST PUSH2 0x2041 DUP2 PUSH2 0x1FC2 JUMP JUMPDEST DUP3 MSTORE POP POP JUMP JUMPDEST PUSH1 0x0 PUSH1 0x20 DUP3 ADD SWAP1 POP PUSH2 0x205C PUSH1 0x0 DUP4 ADD DUP5 PUSH2 0x2038 JUMP JUMPDEST SWAP3 SWAP2 POP POP JUMP JUMPDEST PUSH1 0x0 PUSH4 0xFFFFFFFF DUP3 AND SWAP1 POP SWAP2 SWAP1 POP JUMP JUMPDEST PUSH2 0x207B DUP2 PUSH2 0x2062 JUMP JUMPDEST DUP3 MSTORE POP POP JUMP JUMPDEST PUSH1 0x0 PUSH1 0x20 DUP3 ADD SWAP1 POP PUSH2 0x2096 PUSH1 0x0 DUP4 ADD DUP5 PUSH2 0x2072 JUMP JUMPDEST SWAP3 SWAP2 POP POP JUMP JUMPDEST PUSH1 0x0 DUP1 REVERT JUMPDEST PUSH1 0x0 DUP1 REVERT JUMPDEST PUSH1 0x0 PUSH1 0x1F NOT PUSH1 0x1F DUP4 ADD AND SWAP1 POP SWAP2 SWAP1 POP JUMP JUMPDEST PUSH32 0x4E487B7100000000000000000000000000000000000000000000000000000000 PUSH1 0x0 MSTORE PUSH1 0x41 PUSH1 0x4 MSTORE PUSH1 0x24 PUSH1 0x0 REVERT JUMPDEST PUSH2 0x20EF DUP3 PUSH2 0x20A6 JUMP JUMPDEST DUP2 ADD DUP2 DUP2 LT PUSH8 0xFFFFFFFFFFFFFFFF DUP3 GT OR ISZERO PUSH2 0x210E JUMPI PUSH2 0x210D PUSH2 0x20B7 JUMP JUMPDEST JUMPDEST DUP1 PUSH1 0x40 MSTORE POP POP POP JUMP JUMPDEST PUSH1 0x0 PUSH2 0x2121 PUSH2 0x1E7B JUMP JUMPDEST SWAP1 POP PUSH2 0x212D DUP3 DUP3 PUSH2 0x20E6 JUMP JUMPDEST SWAP2 SWAP1 POP JUMP JUMPDEST PUSH1 0x0 PUSH8 0xFFFFFFFFFFFFFFFF DUP3 GT ISZERO PUSH2 0x214D JUMPI PUSH2 0x214C PUSH2 0x20B7 JUMP JUMPDEST JUMPDEST PUSH2 0x2156 DUP3 PUSH2 0x20A6 JUMP JUMPDEST SWAP1 POP PUSH1 0x20 DUP2 ADD SWAP1 POP SWAP2 SWAP1 POP JUMP JUMPDEST DUP3 DUP2 DUP4 CALLDATACOPY PUSH1 0x0 DUP4 DUP4 ADD MSTORE POP POP POP JUMP JUMPDEST PUSH1 0x0 PUSH2 0x2185 PUSH2 0x2180 DUP5 PUSH2 0x2132 JUMP JUMPDEST PUSH2 0x2117 JUMP JUMPDEST SWAP1 POP DUP3 DUP2 MSTORE PUSH1 0x20 DUP2 ADD DUP5 DUP5 DUP5 ADD GT ISZERO PUSH2 0x21A1 JUMPI PUSH2 0x21A0 PUSH2 0x20A1 JUMP JUMPDEST JUMPDEST PUSH2 0x21AC DUP5 DUP3 DUP6 PUSH2 0x2163 JUMP JUMPDEST POP SWAP4 SWAP3 POP POP POP JUMP JUMPDEST PUSH1 0x0 DUP3 PUSH1 0x1F DUP4 ADD SLT PUSH2 0x21C9 JUMPI PUSH2 0x21C8 PUSH2 0x209C JUMP JUMPDEST JUMPDEST DUP2 CALLDATALOAD PUSH2 0x21D9 DUP5 DUP3 PUSH1 0x20 DUP7 ADD PUSH2 0x2172 JUMP JUMPDEST SWAP2 POP POP SWAP3 SWAP2 POP POP JUMP JUMPDEST PUSH1 0x0 PUSH1 0x20 DUP3 DUP5 SUB SLT ISZERO PUSH2 0x21F8 JUMPI PUSH2 0x21F7 PUSH2 0x1E85 JUMP JUMPDEST JUMPDEST PUSH1 0x0 DUP3 ADD CALLDATALOAD PUSH8 0xFFFFFFFFFFFFFFFF DUP2 GT ISZERO PUSH2 0x2216 JUMPI PUSH2 0x2215 PUSH2 0x1E8A JUMP JUMPDEST JUMPDEST PUSH2 0x2222 DUP5 DUP3 DUP6 ADD PUSH2 0x21B4 JUMP JUMPDEST SWAP2 POP POP SWAP3 SWAP2 POP POP JUMP JUMPDEST PUSH2 0x2234 DUP2 PUSH2 0x1E8F JUMP JUMPDEST DUP3 MSTORE POP POP JUMP JUMPDEST PUSH1 0x0 PUSH1 0x20 DUP3 ADD SWAP1 POP PUSH2 0x224F PUSH1 0x0 DUP4 ADD DUP5 PUSH2 0x222B JUMP JUMPDEST SWAP3 SWAP2 POP POP JUMP JUMPDEST PUSH1 0x0 PUSH8 0xFFFFFFFFFFFFFFFF DUP3 GT ISZERO PUSH2 0x2270 JUMPI PUSH2 0x226F PUSH2 0x20B7 JUMP JUMPDEST JUMPDEST PUSH1 0x20 DUP3 MUL SWAP1 POP SWAP2 SWAP1 POP JUMP JUMPDEST PUSH1 0x0 DUP1 REVERT JUMPDEST PUSH1 0x0 PUSH2 0x2293 PUSH2 0x228E DUP5 PUSH2 0x2255 JUMP JUMPDEST PUSH2 0x2117 JUMP JUMPDEST SWAP1 POP DUP1 PUSH1 0x20 DUP5 MUL DUP4 ADD DUP6 DUP2 GT ISZERO PUSH2 0x22AD JUMPI PUSH2 0x22AC PUSH2 0x227B JUMP JUMPDEST JUMPDEST DUP4 JUMPDEST DUP2 DUP2 LT ISZERO PUSH2 0x22D6 JUMPI DUP1 PUSH2 0x22C2 DUP9 DUP3 PUSH2 0x1FE3 JUMP JUMPDEST DUP5 MSTORE PUSH1 0x20 DUP5 ADD SWAP4 POP POP PUSH1 0x20 DUP2 ADD SWAP1 POP PUSH2 0x22AF JUMP JUMPDEST POP POP POP SWAP4 SWAP3 POP POP POP JUMP JUMPDEST PUSH1 0x0 DUP3 PUSH1 0x1F DUP4 ADD SLT PUSH2 0x22F5 JUMPI PUSH2 0x22F4 PUSH2 0x209C JUMP JUMPDEST JUMPDEST PUSH1 0x2 PUSH2 0x2302 DUP5 DUP3 DUP6 PUSH2 0x2280 JUMP JUMPDEST SWAP2 POP POP SWAP3 SWAP2 POP POP JUMP JUMPDEST PUSH1 0x0 PUSH8 0xFFFFFFFFFFFFFFFF DUP3 GT ISZERO PUSH2 0x2326 JUMPI PUSH2 0x2325 PUSH2 0x20B7 JUMP JUMPDEST JUMPDEST PUSH1 0x20 DUP3 MUL SWAP1 POP SWAP2 SWAP1 POP JUMP JUMPDEST PUSH1 0x0 PUSH2 0x2344 PUSH2 0x233F DUP5 PUSH2 0x230B JUMP JUMPDEST PUSH2 0x2117 JUMP JUMPDEST SWAP1 POP DUP1 PUSH1 0x40 DUP5 MUL DUP4 ADD DUP6 DUP2 GT ISZERO PUSH2 0x235E JUMPI PUSH2 0x235D PUSH2 0x227B JUMP JUMPDEST JUMPDEST DUP4 JUMPDEST DUP2 DUP2 LT ISZERO PUSH2 0x2387 JUMPI DUP1 PUSH2 0x2373 DUP9 DUP3 PUSH2 0x22E0 JUMP JUMPDEST DUP5 MSTORE PUSH1 0x20 DUP5 ADD SWAP4 POP POP PUSH1 0x40 DUP2 ADD SWAP1 POP PUSH2 0x2360 JUMP JUMPDEST POP POP POP SWAP4 SWAP3 POP POP POP JUMP JUMPDEST PUSH1 0x0 DUP3 PUSH1 0x1F DUP4 ADD SLT PUSH2 0x23A6 JUMPI PUSH2 0x23A5 PUSH2 0x209C JUMP JUMPDEST JUMPDEST PUSH1 0x2 PUSH2 0x23B3 DUP5 DUP3 DUP6 PUSH2 0x2331 JUMP JUMPDEST SWAP2 POP POP SWAP3 SWAP2 POP POP JUMP JUMPDEST PUSH1 0x0 DUP1 PUSH1 0x0 DUP1 PUSH1 0x0 DUP1 PUSH2 0x160 DUP8 DUP10 SUB SLT ISZERO PUSH2 0x23DA JUMPI PUSH2 0x23D9 PUSH2 0x1E85 JUMP JUMPDEST JUMPDEST PUSH1 0x0 PUSH2 0x23E8 DUP10 DUP3 DUP11 ADD PUSH2 0x22E0 JUMP JUMPDEST SWAP7 POP POP PUSH1 0x40 PUSH2 0x23F9 DUP10 DUP3 DUP11 ADD PUSH2 0x2391 JUMP JUMPDEST SWAP6 POP POP PUSH1 0xC0 PUSH2 0x240A DUP10 DUP3 DUP11 ADD PUSH2 0x22E0 JUMP JUMPDEST SWAP5 POP POP PUSH2 0x100 PUSH2 0x241C DUP10 DUP3 DUP11 ADD PUSH2 0x1EB0 JUMP JUMPDEST SWAP4 POP POP PUSH2 0x120 PUSH2 0x242E DUP10 DUP3 DUP11 ADD PUSH2 0x1EB0 JUMP JUMPDEST SWAP3 POP POP PUSH2 0x140 PUSH2 0x2440 DUP10 DUP3 DUP11 ADD PUSH2 0x1FE3 JUMP JUMPDEST SWAP2 POP POP SWAP3 SWAP6 POP SWAP3 SWAP6 POP SWAP3 SWAP6 JUMP JUMPDEST PUSH1 0x0 DUP1 PUSH1 0x40 DUP4 DUP6 SUB SLT ISZERO PUSH2 0x2464 JUMPI PUSH2 0x2463 PUSH2 0x1E85 JUMP JUMPDEST JUMPDEST PUSH1 0x0 PUSH2 0x2472 DUP6 DUP3 DUP7 ADD PUSH2 0x1FE3 JUMP JUMPDEST SWAP3 POP POP PUSH1 0x20 PUSH2 0x2483 DUP6 DUP3 DUP7 ADD PUSH2 0x1FE3 JUMP JUMPDEST SWAP2 POP POP SWAP3 POP SWAP3 SWAP1 POP JUMP JUMPDEST PUSH1 0x0 PUSH2 0x2498 DUP3 PUSH2 0x1F74 JUMP JUMPDEST SWAP1 POP SWAP2 SWAP1 POP JUMP JUMPDEST PUSH2 0x24A8 DUP2 PUSH2 0x248D JUMP JUMPDEST DUP3 MSTORE POP POP JUMP JUMPDEST PUSH1 0x0 PUSH1 0x20 DUP3 ADD SWAP1 POP PUSH2 0x24C3 PUSH1 0x0 DUP4 ADD DUP5 PUSH2 0x249F JUMP JUMPDEST SWAP3 SWAP2 POP POP JUMP JUMPDEST PUSH1 0x0 PUSH1 0x20 DUP3 DUP5 SUB SLT ISZERO PUSH2 0x24DF JUMPI PUSH2 0x24DE PUSH2 0x1E85 JUMP JUMPDEST JUMPDEST PUSH1 0x0 PUSH2 0x24ED DUP5 DUP3 DUP6 ADD PUSH2 0x1FE3 JUMP JUMPDEST SWAP2 POP POP SWAP3 SWAP2 POP POP JUMP JUMPDEST PUSH1 0x0 DUP1 PUSH1 0x0 DUP1 PUSH1 0x0 DUP1 PUSH2 0x160 DUP8 DUP10 SUB SLT ISZERO PUSH2 0x2514 JUMPI PUSH2 0x2513 PUSH2 0x1E85 JUMP JUMPDEST JUMPDEST PUSH1 0x0 PUSH2 0x2522 DUP10 DUP3 DUP11 ADD PUSH2 0x22E0 JUMP JUMPDEST SWAP7 POP POP PUSH1 0x40 PUSH2 0x2533 DUP10 DUP3 DUP11 ADD PUSH2 0x2391 JUMP JUMPDEST SWAP6 POP POP PUSH1 0xC0 PUSH2 0x2544 DUP10 DUP3 DUP11 ADD PUSH2 0x22E0 JUMP JUMPDEST SWAP5 POP POP PUSH2 0x100 PUSH2 0x2556 DUP10 DUP3 DUP11 ADD PUSH2 0x1EB0 JUMP JUMPDEST SWAP4 POP POP PUSH2 0x120 PUSH2 0x2568 DUP10 DUP3 DUP11 ADD PUSH2 0x1EB0 JUMP JUMPDEST SWAP3 POP POP PUSH2 0x140 DUP8 ADD CALLDATALOAD PUSH8 0xFFFFFFFFFFFFFFFF DUP2 GT ISZERO PUSH2 0x258A JUMPI PUSH2 0x2589 PUSH2 0x1E8A JUMP JUMPDEST JUMPDEST PUSH2 0x2596 DUP10 DUP3 DUP11 ADD PUSH2 0x21B4 JUMP JUMPDEST SWAP2 POP POP SWAP3 SWAP6 POP SWAP3 SWAP6 POP SWAP3 SWAP6 JUMP JUMPDEST PUSH1 0x0 DUP2 MLOAD SWAP1 POP SWAP2 SWAP1 POP JUMP JUMPDEST PUSH1 0x0 DUP3 DUP3 MSTORE PUSH1 0x20 DUP3 ADD SWAP1 POP SWAP3 SWAP2 POP POP JUMP JUMPDEST PUSH1 0x0 DUP2 SWAP1 POP PUSH1 0x20 DUP3 ADD SWAP1 POP SWAP2 SWAP1 POP JUMP JUMPDEST PUSH2 0x25D8 DUP2 PUSH2 0x1E8F JUMP JUMPDEST DUP3 MSTORE POP POP JUMP JUMPDEST PUSH1 0x0 PUSH2 0x25EA DUP4 DUP4 PUSH2 0x25CF JUMP JUMPDEST PUSH1 0x20 DUP4 ADD SWAP1 POP SWAP3 SWAP2 POP POP JUMP JUMPDEST PUSH1 0x0 PUSH1 0x20 DUP3 ADD SWAP1 POP SWAP2 SWAP1 POP JUMP JUMPDEST PUSH1 0x0 PUSH2 0x260E DUP3 PUSH2 0x25A3 JUMP JUMPDEST PUSH2 0x2618 DUP2 DUP6 PUSH2 0x25AE JUMP JUMPDEST SWAP4 POP PUSH2 0x2623 DUP4 PUSH2 0x25BF JUMP JUMPDEST DUP1 PUSH1 0x0 JUMPDEST DUP4 DUP2 LT ISZERO PUSH2 0x2654 JUMPI DUP2 MLOAD PUSH2 0x263B DUP9 DUP3 PUSH2 0x25DE JUMP JUMPDEST SWAP8 POP PUSH2 0x2646 DUP4 PUSH2 0x25F6 JUMP JUMPDEST SWAP3 POP POP PUSH1 0x1 DUP2 ADD SWAP1 POP PUSH2 0x2627 JUMP JUMPDEST POP DUP6 SWAP4 POP POP POP POP SWAP3 SWAP2 POP POP JUMP JUMPDEST PUSH1 0x0 PUSH1 0x20 DUP3 ADD SWAP1 POP DUP2 DUP2 SUB PUSH1 0x0 DUP4 ADD MSTORE PUSH2 0x267B DUP2 DUP5 PUSH2 0x2603 JUMP JUMPDEST SWAP1 POP SWAP3 SWAP2 POP POP JUMP JUMPDEST PUSH1 0x0 PUSH2 0x268E DUP3 PUSH2 0x1F74 JUMP JUMPDEST SWAP1 POP SWAP2 SWAP1 POP JUMP JUMPDEST PUSH2 0x269E DUP2 PUSH2 0x2683 JUMP JUMPDEST DUP3 MSTORE POP POP JUMP JUMPDEST PUSH1 0x0 PUSH1 0x20 DUP3 ADD SWAP1 POP PUSH2 0x26B9 PUSH1 0x0 DUP4 ADD DUP5 PUSH2 0x2695 JUMP JUMPDEST SWAP3 SWAP2 POP POP JUMP JUMPDEST PUSH1 0x0 DUP3 DUP3 MSTORE PUSH1 0x20 DUP3 ADD SWAP1 POP SWAP3 SWAP2 POP POP JUMP JUMPDEST PUSH32 0x54686520636F6D6D69746D656E7420686173206265656E207375626D69747465 PUSH1 0x0 DUP3 ADD MSTORE PUSH32 0x6400000000000000000000000000000000000000000000000000000000000000 PUSH1 0x20 DUP3 ADD MSTORE POP JUMP JUMPDEST PUSH1 0x0 PUSH2 0x272C PUSH1 0x21 DUP4 PUSH2 0x26BF JUMP JUMPDEST SWAP2 POP PUSH2 0x2737 DUP3 PUSH2 0x26D0 JUMP JUMPDEST PUSH1 0x40 DUP3 ADD SWAP1 POP SWAP2 SWAP1 POP JUMP JUMPDEST PUSH1 0x0 PUSH1 0x20 DUP3 ADD SWAP1 POP DUP2 DUP2 SUB PUSH1 0x0 DUP4 ADD MSTORE PUSH2 0x275B DUP2 PUSH2 0x271F JUMP JUMPDEST SWAP1 POP SWAP2 SWAP1 POP JUMP JUMPDEST PUSH1 0x0 DUP1 REVERT JUMPDEST PUSH1 0x0 DUP2 MLOAD SWAP1 POP PUSH2 0x2776 DUP2 PUSH2 0x1FCC JUMP JUMPDEST SWAP3 SWAP2 POP POP JUMP JUMPDEST PUSH1 0x0 PUSH1 0x60 DUP3 DUP5 SUB SLT ISZERO PUSH2 0x2792 JUMPI PUSH2 0x2791 PUSH2 0x2762 JUMP JUMPDEST JUMPDEST PUSH2 0x279C PUSH1 0x60 PUSH2 0x2117 JUMP JUMPDEST SWAP1 POP PUSH1 0x0 PUSH2 0x27AC DUP5 DUP3 DUP6 ADD PUSH2 0x2767 JUMP JUMPDEST PUSH1 0x0 DUP4 ADD MSTORE POP PUSH1 0x20 PUSH2 0x27C0 DUP5 DUP3 DUP6 ADD PUSH2 0x2767 JUMP JUMPDEST PUSH1 0x20 DUP4 ADD MSTORE POP PUSH1 0x40 PUSH2 0x27D4 DUP5 DUP3 DUP6 ADD PUSH2 0x2767 JUMP JUMPDEST PUSH1 0x40 DUP4 ADD MSTORE POP SWAP3 SWAP2 POP POP JUMP JUMPDEST PUSH1 0x0 PUSH1 0x60 DUP3 DUP5 SUB SLT ISZERO PUSH2 0x27F6 JUMPI PUSH2 0x27F5 PUSH2 0x1E85 JUMP JUMPDEST JUMPDEST PUSH1 0x0 PUSH2 0x2804 DUP5 DUP3 DUP6 ADD PUSH2 0x277C JUMP JUMPDEST SWAP2 POP POP SWAP3 SWAP2 POP POP JUMP JUMPDEST PUSH32 0x4E487B7100000000000000000000000000000000000000000000000000000000 PUSH1 0x0 MSTORE PUSH1 0x11 PUSH1 0x4 MSTORE PUSH1 0x24 PUSH1 0x0 REVERT JUMPDEST PUSH1 0x0 PUSH2 0x2847 DUP3 PUSH2 0x1FC2 JUMP JUMPDEST SWAP2 POP PUSH2 0x2852 DUP4 PUSH2 0x1FC2 JUMP JUMPDEST SWAP3 POP DUP3 DUP3 ADD SWAP1 POP DUP1 DUP3 GT ISZERO PUSH2 0x286A JUMPI PUSH2 0x2869 PUSH2 0x280D JUMP JUMPDEST JUMPDEST SWAP3 SWAP2 POP POP JUMP JUMPDEST PUSH1 0x0 PUSH1 0x40 DUP3 ADD SWAP1 POP PUSH2 0x2885 PUSH1 0x0 DUP4 ADD DUP6 PUSH2 0x2072 JUMP JUMPDEST PUSH2 0x2892 PUSH1 0x20 DUP4 ADD DUP5 PUSH2 0x2038 JUMP JUMPDEST SWAP4 SWAP3 POP POP POP JUMP JUMPDEST PUSH1 0x0 PUSH2 0x28A4 DUP3 PUSH2 0x1FC2 JUMP JUMPDEST SWAP2 POP PUSH2 0x28AF DUP4 PUSH2 0x1FC2 JUMP JUMPDEST SWAP3 POP DUP3 DUP3 MUL PUSH2 0x28BD DUP2 PUSH2 0x1FC2 JUMP JUMPDEST SWAP2 POP DUP3 DUP3 DIV DUP5 EQ DUP4 ISZERO OR PUSH2 0x28D4 JUMPI PUSH2 0x28D3 PUSH2 0x280D JUMP JUMPDEST JUMPDEST POP SWAP3 SWAP2 POP POP JUMP JUMPDEST PUSH1 0x0 PUSH2 0x28E6 DUP3 PUSH2 0x1F28 JUMP JUMPDEST SWAP1 POP SWAP2 SWAP1 POP JUMP JUMPDEST PUSH2 0x28F6 DUP2 PUSH2 0x28DB JUMP JUMPDEST DUP3 MSTORE POP POP JUMP JUMPDEST PUSH1 0x0 PUSH1 0x40 DUP3 ADD SWAP1 POP PUSH2 0x2911 PUSH1 0x0 DUP4 ADD DUP6 PUSH2 0x28ED JUMP JUMPDEST PUSH2 0x291E PUSH1 0x20 DUP4 ADD DUP5 PUSH2 0x2038 JUMP JUMPDEST SWAP4 SWAP3 POP POP POP JUMP JUMPDEST PUSH32 0x43616E6E6F742066696E6420796F7572206D65726B6C6520726F6F7400000000 PUSH1 0x0 DUP3 ADD MSTORE POP JUMP JUMPDEST PUSH1 0x0 PUSH2 0x295B PUSH1 0x1C DUP4 PUSH2 0x26BF JUMP JUMPDEST SWAP2 POP PUSH2 0x2966 DUP3 PUSH2 0x2925 JUMP JUMPDEST PUSH1 0x20 DUP3 ADD SWAP1 POP SWAP2 SWAP1 POP JUMP JUMPDEST PUSH1 0x0 PUSH1 0x20 DUP3 ADD SWAP1 POP DUP2 DUP2 SUB PUSH1 0x0 DUP4 ADD MSTORE PUSH2 0x298A DUP2 PUSH2 0x294E JUMP JUMPDEST SWAP1 POP SWAP2 SWAP1 POP JUMP JUMPDEST PUSH1 0x0 PUSH1 0x2 SWAP1 POP SWAP2 SWAP1 POP JUMP JUMPDEST PUSH1 0x0 DUP2 SWAP1 POP SWAP3 SWAP2 POP POP JUMP JUMPDEST PUSH1 0x0 DUP2 SWAP1 POP SWAP2 SWAP1 POP JUMP JUMPDEST PUSH2 0x29BA DUP2 PUSH2 0x1FC2 JUMP JUMPDEST DUP3 MSTORE POP POP JUMP JUMPDEST PUSH1 0x0 PUSH2 0x29CC DUP4 DUP4 PUSH2 0x29B1 JUMP JUMPDEST PUSH1 0x20 DUP4 ADD SWAP1 POP SWAP3 SWAP2 POP POP JUMP JUMPDEST PUSH1 0x0 PUSH1 0x20 DUP3 ADD SWAP1 POP SWAP2 SWAP1 POP JUMP JUMPDEST PUSH2 0x29EE DUP2 PUSH2 0x2991 JUMP JUMPDEST PUSH2 0x29F8 DUP2 DUP5 PUSH2 0x299C JUMP JUMPDEST SWAP3 POP PUSH2 0x2A03 DUP3 PUSH2 0x29A7 JUMP JUMPDEST DUP1 PUSH1 0x0 JUMPDEST DUP4 DUP2 LT ISZERO PUSH2 0x2A34 JUMPI DUP2 MLOAD PUSH2 0x2A1B DUP8 DUP3 PUSH2 0x29C0 JUMP JUMPDEST SWAP7 POP PUSH2 0x2A26 DUP4 PUSH2 0x29D8 JUMP JUMPDEST SWAP3 POP POP PUSH1 0x1 DUP2 ADD SWAP1 POP PUSH2 0x2A07 JUMP JUMPDEST POP POP POP POP POP POP JUMP JUMPDEST PUSH1 0x0 PUSH1 0x2 SWAP1 POP SWAP2 SWAP1 POP JUMP JUMPDEST PUSH1 0x0 DUP2 SWAP1 POP SWAP3 SWAP2 POP POP JUMP JUMPDEST PUSH1 0x0 DUP2 SWAP1 POP SWAP2 SWAP1 POP JUMP JUMPDEST PUSH1 0x0 DUP2 SWAP1 POP SWAP3 SWAP2 POP POP JUMP JUMPDEST PUSH2 0x2A70 DUP2 PUSH2 0x2991 JUMP JUMPDEST PUSH2 0x2A7A DUP2 DUP5 PUSH2 0x2A5C JUMP JUMPDEST SWAP3 POP PUSH2 0x2A85 DUP3 PUSH2 0x29A7 JUMP JUMPDEST DUP1 PUSH1 0x0 JUMPDEST DUP4 DUP2 LT ISZERO PUSH2 0x2AB6 JUMPI DUP2 MLOAD PUSH2 0x2A9D DUP8 DUP3 PUSH2 0x29C0 JUMP JUMPDEST SWAP7 POP PUSH2 0x2AA8 DUP4 PUSH2 0x29D8 JUMP JUMPDEST SWAP3 POP POP PUSH1 0x1 DUP2 ADD SWAP1 POP PUSH2 0x2A89 JUMP JUMPDEST POP POP POP POP POP POP JUMP JUMPDEST PUSH1 0x0 PUSH2 0x2ACA DUP4 DUP4 PUSH2 0x2A67 JUMP JUMPDEST PUSH1 0x40 DUP4 ADD SWAP1 POP SWAP3 SWAP2 POP POP JUMP JUMPDEST PUSH1 0x0 PUSH1 0x20 DUP3 ADD SWAP1 POP SWAP2 SWAP1 POP JUMP JUMPDEST PUSH2 0x2AEC DUP2 PUSH2 0x2A3C JUMP JUMPDEST PUSH2 0x2AF6 DUP2 DUP5 PUSH2 0x2A47 JUMP JUMPDEST SWAP3 POP PUSH2 0x2B01 DUP3 PUSH2 0x2A52 JUMP JUMPDEST DUP1 PUSH1 0x0 JUMPDEST DUP4 DUP2 LT ISZERO PUSH2 0x2B32 JUMPI DUP2 MLOAD PUSH2 0x2B19 DUP8 DUP3 PUSH2 0x2ABE JUMP JUMPDEST SWAP7 POP PUSH2 0x2B24 DUP4 PUSH2 0x2AD6 JUMP JUMPDEST SWAP3 POP POP PUSH1 0x1 DUP2 ADD SWAP1 POP PUSH2 0x2B05 JUMP JUMPDEST POP POP POP POP POP POP JUMP JUMPDEST PUSH1 0x0 PUSH2 0x140 DUP3 ADD SWAP1 POP PUSH2 0x2B50 PUSH1 0x0 DUP4 ADD DUP8 PUSH2 0x29E5 JUMP JUMPDEST PUSH2 0x2B5D PUSH1 0x40 DUP4 ADD DUP7 PUSH2 0x2AE3 JUMP JUMPDEST PUSH2 0x2B6A PUSH1 0xC0 DUP4 ADD DUP6 PUSH2 0x29E5 JUMP JUMPDEST PUSH2 0x2B78 PUSH2 0x100 DUP4 ADD DUP5 PUSH2 0x29E5 JUMP JUMPDEST SWAP6 SWAP5 POP POP POP POP POP JUMP JUMPDEST PUSH2 0x2B8A DUP2 PUSH2 0x1EF2 JUMP JUMPDEST DUP2 EQ PUSH2 0x2B95 JUMPI PUSH1 0x0 DUP1 REVERT JUMPDEST POP JUMP JUMPDEST PUSH1 0x0 DUP2 MLOAD SWAP1 POP PUSH2 0x2BA7 DUP2 PUSH2 0x2B81 JUMP JUMPDEST SWAP3 SWAP2 POP POP JUMP JUMPDEST PUSH1 0x0 PUSH1 0x20 DUP3 DUP5 SUB SLT ISZERO PUSH2 0x2BC3 JUMPI PUSH2 0x2BC2 PUSH2 0x1E85 JUMP JUMPDEST JUMPDEST PUSH1 0x0 PUSH2 0x2BD1 DUP5 DUP3 DUP6 ADD PUSH2 0x2B98 JUMP JUMPDEST SWAP2 POP POP SWAP3 SWAP2 POP POP JUMP JUMPDEST PUSH32 0x496E76616C69642070726F6F6600000000000000000000000000000000000000 PUSH1 0x0 DUP3 ADD MSTORE POP JUMP JUMPDEST PUSH1 0x0 PUSH2 0x2C10 PUSH1 0xD DUP4 PUSH2 0x26BF JUMP JUMPDEST SWAP2 POP PUSH2 0x2C1B DUP3 PUSH2 0x2BDA JUMP JUMPDEST PUSH1 0x20 DUP3 ADD SWAP1 POP SWAP2 SWAP1 POP JUMP JUMPDEST PUSH1 0x0 PUSH1 0x20 DUP3 ADD SWAP1 POP DUP2 DUP2 SUB PUSH1 0x0 DUP4 ADD MSTORE PUSH2 0x2C3F DUP2 PUSH2 0x2C03 JUMP JUMPDEST SWAP1 POP SWAP2 SWAP1 POP JUMP JUMPDEST PUSH32 0x7061636B616765206861736E277420616374697661746564207965742E000000 PUSH1 0x0 DUP3 ADD MSTORE POP JUMP JUMPDEST PUSH1 0x0 PUSH2 0x2C7C PUSH1 0x1D DUP4 PUSH2 0x26BF JUMP JUMPDEST SWAP2 POP PUSH2 0x2C87 DUP3 PUSH2 0x2C46 JUMP JUMPDEST PUSH1 0x20 DUP3 ADD SWAP1 POP SWAP2 SWAP1 POP JUMP JUMPDEST PUSH1 0x0 PUSH1 0x20 DUP3 ADD SWAP1 POP DUP2 DUP2 SUB PUSH1 0x0 DUP4 ADD MSTORE PUSH2 0x2CAB DUP2 PUSH2 0x2C6F JUMP JUMPDEST SWAP1 POP SWAP2 SWAP1 POP JUMP JUMPDEST PUSH1 0x0 PUSH2 0x2CBD DUP3 PUSH2 0x1FC2 JUMP JUMPDEST SWAP2 POP PUSH2 0x2CC8 DUP4 PUSH2 0x1FC2 JUMP JUMPDEST SWAP3 POP DUP3 DUP3 SUB SWAP1 POP DUP2 DUP2 GT ISZERO PUSH2 0x2CE0 JUMPI PUSH2 0x2CDF PUSH2 0x280D JUMP JUMPDEST JUMPDEST SWAP3 SWAP2 POP POP JUMP JUMPDEST PUSH32 0x54686520636F6F6C20646F776E20706572696F64206173207061737365640000 PUSH1 0x0 DUP3 ADD MSTORE POP JUMP JUMPDEST PUSH1 0x0 PUSH2 0x2D1C PUSH1 0x1E DUP4 PUSH2 0x26BF JUMP JUMPDEST SWAP2 POP PUSH2 0x2D27 DUP3 PUSH2 0x2CE6 JUMP JUMPDEST PUSH1 0x20 DUP3 ADD SWAP1 POP SWAP2 SWAP1 POP JUMP JUMPDEST PUSH1 0x0 PUSH1 0x20 DUP3 ADD SWAP1 POP DUP2 DUP2 SUB PUSH1 0x0 DUP4 ADD MSTORE PUSH2 0x2D4B DUP2 PUSH2 0x2D0F JUMP JUMPDEST SWAP1 POP SWAP2 SWAP1 POP JUMP JUMPDEST PUSH32 0x5F6C6566742073686F756C6420626520696E7369646520746865206669656C64 PUSH1 0x0 DUP3 ADD MSTORE POP JUMP JUMPDEST PUSH1 0x0 PUSH2 0x2D88 PUSH1 0x20 DUP4 PUSH2 0x26BF JUMP JUMPDEST SWAP2 POP PUSH2 0x2D93 DUP3 PUSH2 0x2D52 JUMP JUMPDEST PUSH1 0x20 DUP3 ADD SWAP1 POP SWAP2 SWAP1 POP JUMP JUMPDEST PUSH1 0x0 PUSH1 0x20 DUP3 ADD SWAP1 POP DUP2 DUP2 SUB PUSH1 0x0 DUP4 ADD MSTORE PUSH2 0x2DB7 DUP2 PUSH2 0x2D7B JUMP JUMPDEST SWAP1 POP SWAP2 SWAP1 POP JUMP JUMPDEST PUSH32 0x5F72696768742073686F756C6420626520696E7369646520746865206669656C PUSH1 0x0 DUP3 ADD MSTORE PUSH32 0x6400000000000000000000000000000000000000000000000000000000000000 PUSH1 0x20 DUP3 ADD MSTORE POP JUMP JUMPDEST PUSH1 0x0 PUSH2 0x2E1A PUSH1 0x21 DUP4 PUSH2 0x26BF JUMP JUMPDEST SWAP2 POP PUSH2 0x2E25 DUP3 PUSH2 0x2DBE JUMP JUMPDEST PUSH1 0x40 DUP3 ADD SWAP1 POP SWAP2 SWAP1 POP JUMP JUMPDEST PUSH1 0x0 PUSH1 0x20 DUP3 ADD SWAP1 POP DUP2 DUP2 SUB PUSH1 0x0 DUP4 ADD MSTORE PUSH2 0x2E49 DUP2 PUSH2 0x2E0D JUMP JUMPDEST SWAP1 POP SWAP2 SWAP1 POP JUMP JUMPDEST PUSH1 0x0 DUP2 SWAP1 POP SWAP2 SWAP1 POP JUMP JUMPDEST PUSH1 0x0 PUSH2 0x2E75 PUSH2 0x2E70 PUSH2 0x2E6B DUP5 PUSH2 0x2E50 JUMP JUMPDEST PUSH2 0x1F48 JUMP JUMPDEST PUSH2 0x1FC2 JUMP JUMPDEST SWAP1 POP SWAP2 SWAP1 POP JUMP JUMPDEST PUSH2 0x2E85 DUP2 PUSH2 0x2E5A JUMP JUMPDEST DUP3 MSTORE POP POP JUMP JUMPDEST PUSH1 0x0 PUSH1 0x60 DUP3 ADD SWAP1 POP PUSH2 0x2EA0 PUSH1 0x0 DUP4 ADD DUP7 PUSH2 0x2038 JUMP JUMPDEST PUSH2 0x2EAD PUSH1 0x20 DUP4 ADD DUP6 PUSH2 0x2038 JUMP JUMPDEST PUSH2 0x2EBA PUSH1 0x40 DUP4 ADD DUP5 PUSH2 0x2E7C JUMP JUMPDEST SWAP5 SWAP4 POP POP POP POP JUMP JUMPDEST PUSH1 0x0 DUP1 PUSH1 0x40 DUP4 DUP6 SUB SLT ISZERO PUSH2 0x2ED9 JUMPI PUSH2 0x2ED8 PUSH2 0x1E85 JUMP JUMPDEST JUMPDEST PUSH1 0x0 PUSH2 0x2EE7 DUP6 DUP3 DUP7 ADD PUSH2 0x2767 JUMP JUMPDEST SWAP3 POP POP PUSH1 0x20 PUSH2 0x2EF8 DUP6 DUP3 DUP7 ADD PUSH2 0x2767 JUMP JUMPDEST SWAP2 POP POP SWAP3 POP SWAP3 SWAP1 POP JUMP JUMPDEST PUSH32 0x4E487B7100000000000000000000000000000000000000000000000000000000 PUSH1 0x0 MSTORE PUSH1 0x12 PUSH1 0x4 MSTORE PUSH1 0x24 PUSH1 0x0 REVERT JUMPDEST PUSH1 0x0 PUSH2 0x2F3C DUP3 PUSH2 0x2062 JUMP JUMPDEST SWAP2 POP PUSH1 0x0 DUP3 SUB PUSH2 0x2F4F JUMPI PUSH2 0x2F4E PUSH2 0x280D JUMP JUMPDEST JUMPDEST PUSH1 0x1 DUP3 SUB SWAP1 POP SWAP2 SWAP1 POP JUMP JUMPDEST PUSH1 0x0 PUSH1 0x60 DUP3 ADD SWAP1 POP PUSH2 0x2F6F PUSH1 0x0 DUP4 ADD DUP7 PUSH2 0x2038 JUMP JUMPDEST PUSH2 0x2F7C PUSH1 0x20 DUP4 ADD DUP6 PUSH2 0x2E7C JUMP JUMPDEST PUSH2 0x2F89 PUSH1 0x40 DUP4 ADD DUP5 PUSH2 0x2E7C JUMP JUMPDEST SWAP5 SWAP4 POP POP POP POP JUMP JUMPDEST PUSH32 0x7061636B61676520616C72656164792061637469766174656400000000000000 PUSH1 0x0 DUP3 ADD MSTORE POP JUMP JUMPDEST PUSH1 0x0 PUSH2 0x2FC7 PUSH1 0x19 DUP4 PUSH2 0x26BF JUMP JUMPDEST SWAP2 POP PUSH2 0x2FD2 DUP3 PUSH2 0x2F91 JUMP JUMPDEST PUSH1 0x20 DUP3 ADD SWAP1 POP SWAP2 SWAP1 POP JUMP JUMPDEST PUSH1 0x0 PUSH1 0x20 DUP3 ADD SWAP1 POP DUP2 DUP2 SUB PUSH1 0x0 DUP4 ADD MSTORE PUSH2 0x2FF6 DUP2 PUSH2 0x2FBA JUMP JUMPDEST SWAP1 POP SWAP2 SWAP1 POP JUMP JUMPDEST PUSH1 0x0 DUP2 MLOAD SWAP1 POP SWAP2 SWAP1 POP JUMP JUMPDEST PUSH1 0x0 DUP2 SWAP1 POP SWAP3 SWAP2 POP POP JUMP JUMPDEST PUSH1 0x0 JUMPDEST DUP4 DUP2 LT ISZERO PUSH2 0x3031 JUMPI DUP1 DUP3 ADD MLOAD DUP2 DUP5 ADD MSTORE PUSH1 0x20 DUP2 ADD SWAP1 POP PUSH2 0x3016 JUMP JUMPDEST PUSH1 0x0 DUP5 DUP5 ADD MSTORE POP POP POP POP JUMP JUMPDEST PUSH1 0x0 PUSH2 0x3048 DUP3 PUSH2 0x2FFD JUMP JUMPDEST PUSH2 0x3052 DUP2 DUP6 PUSH2 0x3008 JUMP JUMPDEST SWAP4 POP PUSH2 0x3062 DUP2 DUP6 PUSH1 0x20 DUP7 ADD PUSH2 0x3013 JUMP JUMPDEST DUP1 DUP5 ADD SWAP2 POP POP SWAP3 SWAP2 POP POP JUMP JUMPDEST PUSH1 0x0 PUSH2 0x307A DUP3 DUP5 PUSH2 0x303D JUMP JUMPDEST SWAP2 POP DUP2 SWAP1 POP SWAP3 SWAP2 POP POP JUMP JUMPDEST PUSH32 0x496E76616C6964206C6576656C00000000000000000000000000000000000000 PUSH1 0x0 DUP3 ADD MSTORE POP JUMP JUMPDEST PUSH1 0x0 PUSH2 0x30BB PUSH1 0xD DUP4 PUSH2 0x26BF JUMP JUMPDEST SWAP2 POP PUSH2 0x30C6 DUP3 PUSH2 0x3085 JUMP JUMPDEST PUSH1 0x20 DUP3 ADD SWAP1 POP SWAP2 SWAP1 POP JUMP JUMPDEST PUSH1 0x0 PUSH1 0x20 DUP3 ADD SWAP1 POP DUP2 DUP2 SUB PUSH1 0x0 DUP4 ADD MSTORE PUSH2 0x30EA DUP2 PUSH2 0x30AE JUMP JUMPDEST SWAP1 POP SWAP2 SWAP1 POP JUMP JUMPDEST PUSH1 0x0 PUSH1 0x20 DUP3 ADD SWAP1 POP PUSH2 0x3106 PUSH1 0x0 DUP4 ADD DUP5 PUSH2 0x28ED JUMP JUMPDEST SWAP3 SWAP2 POP POP JUMP JUMPDEST PUSH1 0x0 PUSH1 0x20 DUP3 DUP5 SUB SLT ISZERO PUSH2 0x3122 JUMPI PUSH2 0x3121 PUSH2 0x1E85 JUMP JUMPDEST JUMPDEST PUSH1 0x0 PUSH2 0x3130 DUP5 DUP3 DUP6 ADD PUSH2 0x2767 JUMP JUMPDEST SWAP2 POP POP SWAP3 SWAP2 POP POP JUMP JUMPDEST PUSH32 0x496E646578206F7574206F6620626F756E647300000000000000000000000000 PUSH1 0x0 DUP3 ADD MSTORE POP JUMP JUMPDEST PUSH1 0x0 PUSH2 0x316F PUSH1 0x13 DUP4 PUSH2 0x26BF JUMP JUMPDEST SWAP2 POP PUSH2 0x317A DUP3 PUSH2 0x3139 JUMP JUMPDEST PUSH1 0x20 DUP3 ADD SWAP1 POP SWAP2 SWAP1 POP JUMP JUMPDEST PUSH1 0x0 PUSH1 0x20 DUP3 ADD SWAP1 POP DUP2 DUP2 SUB PUSH1 0x0 DUP4 ADD MSTORE PUSH2 0x319E DUP2 PUSH2 0x3162 JUMP JUMPDEST SWAP1 POP SWAP2 SWAP1 POP JUMP JUMPDEST PUSH1 0x0 DUP2 PUSH1 0x1 SHR SWAP1 POP SWAP2 SWAP1 POP JUMP JUMPDEST PUSH1 0x0 DUP1 DUP3 SWAP2 POP DUP4 SWAP1 POP JUMPDEST PUSH1 0x1 DUP6 GT ISZERO PUSH2 0x31FC JUMPI DUP1 DUP7 DIV DUP2 GT ISZERO PUSH2 0x31D8 JUMPI PUSH2 0x31D7 PUSH2 0x280D JUMP JUMPDEST JUMPDEST PUSH1 0x1 DUP6 AND ISZERO PUSH2 0x31E7 JUMPI DUP1 DUP3 MUL SWAP2 POP JUMPDEST DUP1 DUP2 MUL SWAP1 POP PUSH2 0x31F5 DUP6 PUSH2 0x31A5 JUMP JUMPDEST SWAP5 POP PUSH2 0x31BC JUMP JUMPDEST SWAP5 POP SWAP5 SWAP3 POP POP POP JUMP JUMPDEST PUSH1 0x0 DUP3 PUSH2 0x3215 JUMPI PUSH1 0x1 SWAP1 POP PUSH2 0x32D1 JUMP JUMPDEST DUP2 PUSH2 0x3223 JUMPI PUSH1 0x0 SWAP1 POP PUSH2 0x32D1 JUMP JUMPDEST DUP2 PUSH1 0x1 DUP2 EQ PUSH2 0x3239 JUMPI PUSH1 0x2 DUP2 EQ PUSH2 0x3243 JUMPI PUSH2 0x3272 JUMP JUMPDEST PUSH1 0x1 SWAP2 POP POP PUSH2 0x32D1 JUMP JUMPDEST PUSH1 0xFF DUP5 GT ISZERO PUSH2 0x3255 JUMPI PUSH2 0x3254 PUSH2 0x280D JUMP JUMPDEST JUMPDEST DUP4 PUSH1 0x2 EXP SWAP2 POP DUP5 DUP3 GT ISZERO PUSH2 0x326C JUMPI PUSH2 0x326B PUSH2 0x280D JUMP JUMPDEST JUMPDEST POP PUSH2 0x32D1 JUMP JUMPDEST POP PUSH1 0x20 DUP4 LT PUSH2 0x133 DUP4 LT AND PUSH1 0x4E DUP5 LT PUSH1 0xB DUP5 LT AND OR ISZERO PUSH2 0x32A7 JUMPI DUP3 DUP3 EXP SWAP1 POP DUP4 DUP2 GT ISZERO PUSH2 0x32A2 JUMPI PUSH2 0x32A1 PUSH2 0x280D JUMP JUMPDEST JUMPDEST PUSH2 0x32D1 JUMP JUMPDEST PUSH2 0x32B4 DUP5 DUP5 DUP5 PUSH1 0x1 PUSH2 0x31B2 JUMP JUMPDEST SWAP3 POP SWAP1 POP DUP2 DUP5 DIV DUP2 GT ISZERO PUSH2 0x32CB JUMPI PUSH2 0x32CA PUSH2 0x280D JUMP JUMPDEST JUMPDEST DUP2 DUP2 MUL SWAP1 POP JUMPDEST SWAP4 SWAP3 POP POP POP JUMP JUMPDEST PUSH1 0x0 PUSH2 0x32E3 DUP3 PUSH2 0x2062 JUMP JUMPDEST SWAP2 POP PUSH2 0x32EE DUP4 PUSH2 0x2062 JUMP JUMPDEST SWAP3 POP PUSH2 0x32FF PUSH4 0xFFFFFFFF DUP5 DUP5 PUSH2 0x3205 JUMP JUMPDEST SWAP1 POP SWAP3 SWAP2 POP POP JUMP JUMPDEST PUSH32 0x4D65726B6C6520747265652069732066756C6C2E204E6F206D6F7265206C6561 PUSH1 0x0 DUP3 ADD MSTORE PUSH32 0x7665732063616E20626520616464656400000000000000000000000000000000 PUSH1 0x20 DUP3 ADD MSTORE POP JUMP JUMPDEST PUSH1 0x0 PUSH2 0x3363 PUSH1 0x30 DUP4 PUSH2 0x26BF JUMP JUMPDEST SWAP2 POP PUSH2 0x336E DUP3 PUSH2 0x3307 JUMP JUMPDEST PUSH1 0x40 DUP3 ADD SWAP1 POP SWAP2 SWAP1 POP JUMP JUMPDEST PUSH1 0x0 PUSH1 0x20 DUP3 ADD SWAP1 POP DUP2 DUP2 SUB PUSH1 0x0 DUP4 ADD MSTORE PUSH2 0x3392 DUP2 PUSH2 0x3356 JUMP JUMPDEST SWAP1 POP SWAP2 SWAP1 POP JUMP JUMPDEST PUSH1 0x0 PUSH2 0x33A4 DUP3 PUSH2 0x2062 JUMP JUMPDEST SWAP2 POP PUSH2 0x33AF DUP4 PUSH2 0x2062 JUMP JUMPDEST SWAP3 POP DUP3 PUSH2 0x33BF JUMPI PUSH2 0x33BE PUSH2 0x2F02 JUMP JUMPDEST JUMPDEST DUP3 DUP3 MOD SWAP1 POP SWAP3 SWAP2 POP POP JUMP JUMPDEST PUSH1 0x0 PUSH2 0x33D5 DUP3 PUSH2 0x2062 JUMP JUMPDEST SWAP2 POP PUSH2 0x33E0 DUP4 PUSH2 0x2062 JUMP JUMPDEST SWAP3 POP DUP3 PUSH2 0x33F0 JUMPI PUSH2 0x33EF PUSH2 0x2F02 JUMP JUMPDEST JUMPDEST DUP3 DUP3 DIV SWAP1 POP SWAP3 SWAP2 POP POP JUMP JUMPDEST PUSH1 0x0 PUSH2 0x3406 DUP3 PUSH2 0x2062 JUMP JUMPDEST SWAP2 POP PUSH2 0x3411 DUP4 PUSH2 0x2062 JUMP JUMPDEST SWAP3 POP DUP3 DUP3 ADD SWAP1 POP PUSH4 0xFFFFFFFF DUP2 GT ISZERO PUSH2 0x342D JUMPI PUSH2 0x342C PUSH2 0x280D JUMP JUMPDEST JUMPDEST SWAP3 SWAP2 POP POP JUMP INVALID LOG2 PUSH5 0x6970667358 0x22 SLT KECCAK256 PUSH6 0x19AD487E2810 0x2C EXTCODESIZE PUSH7 0xD963095899DF97 0xDB 0xD1 0xB1 MLOAD DUP1 SELFDESTRUCT DUP13 CHAINID PUSH24 0xCE162798718464736F6C6343000819003300000000000000 "
		},
		"gasEstimates": {
			"creation": {
				"codeDepositCost": "995200",
				"executionCost": "infinite",
				"totalCost": "infinite"
			},
			"external": {
				"INDEX_OF_METADATA()": "2496",
				"SERVICE_PROVIDER_ENS()": "infinite",
				"addProduct(uint256,uint256,string)": "infinite",
				"createSubscription(uint256,uint256)": "infinite",
				"extendSubscription(uint256[2],uint256[2][2],uint256[2],uint256,uint256,uint256)": "infinite",
				"getProductMetaData(uint256)": "infinite",
				"getServiceProviderMetadata()": "infinite",
				"getServiceProviderTokenId()": "2481",
				"isUserValid(string)": "infinite",
				"requestPayout()": "infinite",
				"startSubscription(uint256[2],uint256[2][2],uint256[2],uint256,uint256,string)": "infinite",
				"updateNewServiceProvider(string)": "infinite"
			}
		},
		"methodIdentifiers": {
			"INDEX_OF_METADATA()": "3e77fd8f",
			"SERVICE_PROVIDER_ENS()": "36d011b4",
			"addProduct(uint256,uint256,string)": "804ee2b5",
			"createSubscription(uint256,uint256)": "a71b6cd0",
			"extendSubscription(uint256[2],uint256[2][2],uint256[2],uint256,uint256,uint256)": "2739811a",
			"getProductMetaData(uint256)": "1302424b",
			"getServiceProviderMetadata()": "60b1b4b5",
			"getServiceProviderTokenId()": "9d990317",
			"isUserValid(string)": "f6b6dd85",
			"requestPayout()": "65058f4c",
			"startSubscription(uint256[2],uint256[2][2],uint256[2],uint256,uint256,string)": "5149246a",
			"updateNewServiceProvider(string)": "f49f23d6"
		}
	},
	"abi": [
		{
			"inputs": [
				{
					"internalType": "uint32",
					"name": "_levels",
					"type": "uint32"
				},
				{
					"internalType": "contract IHasher",
					"name": "_hasher",
					"type": "address"
				},
				{
					"internalType": "contract IVerifier",
					"name": "_verifier",
					"type": "address"
				},
				{
					"internalType": "contract IMetadata",
					"name": "_metadataContract",
					"type": "address"
				},
				{
					"internalType": "contract IServiceProviders",
					"name": "_spsContract",
					"type": "address"
				},
				{
					"internalType": "contract IPalo",
					"name": "_fundsContract",
					"type": "address"
				},
				{
					"internalType": "contract IAyala",
					"name": "_ayalaContract",
					"type": "address"
				},
				{
					"internalType": "contract IKermis",
					"name": "_kermisContract",
					"type": "address"
				},
				{
					"internalType": "string",
					"name": "_serviceProviderENS",
					"type": "string"
				},
				{
					"internalType": "string",
					"name": "_metaData",
					"type": "string"
				}
			],
			"stateMutability": "payable",
			"type": "constructor"
		},
		{
			"anonymous": false,
			"inputs": [
				{
					"indexed": false,
					"internalType": "address",
					"name": "subscriptionContract",
					"type": "address"
				}
			],
			"name": "showAddress",
			"type": "event"
		},
		{
			"inputs": [],
			"name": "INDEX_OF_METADATA",
			"outputs": [
				{
					"internalType": "uint256",
					"name": "",
					"type": "uint256"
				}
			],
			"stateMutability": "view",
			"type": "function"
		},
		{
			"inputs": [],
			"name": "SERVICE_PROVIDER_ENS",
			"outputs": [
				{
					"internalType": "string",
					"name": "",
					"type": "string"
				}
			],
			"stateMutability": "view",
			"type": "function"
		},
		{
			"inputs": [
				{
					"internalType": "uint256",
					"name": "_setupFee",
					"type": "uint256"
				},
				{
					"internalType": "uint256",
					"name": "_monthlyFee",
					"type": "uint256"
				},
				{
					"internalType": "string",
					"name": "_metaData",
					"type": "string"
				}
			],
			"name": "addProduct",
			"outputs": [],
			"stateMutability": "payable",
			"type": "function"
		},
		{
			"inputs": [
				{
					"internalType": "uint256",
					"name": "_commitmentDeposit",
					"type": "uint256"
				},
				{
					"internalType": "uint256",
					"name": "_productID",
					"type": "uint256"
				}
			],
			"name": "createSubscription",
			"outputs": [],
			"stateMutability": "nonpayable",
			"type": "function"
		},
		{
			"inputs": [
				{
					"internalType": "uint256[2]",
					"name": "_proof_a",
					"type": "uint256[2]"
				},
				{
					"internalType": "uint256[2][2]",
					"name": "_proof_b",
					"type": "uint256[2][2]"
				},
				{
					"internalType": "uint256[2]",
					"name": "_proof_c",
					"type": "uint256[2]"
				},
				{
					"internalType": "uint256",
					"name": "_nullifierHash",
					"type": "uint256"
				},
				{
					"internalType": "uint256",
					"name": "_root",
					"type": "uint256"
				},
				{
					"internalType": "uint256",
					"name": "_productID",
					"type": "uint256"
				}
			],
			"name": "extendSubscription",
			"outputs": [],
			"stateMutability": "nonpayable",
			"type": "function"
		},
		{
			"inputs": [
				{
					"internalType": "uint256",
					"name": "_productID",
					"type": "uint256"
				}
			],
			"name": "getProductMetaData",
			"outputs": [
				{
					"internalType": "string",
					"name": "",
					"type": "string"
				}
			],
			"stateMutability": "view",
			"type": "function"
		},
		{
			"inputs": [],
			"name": "getServiceProviderMetadata",
			"outputs": [
				{
					"internalType": "string",
					"name": "",
					"type": "string"
				}
			],
			"stateMutability": "view",
			"type": "function"
		},
		{
			"inputs": [],
			"name": "getServiceProviderTokenId",
			"outputs": [
				{
					"internalType": "uint256",
					"name": "",
					"type": "uint256"
				}
			],
			"stateMutability": "view",
			"type": "function"
		},
		{
			"inputs": [
				{
					"internalType": "string",
					"name": "ens",
					"type": "string"
				}
			],
			"name": "isUserValid",
			"outputs": [
				{
					"internalType": "bool",
					"name": "",
					"type": "bool"
				}
			],
			"stateMutability": "view",
			"type": "function"
		},
		{
			"inputs": [],
			"name": "requestPayout",
			"outputs": [],
			"stateMutability": "nonpayable",
			"type": "function"
		},
		{
			"inputs": [
				{
					"internalType": "uint256[2]",
					"name": "_proof_a",
					"type": "uint256[2]"
				},
				{
					"internalType": "uint256[2][2]",
					"name": "_proof_b",
					"type": "uint256[2][2]"
				},
				{
					"internalType": "uint256[2]",
					"name": "_proof_c",
					"type": "uint256[2]"
				},
				{
					"internalType": "uint256",
					"name": "_nullifierHash",
					"type": "uint256"
				},
				{
					"internalType": "uint256",
					"name": "_root",
					"type": "uint256"
				},
				{
					"internalType": "string",
					"name": "ens",
					"type": "string"
				}
			],
			"name": "startSubscription",
			"outputs": [],
			"stateMutability": "nonpayable",
			"type": "function"
		},
		{
			"inputs": [
				{
					"internalType": "string",
					"name": "_ENS",
					"type": "string"
				}
			],
			"name": "updateNewServiceProvider",
			"outputs": [],
			"stateMutability": "nonpayable",
			"type": "function"
		}
	]
}